{"abi":[{"inputs":[{"internalType":"uint256","name":"minimum","type":"uint256"}],"name":"createCampaign","outputs":[],"stateMutability":"nonpayable","type":"function"},{"inputs":[{"internalType":"uint256","name":"","type":"uint256"}],"name":"deployCampaigns","outputs":[{"internalType":"address","name":"","type":"address"}],"stateMutability":"view","type":"function"},{"inputs":[],"name":"getListCampaigns","outputs":[{"internalType":"address[]","name":"","type":"address[]"}],"stateMutability":"view","type":"function"}],"devdoc":{"kind":"dev","methods":{},"version":1},"evm":{"assembly":"    /* \"Campaign.sol\":72:425  contract CampaignFactory{... */\n  mstore(0x40, 0x80)\n  callvalue\n  dup1\n  iszero\n  tag_1\n  jumpi\n  0x00\n  dup1\n  revert\ntag_1:\n  pop\n  dataSize(sub_0)\n  dup1\n  dataOffset(sub_0)\n  0x00\n  codecopy\n  0x00\n  return\nstop\n\nsub_0: assembly {\n        /* \"Campaign.sol\":72:425  contract CampaignFactory{... */\n      mstore(0x40, 0x80)\n      callvalue\n      dup1\n      iszero\n      tag_1\n      jumpi\n      0x00\n      dup1\n      revert\n    tag_1:\n      pop\n      jumpi(tag_2, lt(calldatasize, 0x04))\n      shr(0xe0, calldataload(0x00))\n      dup1\n      0xa3303a75\n      eq\n      tag_3\n      jumpi\n      dup1\n      0xdb05983b\n      eq\n      tag_4\n      jumpi\n      dup1\n      0xe7e1ffa4\n      eq\n      tag_5\n      jumpi\n    tag_2:\n      0x00\n      dup1\n      revert\n        /* \"Campaign.sol\":144:310  function createCampaign(uint minimum) public {... */\n    tag_3:\n      tag_6\n      0x04\n      dup1\n      calldatasize\n      sub\n      dup2\n      add\n      swap1\n      tag_7\n      swap2\n      swap1\n      tag_8\n      jump\t// in\n    tag_7:\n      tag_9\n      jump\t// in\n    tag_6:\n      stop\n        /* \"Campaign.sol\":103:135  address[] public deployCampaigns */\n    tag_4:\n      tag_10\n      0x04\n      dup1\n      calldatasize\n      sub\n      dup2\n      add\n      swap1\n      tag_11\n      swap2\n      swap1\n      tag_8\n      jump\t// in\n    tag_11:\n      tag_12\n      jump\t// in\n    tag_10:\n      mload(0x40)\n      tag_13\n      swap2\n      swap1\n      tag_14\n      jump\t// in\n    tag_13:\n      mload(0x40)\n      dup1\n      swap2\n      sub\n      swap1\n      return\n        /* \"Campaign.sol\":316:422  function getListCampaigns() public view returns(address[] memory){... */\n    tag_5:\n      tag_15\n      tag_16\n      jump\t// in\n    tag_15:\n      mload(0x40)\n      tag_17\n      swap2\n      swap1\n      tag_18\n      jump\t// in\n    tag_17:\n      mload(0x40)\n      dup1\n      swap2\n      sub\n      swap1\n      return\n        /* \"Campaign.sol\":144:310  function createCampaign(uint minimum) public {... */\n    tag_9:\n        /* \"Campaign.sol\":200:216  address campaign */\n      0x00\n        /* \"Campaign.sol\":240:247  minimum */\n      dup2\n        /* \"Campaign.sol\":249:259  msg.sender */\n      caller\n        /* \"Campaign.sol\":227:260  new Campaign(minimum, msg.sender) */\n      mload(0x40)\n      tag_20\n      swap1\n      tag_21\n      jump\t// in\n    tag_20:\n      tag_22\n      swap3\n      swap2\n      swap1\n      tag_23\n      jump\t// in\n    tag_22:\n      mload(0x40)\n      dup1\n      swap2\n      sub\n      swap1\n      0x00\n      create\n      dup1\n      iszero\n      dup1\n      iszero\n      tag_24\n      jumpi\n      returndatasize\n      0x00\n      dup1\n      returndatacopy\n      revert(0x00, returndatasize)\n    tag_24:\n      pop\n        /* \"Campaign.sol\":200:261  address campaign = address(new Campaign(minimum, msg.sender)) */\n      swap1\n      pop\n        /* \"Campaign.sol\":272:287  deployCampaigns */\n      0x00\n        /* \"Campaign.sol\":293:301  campaign */\n      dup2\n        /* \"Campaign.sol\":272:302  deployCampaigns.push(campaign) */\n      swap1\n      dup1\n      0x01\n      dup2\n      sload\n      add\n      dup1\n      dup3\n      sstore\n      dup1\n      swap2\n      pop\n      pop\n      0x01\n      swap1\n      sub\n      swap1\n      0x00\n      mstore\n      keccak256(0x00, 0x20)\n      add\n      0x00\n      swap1\n      swap2\n      swap1\n      swap2\n      swap1\n      swap2\n      0x0100\n      exp\n      dup2\n      sload\n      dup2\n      0xffffffffffffffffffffffffffffffffffffffff\n      mul\n      not\n      and\n      swap1\n      dup4\n      0xffffffffffffffffffffffffffffffffffffffff\n      and\n      mul\n      or\n      swap1\n      sstore\n      pop\n        /* \"Campaign.sol\":189:310  {... */\n      pop\n        /* \"Campaign.sol\":144:310  function createCampaign(uint minimum) public {... */\n      pop\n      jump\t// out\n        /* \"Campaign.sol\":103:135  address[] public deployCampaigns */\n    tag_12:\n      0x00\n      dup2\n      dup2\n      sload\n      dup2\n      lt\n      tag_26\n      jumpi\n      0x00\n      dup1\n      revert\n    tag_26:\n      swap1\n      0x00\n      mstore\n      keccak256(0x00, 0x20)\n      add\n      0x00\n      swap2\n      pop\n      sload\n      swap1\n      0x0100\n      exp\n      swap1\n      div\n      0xffffffffffffffffffffffffffffffffffffffff\n      and\n      dup2\n      jump\t// out\n        /* \"Campaign.sol\":316:422  function getListCampaigns() public view returns(address[] memory){... */\n    tag_16:\n        /* \"Campaign.sol\":364:380  address[] memory */\n      0x60\n        /* \"Campaign.sol\":399:414  deployCampaigns */\n      0x00\n        /* \"Campaign.sol\":392:414  return deployCampaigns */\n      dup1\n      sload\n      dup1\n      0x20\n      mul\n      0x20\n      add\n      mload(0x40)\n      swap1\n      dup2\n      add\n      0x40\n      mstore\n      dup1\n      swap3\n      swap2\n      swap1\n      dup2\n      dup2\n      mstore\n      0x20\n      add\n      dup3\n      dup1\n      sload\n      dup1\n      iszero\n      tag_29\n      jumpi\n      0x20\n      mul\n      dup3\n      add\n      swap2\n      swap1\n      0x00\n      mstore\n      keccak256(0x00, 0x20)\n      swap1\n    tag_30:\n      dup2\n      0x00\n      swap1\n      sload\n      swap1\n      0x0100\n      exp\n      swap1\n      div\n      0xffffffffffffffffffffffffffffffffffffffff\n      and\n      0xffffffffffffffffffffffffffffffffffffffff\n      and\n      dup2\n      mstore\n      0x20\n      add\n      swap1\n      0x01\n      add\n      swap1\n      dup1\n      dup4\n      gt\n      tag_30\n      jumpi\n    tag_29:\n      pop\n      pop\n      pop\n      pop\n      pop\n      swap1\n      pop\n        /* \"Campaign.sol\":316:422  function getListCampaigns() public view returns(address[] memory){... */\n      swap1\n      jump\t// out\n    tag_21:\n      dataSize(sub_0)\n      dup1\n      dataOffset(sub_0)\n      dup4\n      codecopy\n      add\n      swap1\n      jump\t// out\n        /* \"#utility.yul\":88:205   */\n    tag_32:\n        /* \"#utility.yul\":197:198   */\n      0x00\n        /* \"#utility.yul\":194:195   */\n      dup1\n        /* \"#utility.yul\":187:199   */\n      revert\n        /* \"#utility.yul\":334:411   */\n    tag_34:\n        /* \"#utility.yul\":371:378   */\n      0x00\n        /* \"#utility.yul\":400:405   */\n      dup2\n        /* \"#utility.yul\":389:405   */\n      swap1\n      pop\n        /* \"#utility.yul\":334:411   */\n      swap2\n      swap1\n      pop\n      jump\t// out\n        /* \"#utility.yul\":417:539   */\n    tag_35:\n        /* \"#utility.yul\":490:514   */\n      tag_54\n        /* \"#utility.yul\":508:513   */\n      dup2\n        /* \"#utility.yul\":490:514   */\n      tag_34\n      jump\t// in\n    tag_54:\n        /* \"#utility.yul\":483:488   */\n      dup2\n        /* \"#utility.yul\":480:515   */\n      eq\n        /* \"#utility.yul\":470:533   */\n      tag_55\n      jumpi\n        /* \"#utility.yul\":529:530   */\n      0x00\n        /* \"#utility.yul\":526:527   */\n      dup1\n        /* \"#utility.yul\":519:531   */\n      revert\n        /* \"#utility.yul\":470:533   */\n    tag_55:\n        /* \"#utility.yul\":417:539   */\n      pop\n      jump\t// out\n        /* \"#utility.yul\":545:684   */\n    tag_36:\n        /* \"#utility.yul\":591:596   */\n      0x00\n        /* \"#utility.yul\":629:635   */\n      dup2\n        /* \"#utility.yul\":616:636   */\n      calldataload\n        /* \"#utility.yul\":607:636   */\n      swap1\n      pop\n        /* \"#utility.yul\":645:678   */\n      tag_57\n        /* \"#utility.yul\":672:677   */\n      dup2\n        /* \"#utility.yul\":645:678   */\n      tag_35\n      jump\t// in\n    tag_57:\n        /* \"#utility.yul\":545:684   */\n      swap3\n      swap2\n      pop\n      pop\n      jump\t// out\n        /* \"#utility.yul\":690:1019   */\n    tag_8:\n        /* \"#utility.yul\":749:755   */\n      0x00\n        /* \"#utility.yul\":798:800   */\n      0x20\n        /* \"#utility.yul\":786:795   */\n      dup3\n        /* \"#utility.yul\":777:784   */\n      dup5\n        /* \"#utility.yul\":773:796   */\n      sub\n        /* \"#utility.yul\":769:801   */\n      slt\n        /* \"#utility.yul\":766:885   */\n      iszero\n      tag_59\n      jumpi\n        /* \"#utility.yul\":804:883   */\n      tag_60\n      tag_32\n      jump\t// in\n    tag_60:\n        /* \"#utility.yul\":766:885   */\n    tag_59:\n        /* \"#utility.yul\":924:925   */\n      0x00\n        /* \"#utility.yul\":949:1002   */\n      tag_61\n        /* \"#utility.yul\":994:1001   */\n      dup5\n        /* \"#utility.yul\":985:991   */\n      dup3\n        /* \"#utility.yul\":974:983   */\n      dup6\n        /* \"#utility.yul\":970:992   */\n      add\n        /* \"#utility.yul\":949:1002   */\n      tag_36\n      jump\t// in\n    tag_61:\n        /* \"#utility.yul\":939:1002   */\n      swap2\n      pop\n        /* \"#utility.yul\":895:1012   */\n      pop\n        /* \"#utility.yul\":690:1019   */\n      swap3\n      swap2\n      pop\n      pop\n      jump\t// out\n        /* \"#utility.yul\":1025:1151   */\n    tag_37:\n        /* \"#utility.yul\":1062:1069   */\n      0x00\n        /* \"#utility.yul\":1102:1144   */\n      0xffffffffffffffffffffffffffffffffffffffff\n        /* \"#utility.yul\":1095:1100   */\n      dup3\n        /* \"#utility.yul\":1091:1145   */\n      and\n        /* \"#utility.yul\":1080:1145   */\n      swap1\n      pop\n        /* \"#utility.yul\":1025:1151   */\n      swap2\n      swap1\n      pop\n      jump\t// out\n        /* \"#utility.yul\":1157:1253   */\n    tag_38:\n        /* \"#utility.yul\":1194:1201   */\n      0x00\n        /* \"#utility.yul\":1223:1247   */\n      tag_64\n        /* \"#utility.yul\":1241:1246   */\n      dup3\n        /* \"#utility.yul\":1223:1247   */\n      tag_37\n      jump\t// in\n    tag_64:\n        /* \"#utility.yul\":1212:1247   */\n      swap1\n      pop\n        /* \"#utility.yul\":1157:1253   */\n      swap2\n      swap1\n      pop\n      jump\t// out\n        /* \"#utility.yul\":1259:1377   */\n    tag_39:\n        /* \"#utility.yul\":1346:1370   */\n      tag_66\n        /* \"#utility.yul\":1364:1369   */\n      dup2\n        /* \"#utility.yul\":1346:1370   */\n      tag_38\n      jump\t// in\n    tag_66:\n        /* \"#utility.yul\":1341:1344   */\n      dup3\n        /* \"#utility.yul\":1334:1371   */\n      mstore\n        /* \"#utility.yul\":1259:1377   */\n      pop\n      pop\n      jump\t// out\n        /* \"#utility.yul\":1383:1605   */\n    tag_14:\n        /* \"#utility.yul\":1476:1480   */\n      0x00\n        /* \"#utility.yul\":1514:1516   */\n      0x20\n        /* \"#utility.yul\":1503:1512   */\n      dup3\n        /* \"#utility.yul\":1499:1517   */\n      add\n        /* \"#utility.yul\":1491:1517   */\n      swap1\n      pop\n        /* \"#utility.yul\":1527:1598   */\n      tag_68\n        /* \"#utility.yul\":1595:1596   */\n      0x00\n        /* \"#utility.yul\":1584:1593   */\n      dup4\n        /* \"#utility.yul\":1580:1597   */\n      add\n        /* \"#utility.yul\":1571:1577   */\n      dup5\n        /* \"#utility.yul\":1527:1598   */\n      tag_39\n      jump\t// in\n    tag_68:\n        /* \"#utility.yul\":1383:1605   */\n      swap3\n      swap2\n      pop\n      pop\n      jump\t// out\n        /* \"#utility.yul\":1611:1725   */\n    tag_40:\n        /* \"#utility.yul\":1678:1684   */\n      0x00\n        /* \"#utility.yul\":1712:1717   */\n      dup2\n        /* \"#utility.yul\":1706:1718   */\n      mload\n        /* \"#utility.yul\":1696:1718   */\n      swap1\n      pop\n        /* \"#utility.yul\":1611:1725   */\n      swap2\n      swap1\n      pop\n      jump\t// out\n        /* \"#utility.yul\":1731:1915   */\n    tag_41:\n        /* \"#utility.yul\":1830:1841   */\n      0x00\n        /* \"#utility.yul\":1864:1870   */\n      dup3\n        /* \"#utility.yul\":1859:1862   */\n      dup3\n        /* \"#utility.yul\":1852:1871   */\n      mstore\n        /* \"#utility.yul\":1904:1908   */\n      0x20\n        /* \"#utility.yul\":1899:1902   */\n      dup3\n        /* \"#utility.yul\":1895:1909   */\n      add\n        /* \"#utility.yul\":1880:1909   */\n      swap1\n      pop\n        /* \"#utility.yul\":1731:1915   */\n      swap3\n      swap2\n      pop\n      pop\n      jump\t// out\n        /* \"#utility.yul\":1921:2053   */\n    tag_42:\n        /* \"#utility.yul\":1988:1992   */\n      0x00\n        /* \"#utility.yul\":2011:2014   */\n      dup2\n        /* \"#utility.yul\":2003:2014   */\n      swap1\n      pop\n        /* \"#utility.yul\":2041:2045   */\n      0x20\n        /* \"#utility.yul\":2036:2039   */\n      dup3\n        /* \"#utility.yul\":2032:2046   */\n      add\n        /* \"#utility.yul\":2024:2046   */\n      swap1\n      pop\n        /* \"#utility.yul\":1921:2053   */\n      swap2\n      swap1\n      pop\n      jump\t// out\n        /* \"#utility.yul\":2059:2167   */\n    tag_43:\n        /* \"#utility.yul\":2136:2160   */\n      tag_73\n        /* \"#utility.yul\":2154:2159   */\n      dup2\n        /* \"#utility.yul\":2136:2160   */\n      tag_38\n      jump\t// in\n    tag_73:\n        /* \"#utility.yul\":2131:2134   */\n      dup3\n        /* \"#utility.yul\":2124:2161   */\n      mstore\n        /* \"#utility.yul\":2059:2167   */\n      pop\n      pop\n      jump\t// out\n        /* \"#utility.yul\":2173:2352   */\n    tag_44:\n        /* \"#utility.yul\":2242:2252   */\n      0x00\n        /* \"#utility.yul\":2263:2309   */\n      tag_75\n        /* \"#utility.yul\":2305:2308   */\n      dup4\n        /* \"#utility.yul\":2297:2303   */\n      dup4\n        /* \"#utility.yul\":2263:2309   */\n      tag_43\n      jump\t// in\n    tag_75:\n        /* \"#utility.yul\":2341:2345   */\n      0x20\n        /* \"#utility.yul\":2336:2339   */\n      dup4\n        /* \"#utility.yul\":2332:2346   */\n      add\n        /* \"#utility.yul\":2318:2346   */\n      swap1\n      pop\n        /* \"#utility.yul\":2173:2352   */\n      swap3\n      swap2\n      pop\n      pop\n      jump\t// out\n        /* \"#utility.yul\":2358:2471   */\n    tag_45:\n        /* \"#utility.yul\":2428:2432   */\n      0x00\n        /* \"#utility.yul\":2460:2464   */\n      0x20\n        /* \"#utility.yul\":2455:2458   */\n      dup3\n        /* \"#utility.yul\":2451:2465   */\n      add\n        /* \"#utility.yul\":2443:2465   */\n      swap1\n      pop\n        /* \"#utility.yul\":2358:2471   */\n      swap2\n      swap1\n      pop\n      jump\t// out\n        /* \"#utility.yul\":2507:3239   */\n    tag_46:\n        /* \"#utility.yul\":2626:2629   */\n      0x00\n        /* \"#utility.yul\":2655:2709   */\n      tag_78\n        /* \"#utility.yul\":2703:2708   */\n      dup3\n        /* \"#utility.yul\":2655:2709   */\n      tag_40\n      jump\t// in\n    tag_78:\n        /* \"#utility.yul\":2725:2811   */\n      tag_79\n        /* \"#utility.yul\":2804:2810   */\n      dup2\n        /* \"#utility.yul\":2799:2802   */\n      dup6\n        /* \"#utility.yul\":2725:2811   */\n      tag_41\n      jump\t// in\n    tag_79:\n        /* \"#utility.yul\":2718:2811   */\n      swap4\n      pop\n        /* \"#utility.yul\":2835:2891   */\n      tag_80\n        /* \"#utility.yul\":2885:2890   */\n      dup4\n        /* \"#utility.yul\":2835:2891   */\n      tag_42\n      jump\t// in\n    tag_80:\n        /* \"#utility.yul\":2914:2921   */\n      dup1\n        /* \"#utility.yul\":2945:2946   */\n      0x00\n        /* \"#utility.yul\":2930:3214   */\n    tag_81:\n        /* \"#utility.yul\":2955:2961   */\n      dup4\n        /* \"#utility.yul\":2952:2953   */\n      dup2\n        /* \"#utility.yul\":2949:2962   */\n      lt\n        /* \"#utility.yul\":2930:3214   */\n      iszero\n      tag_83\n      jumpi\n        /* \"#utility.yul\":3031:3037   */\n      dup2\n        /* \"#utility.yul\":3025:3038   */\n      mload\n        /* \"#utility.yul\":3058:3121   */\n      tag_84\n        /* \"#utility.yul\":3117:3120   */\n      dup9\n        /* \"#utility.yul\":3102:3115   */\n      dup3\n        /* \"#utility.yul\":3058:3121   */\n      tag_44\n      jump\t// in\n    tag_84:\n        /* \"#utility.yul\":3051:3121   */\n      swap8\n      pop\n        /* \"#utility.yul\":3144:3204   */\n      tag_85\n        /* \"#utility.yul\":3197:3203   */\n      dup4\n        /* \"#utility.yul\":3144:3204   */\n      tag_45\n      jump\t// in\n    tag_85:\n        /* \"#utility.yul\":3134:3204   */\n      swap3\n      pop\n        /* \"#utility.yul\":2990:3214   */\n      pop\n        /* \"#utility.yul\":2977:2978   */\n      0x01\n        /* \"#utility.yul\":2974:2975   */\n      dup2\n        /* \"#utility.yul\":2970:2979   */\n      add\n        /* \"#utility.yul\":2965:2979   */\n      swap1\n      pop\n        /* \"#utility.yul\":2930:3214   */\n      jump(tag_81)\n    tag_83:\n        /* \"#utility.yul\":2934:2948   */\n      pop\n        /* \"#utility.yul\":3230:3233   */\n      dup6\n        /* \"#utility.yul\":3223:3233   */\n      swap4\n      pop\n        /* \"#utility.yul\":2631:3239   */\n      pop\n      pop\n      pop\n        /* \"#utility.yul\":2507:3239   */\n      swap3\n      swap2\n      pop\n      pop\n      jump\t// out\n        /* \"#utility.yul\":3245:3618   */\n    tag_18:\n        /* \"#utility.yul\":3388:3392   */\n      0x00\n        /* \"#utility.yul\":3426:3428   */\n      0x20\n        /* \"#utility.yul\":3415:3424   */\n      dup3\n        /* \"#utility.yul\":3411:3429   */\n      add\n        /* \"#utility.yul\":3403:3429   */\n      swap1\n      pop\n        /* \"#utility.yul\":3475:3484   */\n      dup2\n        /* \"#utility.yul\":3469:3473   */\n      dup2\n        /* \"#utility.yul\":3465:3485   */\n      sub\n        /* \"#utility.yul\":3461:3462   */\n      0x00\n        /* \"#utility.yul\":3450:3459   */\n      dup4\n        /* \"#utility.yul\":3446:3463   */\n      add\n        /* \"#utility.yul\":3439:3486   */\n      mstore\n        /* \"#utility.yul\":3503:3611   */\n      tag_87\n        /* \"#utility.yul\":3606:3610   */\n      dup2\n        /* \"#utility.yul\":3597:3603   */\n      dup5\n        /* \"#utility.yul\":3503:3611   */\n      tag_46\n      jump\t// in\n    tag_87:\n        /* \"#utility.yul\":3495:3611   */\n      swap1\n      pop\n        /* \"#utility.yul\":3245:3618   */\n      swap3\n      swap2\n      pop\n      pop\n      jump\t// out\n        /* \"#utility.yul\":3624:3742   */\n    tag_47:\n        /* \"#utility.yul\":3711:3735   */\n      tag_89\n        /* \"#utility.yul\":3729:3734   */\n      dup2\n        /* \"#utility.yul\":3711:3735   */\n      tag_34\n      jump\t// in\n    tag_89:\n        /* \"#utility.yul\":3706:3709   */\n      dup3\n        /* \"#utility.yul\":3699:3736   */\n      mstore\n        /* \"#utility.yul\":3624:3742   */\n      pop\n      pop\n      jump\t// out\n        /* \"#utility.yul\":3748:4080   */\n    tag_23:\n        /* \"#utility.yul\":3869:3873   */\n      0x00\n        /* \"#utility.yul\":3907:3909   */\n      0x40\n        /* \"#utility.yul\":3896:3905   */\n      dup3\n        /* \"#utility.yul\":3892:3910   */\n      add\n        /* \"#utility.yul\":3884:3910   */\n      swap1\n      pop\n        /* \"#utility.yul\":3920:3991   */\n      tag_91\n        /* \"#utility.yul\":3988:3989   */\n      0x00\n        /* \"#utility.yul\":3977:3986   */\n      dup4\n        /* \"#utility.yul\":3973:3990   */\n      add\n        /* \"#utility.yul\":3964:3970   */\n      dup6\n        /* \"#utility.yul\":3920:3991   */\n      tag_47\n      jump\t// in\n    tag_91:\n        /* \"#utility.yul\":4001:4073   */\n      tag_92\n        /* \"#utility.yul\":4069:4071   */\n      0x20\n        /* \"#utility.yul\":4058:4067   */\n      dup4\n        /* \"#utility.yul\":4054:4072   */\n      add\n        /* \"#utility.yul\":4045:4051   */\n      dup5\n        /* \"#utility.yul\":4001:4073   */\n      tag_39\n      jump\t// in\n    tag_92:\n        /* \"#utility.yul\":3748:4080   */\n      swap4\n      swap3\n      pop\n      pop\n      pop\n      jump\t// out\n    stop\n\n    sub_0: assembly {\n            /* \"Campaign.sol\":431:2989  contract Campaign{... */\n          mstore(0x40, 0x80)\n            /* \"Campaign.sol\":1028:1147  constructor (uint minimum, address creator){... */\n          callvalue\n          dup1\n          iszero\n          tag_1\n          jumpi\n          0x00\n          dup1\n          revert\n        tag_1:\n          pop\n          mload(0x40)\n          sub(codesize, bytecodeSize)\n          dup1\n          bytecodeSize\n          dup4\n          codecopy\n          dup2\n          dup2\n          add\n          0x40\n          mstore\n          dup2\n          add\n          swap1\n          tag_2\n          swap2\n          swap1\n          tag_3\n          jump\t// in\n        tag_2:\n            /* \"Campaign.sol\":1092:1099  creator */\n          dup1\n            /* \"Campaign.sol\":1082:1089  manager */\n          0x00\n          dup1\n            /* \"Campaign.sol\":1082:1099  manager = creator */\n          0x0100\n          exp\n          dup2\n          sload\n          dup2\n          0xffffffffffffffffffffffffffffffffffffffff\n          mul\n          not\n          and\n          swap1\n          dup4\n          0xffffffffffffffffffffffffffffffffffffffff\n          and\n          mul\n          or\n          swap1\n          sstore\n          pop\n            /* \"Campaign.sol\":1132:1139  minimum */\n          dup2\n            /* \"Campaign.sol\":1110:1129  minimumContribution */\n          0x01\n            /* \"Campaign.sol\":1110:1139  minimumContribution = minimum */\n          dup2\n          swap1\n          sstore\n          pop\n            /* \"Campaign.sol\":1028:1147  constructor (uint minimum, address creator){... */\n          pop\n          pop\n            /* \"Campaign.sol\":431:2989  contract Campaign{... */\n          jump(tag_6)\n            /* \"#utility.yul\":88:205   */\n        tag_8:\n            /* \"#utility.yul\":197:198   */\n          0x00\n            /* \"#utility.yul\":194:195   */\n          dup1\n            /* \"#utility.yul\":187:199   */\n          revert\n            /* \"#utility.yul\":334:411   */\n        tag_10:\n            /* \"#utility.yul\":371:378   */\n          0x00\n            /* \"#utility.yul\":400:405   */\n          dup2\n            /* \"#utility.yul\":389:405   */\n          swap1\n          pop\n            /* \"#utility.yul\":334:411   */\n          swap2\n          swap1\n          pop\n          jump\t// out\n            /* \"#utility.yul\":417:539   */\n        tag_11:\n            /* \"#utility.yul\":490:514   */\n          tag_23\n            /* \"#utility.yul\":508:513   */\n          dup2\n            /* \"#utility.yul\":490:514   */\n          tag_10\n          jump\t// in\n        tag_23:\n            /* \"#utility.yul\":483:488   */\n          dup2\n            /* \"#utility.yul\":480:515   */\n          eq\n            /* \"#utility.yul\":470:533   */\n          tag_24\n          jumpi\n            /* \"#utility.yul\":529:530   */\n          0x00\n            /* \"#utility.yul\":526:527   */\n          dup1\n            /* \"#utility.yul\":519:531   */\n          revert\n            /* \"#utility.yul\":470:533   */\n        tag_24:\n            /* \"#utility.yul\":417:539   */\n          pop\n          jump\t// out\n            /* \"#utility.yul\":545:688   */\n        tag_12:\n            /* \"#utility.yul\":602:607   */\n          0x00\n            /* \"#utility.yul\":633:639   */\n          dup2\n            /* \"#utility.yul\":627:640   */\n          mload\n            /* \"#utility.yul\":618:640   */\n          swap1\n          pop\n            /* \"#utility.yul\":649:682   */\n          tag_26\n            /* \"#utility.yul\":676:681   */\n          dup2\n            /* \"#utility.yul\":649:682   */\n          tag_11\n          jump\t// in\n        tag_26:\n            /* \"#utility.yul\":545:688   */\n          swap3\n          swap2\n          pop\n          pop\n          jump\t// out\n            /* \"#utility.yul\":694:820   */\n        tag_13:\n            /* \"#utility.yul\":731:738   */\n          0x00\n            /* \"#utility.yul\":771:813   */\n          0xffffffffffffffffffffffffffffffffffffffff\n            /* \"#utility.yul\":764:769   */\n          dup3\n            /* \"#utility.yul\":760:814   */\n          and\n            /* \"#utility.yul\":749:814   */\n          swap1\n          pop\n            /* \"#utility.yul\":694:820   */\n          swap2\n          swap1\n          pop\n          jump\t// out\n            /* \"#utility.yul\":826:922   */\n        tag_14:\n            /* \"#utility.yul\":863:870   */\n          0x00\n            /* \"#utility.yul\":892:916   */\n          tag_29\n            /* \"#utility.yul\":910:915   */\n          dup3\n            /* \"#utility.yul\":892:916   */\n          tag_13\n          jump\t// in\n        tag_29:\n            /* \"#utility.yul\":881:916   */\n          swap1\n          pop\n            /* \"#utility.yul\":826:922   */\n          swap2\n          swap1\n          pop\n          jump\t// out\n            /* \"#utility.yul\":928:1050   */\n        tag_15:\n            /* \"#utility.yul\":1001:1025   */\n          tag_31\n            /* \"#utility.yul\":1019:1024   */\n          dup2\n            /* \"#utility.yul\":1001:1025   */\n          tag_14\n          jump\t// in\n        tag_31:\n            /* \"#utility.yul\":994:999   */\n          dup2\n            /* \"#utility.yul\":991:1026   */\n          eq\n            /* \"#utility.yul\":981:1044   */\n          tag_32\n          jumpi\n            /* \"#utility.yul\":1040:1041   */\n          0x00\n            /* \"#utility.yul\":1037:1038   */\n          dup1\n            /* \"#utility.yul\":1030:1042   */\n          revert\n            /* \"#utility.yul\":981:1044   */\n        tag_32:\n            /* \"#utility.yul\":928:1050   */\n          pop\n          jump\t// out\n            /* \"#utility.yul\":1056:1199   */\n        tag_16:\n            /* \"#utility.yul\":1113:1118   */\n          0x00\n            /* \"#utility.yul\":1144:1150   */\n          dup2\n            /* \"#utility.yul\":1138:1151   */\n          mload\n            /* \"#utility.yul\":1129:1151   */\n          swap1\n          pop\n            /* \"#utility.yul\":1160:1193   */\n          tag_34\n            /* \"#utility.yul\":1187:1192   */\n          dup2\n            /* \"#utility.yul\":1160:1193   */\n          tag_15\n          jump\t// in\n        tag_34:\n            /* \"#utility.yul\":1056:1199   */\n          swap3\n          swap2\n          pop\n          pop\n          jump\t// out\n            /* \"#utility.yul\":1205:1712   */\n        tag_3:\n            /* \"#utility.yul\":1284:1290   */\n          0x00\n            /* \"#utility.yul\":1292:1298   */\n          dup1\n            /* \"#utility.yul\":1341:1343   */\n          0x40\n            /* \"#utility.yul\":1329:1338   */\n          dup4\n            /* \"#utility.yul\":1320:1327   */\n          dup6\n            /* \"#utility.yul\":1316:1339   */\n          sub\n            /* \"#utility.yul\":1312:1344   */\n          slt\n            /* \"#utility.yul\":1309:1428   */\n          iszero\n          tag_36\n          jumpi\n            /* \"#utility.yul\":1347:1426   */\n          tag_37\n          tag_8\n          jump\t// in\n        tag_37:\n            /* \"#utility.yul\":1309:1428   */\n        tag_36:\n            /* \"#utility.yul\":1467:1468   */\n          0x00\n            /* \"#utility.yul\":1492:1556   */\n          tag_38\n            /* \"#utility.yul\":1548:1555   */\n          dup6\n            /* \"#utility.yul\":1539:1545   */\n          dup3\n            /* \"#utility.yul\":1528:1537   */\n          dup7\n            /* \"#utility.yul\":1524:1546   */\n          add\n            /* \"#utility.yul\":1492:1556   */\n          tag_12\n          jump\t// in\n        tag_38:\n            /* \"#utility.yul\":1482:1556   */\n          swap3\n          pop\n            /* \"#utility.yul\":1438:1566   */\n          pop\n            /* \"#utility.yul\":1605:1607   */\n          0x20\n            /* \"#utility.yul\":1631:1695   */\n          tag_39\n            /* \"#utility.yul\":1687:1694   */\n          dup6\n            /* \"#utility.yul\":1678:1684   */\n          dup3\n            /* \"#utility.yul\":1667:1676   */\n          dup7\n            /* \"#utility.yul\":1663:1685   */\n          add\n            /* \"#utility.yul\":1631:1695   */\n          tag_16\n          jump\t// in\n        tag_39:\n            /* \"#utility.yul\":1621:1695   */\n          swap2\n          pop\n            /* \"#utility.yul\":1576:1705   */\n          pop\n            /* \"#utility.yul\":1205:1712   */\n          swap3\n          pop\n          swap3\n          swap1\n          pop\n          jump\t// out\n            /* \"Campaign.sol\":431:2989  contract Campaign{... */\n        tag_6:\n          dataSize(sub_0)\n          dup1\n          dataOffset(sub_0)\n          0x00\n          codecopy\n          0x00\n          return\n        stop\n\n        sub_0: assembly {\n                /* \"Campaign.sol\":431:2989  contract Campaign{... */\n              mstore(0x40, 0x80)\n              jumpi(tag_1, lt(calldatasize, 0x04))\n              shr(0xe0, calldataload(0x00))\n              dup1\n              0x81d12c58\n              gt\n              tag_14\n              jumpi\n              dup1\n              0x81d12c58\n              eq\n              tag_8\n              jumpi\n              dup1\n              0x8a9cfd55\n              eq\n              tag_9\n              jumpi\n              dup1\n              0x937e09b1\n              eq\n              tag_10\n              jumpi\n              dup1\n              0xa1ec6ce5\n              eq\n              tag_11\n              jumpi\n              dup1\n              0xd7bb99ba\n              eq\n              tag_12\n              jumpi\n              dup1\n              0xd7d1bbdb\n              eq\n              tag_13\n              jumpi\n              jump(tag_1)\n            tag_14:\n              dup1\n              0x03441006\n              eq\n              tag_2\n              jumpi\n              dup1\n              0x0a144391\n              eq\n              tag_3\n              jumpi\n              dup1\n              0x128e9be6\n              eq\n              tag_4\n              jumpi\n              dup1\n              0x3410452a\n              eq\n              tag_5\n              jumpi\n              dup1\n              0x4051ddac\n              eq\n              tag_6\n              jumpi\n              dup1\n              0x481c6a75\n              eq\n              tag_7\n              jumpi\n            tag_1:\n              0x00\n              dup1\n              revert\n                /* \"Campaign.sol\":2174:2601  function finalizeRequest(uint index) public restricted{... */\n            tag_2:\n              callvalue\n              dup1\n              iszero\n              tag_15\n              jumpi\n              0x00\n              dup1\n              revert\n            tag_15:\n              pop\n              tag_16\n              0x04\n              dup1\n              calldatasize\n              sub\n              dup2\n              add\n              swap1\n              tag_17\n              swap2\n              swap1\n              tag_18\n              jump\t// in\n            tag_17:\n              tag_19\n              jump\t// in\n            tag_16:\n              stop\n                /* \"Campaign.sol\":866:908  mapping(address => bool)  public approvers */\n            tag_3:\n              callvalue\n              dup1\n              iszero\n              tag_20\n              jumpi\n              0x00\n              dup1\n              revert\n            tag_20:\n              pop\n              tag_21\n              0x04\n              dup1\n              calldatasize\n              sub\n              dup2\n              add\n              swap1\n              tag_22\n              swap2\n              swap1\n              tag_23\n              jump\t// in\n            tag_22:\n              tag_24\n              jump\t// in\n            tag_21:\n              mload(0x40)\n              tag_25\n              swap2\n              swap1\n              tag_26\n              jump\t// in\n            tag_25:\n              mload(0x40)\n              dup1\n              swap2\n              sub\n              swap1\n              return\n                /* \"Campaign.sol\":994:1019  uint public approverCount */\n            tag_4:\n              callvalue\n              dup1\n              iszero\n              tag_27\n              jumpi\n              0x00\n              dup1\n              revert\n            tag_27:\n              pop\n              tag_28\n              tag_29\n              jump\t// in\n            tag_28:\n              mload(0x40)\n              tag_30\n              swap2\n              swap1\n              tag_31\n              jump\t// in\n            tag_30:\n              mload(0x40)\n              dup1\n              swap2\n              sub\n              swap1\n              return\n                /* \"Campaign.sol\":2892:2984  function getRequestsCount() public view returns(uint){... */\n            tag_5:\n              callvalue\n              dup1\n              iszero\n              tag_32\n              jumpi\n              0x00\n              dup1\n              revert\n            tag_32:\n              pop\n              tag_33\n              tag_34\n              jump\t// in\n            tag_33:\n              mload(0x40)\n              tag_35\n              swap2\n              swap1\n              tag_31\n              jump\t// in\n            tag_35:\n              mload(0x40)\n              dup1\n              swap2\n              sub\n              swap1\n              return\n                /* \"Campaign.sol\":2609:2884  function getSummary() public view returns(... */\n            tag_6:\n              callvalue\n              dup1\n              iszero\n              tag_36\n              jumpi\n              0x00\n              dup1\n              revert\n            tag_36:\n              pop\n              tag_37\n              tag_38\n              jump\t// in\n            tag_37:\n              mload(0x40)\n              tag_39\n              swap6\n              swap5\n              swap4\n              swap3\n              swap2\n              swap1\n              tag_40\n              jump\t// in\n            tag_39:\n              mload(0x40)\n              dup1\n              swap2\n              sub\n              swap1\n              return\n                /* \"Campaign.sol\":799:821  address public manager */\n            tag_7:\n              callvalue\n              dup1\n              iszero\n              tag_41\n              jumpi\n              0x00\n              dup1\n              revert\n            tag_41:\n              pop\n              tag_42\n              tag_43\n              jump\t// in\n            tag_42:\n              mload(0x40)\n              tag_44\n              swap2\n              swap1\n              tag_45\n              jump\t// in\n            tag_44:\n              mload(0x40)\n              dup1\n              swap2\n              sub\n              swap1\n              return\n                /* \"Campaign.sol\":947:987  mapping(uint => Request) public requests */\n            tag_8:\n              callvalue\n              dup1\n              iszero\n              tag_46\n              jumpi\n              0x00\n              dup1\n              revert\n            tag_46:\n              pop\n              tag_47\n              0x04\n              dup1\n              calldatasize\n              sub\n              dup2\n              add\n              swap1\n              tag_48\n              swap2\n              swap1\n              tag_18\n              jump\t// in\n            tag_48:\n              tag_49\n              jump\t// in\n            tag_47:\n              mload(0x40)\n              tag_50\n              swap6\n              swap5\n              swap4\n              swap3\n              swap2\n              swap1\n              tag_51\n              jump\t// in\n            tag_50:\n              mload(0x40)\n              dup1\n              swap2\n              sub\n              swap1\n              return\n                /* \"Campaign.sol\":1444:1827  function createRequest(string memory description, uint value, address recipient) public restricted {... */\n            tag_9:\n              callvalue\n              dup1\n              iszero\n              tag_52\n              jumpi\n              0x00\n              dup1\n              revert\n            tag_52:\n              pop\n              tag_53\n              0x04\n              dup1\n              calldatasize\n              sub\n              dup2\n              add\n              swap1\n              tag_54\n              swap2\n              swap1\n              tag_55\n              jump\t// in\n            tag_54:\n              tag_56\n              jump\t// in\n            tag_53:\n              stop\n                /* \"Campaign.sol\":828:859  uint public minimumContribution */\n            tag_10:\n              callvalue\n              dup1\n              iszero\n              tag_57\n              jumpi\n              0x00\n              dup1\n              revert\n            tag_57:\n              pop\n              tag_58\n              tag_59\n              jump\t// in\n            tag_58:\n              mload(0x40)\n              tag_60\n              swap2\n              swap1\n              tag_31\n              jump\t// in\n            tag_60:\n              mload(0x40)\n              dup1\n              swap2\n              sub\n              swap1\n              return\n                /* \"Campaign.sol\":915:940  uint public numberRequest */\n            tag_11:\n              callvalue\n              dup1\n              iszero\n              tag_61\n              jumpi\n              0x00\n              dup1\n              revert\n            tag_61:\n              pop\n              tag_62\n              tag_63\n              jump\t// in\n            tag_62:\n              mload(0x40)\n              tag_64\n              swap2\n              swap1\n              tag_31\n              jump\t// in\n            tag_64:\n              mload(0x40)\n              dup1\n              swap2\n              sub\n              swap1\n              return\n                /* \"Campaign.sol\":1155:1436  function contribute() public payable{... */\n            tag_12:\n              tag_65\n              tag_66\n              jump\t// in\n            tag_65:\n              stop\n                /* \"Campaign.sol\":1835:2166  function approveRequest(uint index) public {... */\n            tag_13:\n              callvalue\n              dup1\n              iszero\n              tag_67\n              jumpi\n              0x00\n              dup1\n              revert\n            tag_67:\n              pop\n              tag_68\n              0x04\n              dup1\n              calldatasize\n              sub\n              dup2\n              add\n              swap1\n              tag_69\n              swap2\n              swap1\n              tag_18\n              jump\t// in\n            tag_69:\n              tag_70\n              jump\t// in\n            tag_68:\n              stop\n                /* \"Campaign.sol\":2174:2601  function finalizeRequest(uint index) public restricted{... */\n            tag_19:\n                /* \"Campaign.sol\":723:730  manager */\n              0x00\n              dup1\n              sload\n              swap1\n              0x0100\n              exp\n              swap1\n              div\n              0xffffffffffffffffffffffffffffffffffffffff\n              and\n                /* \"Campaign.sol\":709:730  msg.sender == manager */\n              0xffffffffffffffffffffffffffffffffffffffff\n              and\n                /* \"Campaign.sol\":709:719  msg.sender */\n              caller\n                /* \"Campaign.sol\":709:730  msg.sender == manager */\n              0xffffffffffffffffffffffffffffffffffffffff\n              and\n              eq\n                /* \"Campaign.sol\":701:771  require(msg.sender == manager, \"Only manager can call this function!\") */\n              tag_72\n              jumpi\n              mload(0x40)\n              0x08c379a000000000000000000000000000000000000000000000000000000000\n              dup2\n              mstore\n              0x04\n              add\n              tag_73\n              swap1\n              tag_74\n              jump\t// in\n            tag_73:\n              mload(0x40)\n              dup1\n              swap2\n              sub\n              swap1\n              revert\n            tag_72:\n                /* \"Campaign.sol\":2239:2262  Request storage request */\n              0x00\n                /* \"Campaign.sol\":2265:2273  requests */\n              0x04\n                /* \"Campaign.sol\":2265:2280  requests[index] */\n              0x00\n                /* \"Campaign.sol\":2274:2279  index */\n              dup4\n                /* \"Campaign.sol\":2265:2280  requests[index] */\n              dup2\n              mstore\n              0x20\n              add\n              swap1\n              dup2\n              mstore\n              0x20\n              add\n              0x00\n              keccak256\n                /* \"Campaign.sol\":2239:2280  Request storage request = requests[index] */\n              swap1\n              pop\n                /* \"Campaign.sol\":2300:2307  request */\n              dup1\n                /* \"Campaign.sol\":2300:2316  request.complete */\n              0x02\n              add\n              0x14\n              swap1\n              sload\n              swap1\n              0x0100\n              exp\n              swap1\n              div\n              0xff\n              and\n                /* \"Campaign.sol\":2299:2316  !request.complete */\n              iszero\n                /* \"Campaign.sol\":2291:2343  require(!request.complete, \"Request is completed!!\") */\n              tag_76\n              jumpi\n              mload(0x40)\n              0x08c379a000000000000000000000000000000000000000000000000000000000\n              dup2\n              mstore\n              0x04\n              add\n              tag_77\n              swap1\n              tag_78\n              jump\t// in\n            tag_77:\n              mload(0x40)\n              dup1\n              swap2\n              sub\n              swap1\n              revert\n            tag_76:\n                /* \"Campaign.sol\":2386:2393  request */\n              dup1\n                /* \"Campaign.sol\":2386:2399  request.value */\n              0x01\n              add\n              sload\n                /* \"Campaign.sol\":2362:2383  address(this).balance */\n              selfbalance\n                /* \"Campaign.sol\":2362:2399  address(this).balance > request.value */\n              gt\n                /* \"Campaign.sol\":2354:2422  require(address(this).balance > request.value, \"Not enought coin!!\") */\n              tag_79\n              jumpi\n              mload(0x40)\n              0x08c379a000000000000000000000000000000000000000000000000000000000\n              dup2\n              mstore\n              0x04\n              add\n              tag_80\n              swap1\n              tag_81\n              jump\t// in\n            tag_80:\n              mload(0x40)\n              dup1\n              swap2\n              sub\n              swap1\n              revert\n            tag_79:\n                /* \"Campaign.sol\":2481:2482  2 */\n              0x02\n                /* \"Campaign.sol\":2465:2478  approverCount */\n              sload(0x05)\n                /* \"Campaign.sol\":2465:2482  approverCount / 2 */\n              tag_82\n              swap2\n              swap1\n              tag_83\n              jump\t// in\n            tag_82:\n                /* \"Campaign.sol\":2441:2448  request */\n              dup2\n                /* \"Campaign.sol\":2441:2462  request.approvalCount */\n              0x03\n              add\n              sload\n                /* \"Campaign.sol\":2441:2482  request.approvalCount > approverCount / 2 */\n              gt\n                /* \"Campaign.sol\":2433:2507  require(request.approvalCount > approverCount / 2, \"Not enought approve!\") */\n              tag_84\n              jumpi\n              mload(0x40)\n              0x08c379a000000000000000000000000000000000000000000000000000000000\n              dup2\n              mstore\n              0x04\n              add\n              tag_85\n              swap1\n              tag_86\n              jump\t// in\n            tag_85:\n              mload(0x40)\n              dup1\n              swap2\n              sub\n              swap1\n              revert\n            tag_84:\n                /* \"Campaign.sol\":2537:2541  true */\n              0x01\n                /* \"Campaign.sol\":2518:2525  request */\n              dup2\n                /* \"Campaign.sol\":2518:2534  request.complete */\n              0x02\n              add\n              0x14\n                /* \"Campaign.sol\":2518:2541  request.complete = true */\n              0x0100\n              exp\n              dup2\n              sload\n              dup2\n              0xff\n              mul\n              not\n              and\n              swap1\n              dup4\n              iszero\n              iszero\n              mul\n              or\n              swap1\n              sstore\n              pop\n                /* \"Campaign.sol\":2552:2559  request */\n              dup1\n                /* \"Campaign.sol\":2552:2569  request.recipient */\n              0x02\n              add\n              0x00\n              swap1\n              sload\n              swap1\n              0x0100\n              exp\n              swap1\n              div\n              0xffffffffffffffffffffffffffffffffffffffff\n              and\n                /* \"Campaign.sol\":2552:2578  request.recipient.transfer */\n              0xffffffffffffffffffffffffffffffffffffffff\n              and\n                /* \"Campaign.sol\":2552:2593  request.recipient.transfer(request.value) */\n              0x08fc\n                /* \"Campaign.sol\":2579:2586  request */\n              dup3\n                /* \"Campaign.sol\":2579:2592  request.value */\n              0x01\n              add\n              sload\n                /* \"Campaign.sol\":2552:2593  request.recipient.transfer(request.value) */\n              swap1\n              dup2\n              iszero\n              mul\n              swap1\n              mload(0x40)\n              0x00\n              mload(0x40)\n              dup1\n              dup4\n              sub\n              dup2\n              dup6\n              dup9\n              dup9\n              call\n              swap4\n              pop\n              pop\n              pop\n              pop\n              iszero\n              dup1\n              iszero\n              tag_88\n              jumpi\n              returndatasize\n              0x00\n              dup1\n              returndatacopy\n              revert(0x00, returndatasize)\n            tag_88:\n              pop\n                /* \"Campaign.sol\":2228:2601  {... */\n              pop\n                /* \"Campaign.sol\":2174:2601  function finalizeRequest(uint index) public restricted{... */\n              pop\n              jump\t// out\n                /* \"Campaign.sol\":866:908  mapping(address => bool)  public approvers */\n            tag_24:\n              mstore(0x20, 0x02)\n              dup1\n              0x00\n              mstore\n              keccak256(0x00, 0x40)\n              0x00\n              swap2\n              pop\n              sload\n              swap1\n              0x0100\n              exp\n              swap1\n              div\n              0xff\n              and\n              dup2\n              jump\t// out\n                /* \"Campaign.sol\":994:1019  uint public approverCount */\n            tag_29:\n              sload(0x05)\n              dup2\n              jump\t// out\n                /* \"Campaign.sol\":2892:2984  function getRequestsCount() public view returns(uint){... */\n            tag_34:\n                /* \"Campaign.sol\":2940:2944  uint */\n              0x00\n                /* \"Campaign.sol\":2963:2976  numberRequest */\n              sload(0x03)\n                /* \"Campaign.sol\":2956:2976  return numberRequest */\n              swap1\n              pop\n                /* \"Campaign.sol\":2892:2984  function getRequestsCount() public view returns(uint){... */\n              swap1\n              jump\t// out\n                /* \"Campaign.sol\":2609:2884  function getSummary() public view returns(... */\n            tag_38:\n                /* \"Campaign.sol\":2661:2665  uint */\n              0x00\n                /* \"Campaign.sol\":2667:2671  uint */\n              dup1\n                /* \"Campaign.sol\":2673:2677  uint */\n              0x00\n                /* \"Campaign.sol\":2679:2683  uint */\n              dup1\n                /* \"Campaign.sol\":2685:2692  address */\n              0x00\n                /* \"Campaign.sol\":2732:2745  numberRequest */\n              sload(0x03)\n                /* \"Campaign.sol\":2760:2773  approverCount */\n              sload(0x05)\n                /* \"Campaign.sol\":2788:2809  address(this).balance */\n              selfbalance\n                /* \"Campaign.sol\":2824:2843  minimumContribution */\n              sload(0x01)\n                /* \"Campaign.sol\":2858:2865  manager */\n              0x00\n              dup1\n              sload\n              swap1\n              0x0100\n              exp\n              swap1\n              div\n              0xffffffffffffffffffffffffffffffffffffffff\n              and\n                /* \"Campaign.sol\":2710:2876  return (... */\n              swap5\n              pop\n              swap5\n              pop\n              swap5\n              pop\n              swap5\n              pop\n              swap5\n              pop\n                /* \"Campaign.sol\":2609:2884  function getSummary() public view returns(... */\n              swap1\n              swap2\n              swap3\n              swap4\n              swap5\n              jump\t// out\n                /* \"Campaign.sol\":799:821  address public manager */\n            tag_43:\n              0x00\n              dup1\n              sload\n              swap1\n              0x0100\n              exp\n              swap1\n              div\n              0xffffffffffffffffffffffffffffffffffffffff\n              and\n              dup2\n              jump\t// out\n                /* \"Campaign.sol\":947:987  mapping(uint => Request) public requests */\n            tag_49:\n              mstore(0x20, 0x04)\n              dup1\n              0x00\n              mstore\n              keccak256(0x00, 0x40)\n              0x00\n              swap2\n              pop\n              swap1\n              pop\n              dup1\n              0x00\n              add\n              dup1\n              sload\n              tag_91\n              swap1\n              tag_92\n              jump\t// in\n            tag_91:\n              dup1\n              0x1f\n              add\n              0x20\n              dup1\n              swap2\n              div\n              mul\n              0x20\n              add\n              mload(0x40)\n              swap1\n              dup2\n              add\n              0x40\n              mstore\n              dup1\n              swap3\n              swap2\n              swap1\n              dup2\n              dup2\n              mstore\n              0x20\n              add\n              dup3\n              dup1\n              sload\n              tag_93\n              swap1\n              tag_92\n              jump\t// in\n            tag_93:\n              dup1\n              iszero\n              tag_94\n              jumpi\n              dup1\n              0x1f\n              lt\n              tag_95\n              jumpi\n              0x0100\n              dup1\n              dup4\n              sload\n              div\n              mul\n              dup4\n              mstore\n              swap2\n              0x20\n              add\n              swap2\n              jump(tag_94)\n            tag_95:\n              dup3\n              add\n              swap2\n              swap1\n              0x00\n              mstore\n              keccak256(0x00, 0x20)\n              swap1\n            tag_96:\n              dup2\n              sload\n              dup2\n              mstore\n              swap1\n              0x01\n              add\n              swap1\n              0x20\n              add\n              dup1\n              dup4\n              gt\n              tag_96\n              jumpi\n              dup3\n              swap1\n              sub\n              0x1f\n              and\n              dup3\n              add\n              swap2\n            tag_94:\n              pop\n              pop\n              pop\n              pop\n              pop\n              swap1\n              dup1\n              0x01\n              add\n              sload\n              swap1\n              dup1\n              0x02\n              add\n              0x00\n              swap1\n              sload\n              swap1\n              0x0100\n              exp\n              swap1\n              div\n              0xffffffffffffffffffffffffffffffffffffffff\n              and\n              swap1\n              dup1\n              0x02\n              add\n              0x14\n              swap1\n              sload\n              swap1\n              0x0100\n              exp\n              swap1\n              div\n              0xff\n              and\n              swap1\n              dup1\n              0x03\n              add\n              sload\n              swap1\n              pop\n              dup6\n              jump\t// out\n                /* \"Campaign.sol\":1444:1827  function createRequest(string memory description, uint value, address recipient) public restricted {... */\n            tag_56:\n                /* \"Campaign.sol\":723:730  manager */\n              0x00\n              dup1\n              sload\n              swap1\n              0x0100\n              exp\n              swap1\n              div\n              0xffffffffffffffffffffffffffffffffffffffff\n              and\n                /* \"Campaign.sol\":709:730  msg.sender == manager */\n              0xffffffffffffffffffffffffffffffffffffffff\n              and\n                /* \"Campaign.sol\":709:719  msg.sender */\n              caller\n                /* \"Campaign.sol\":709:730  msg.sender == manager */\n              0xffffffffffffffffffffffffffffffffffffffff\n              and\n              eq\n                /* \"Campaign.sol\":701:771  require(msg.sender == manager, \"Only manager can call this function!\") */\n              tag_98\n              jumpi\n              mload(0x40)\n              0x08c379a000000000000000000000000000000000000000000000000000000000\n              dup2\n              mstore\n              0x04\n              add\n              tag_99\n              swap1\n              tag_74\n              jump\t// in\n            tag_99:\n              mload(0x40)\n              dup1\n              swap2\n              sub\n              swap1\n              revert\n            tag_98:\n                /* \"Campaign.sol\":1554:1580  Request storage newRequest */\n              0x00\n                /* \"Campaign.sol\":1583:1591  requests */\n              0x04\n                /* \"Campaign.sol\":1583:1608  requests[numberRequest++] */\n              0x00\n                /* \"Campaign.sol\":1592:1605  numberRequest */\n              0x03\n              0x00\n                /* \"Campaign.sol\":1592:1607  numberRequest++ */\n              dup2\n              sload\n              dup1\n              swap3\n              swap2\n              swap1\n              tag_101\n              swap1\n              tag_102\n              jump\t// in\n            tag_101:\n              swap2\n              swap1\n              pop\n              sstore\n                /* \"Campaign.sol\":1583:1608  requests[numberRequest++] */\n              dup2\n              mstore\n              0x20\n              add\n              swap1\n              dup2\n              mstore\n              0x20\n              add\n              0x00\n              keccak256\n                /* \"Campaign.sol\":1554:1608  Request storage newRequest = requests[numberRequest++] */\n              swap1\n              pop\n                /* \"Campaign.sol\":1644:1655  description */\n              dup4\n                /* \"Campaign.sol\":1619:1629  newRequest */\n              dup2\n                /* \"Campaign.sol\":1619:1641  newRequest.description */\n              0x00\n              add\n                /* \"Campaign.sol\":1619:1655  newRequest.description = description */\n              swap1\n              dup1\n              mload\n              swap1\n              0x20\n              add\n              swap1\n              tag_103\n              swap3\n              swap2\n              swap1\n              tag_104\n              jump\t// in\n            tag_103:\n              pop\n                /* \"Campaign.sol\":1685:1690  value */\n              dup3\n                /* \"Campaign.sol\":1666:1676  newRequest */\n              dup2\n                /* \"Campaign.sol\":1666:1682  newRequest.value */\n              0x01\n              add\n                /* \"Campaign.sol\":1666:1690  newRequest.value = value */\n              dup2\n              swap1\n              sstore\n              pop\n                /* \"Campaign.sol\":1732:1741  recipient */\n              dup2\n                /* \"Campaign.sol\":1701:1711  newRequest */\n              dup2\n                /* \"Campaign.sol\":1701:1721  newRequest.recipient */\n              0x02\n              add\n              0x00\n                /* \"Campaign.sol\":1701:1742  newRequest.recipient = payable(recipient) */\n              0x0100\n              exp\n              dup2\n              sload\n              dup2\n              0xffffffffffffffffffffffffffffffffffffffff\n              mul\n              not\n              and\n              swap1\n              dup4\n              0xffffffffffffffffffffffffffffffffffffffff\n              and\n              mul\n              or\n              swap1\n              sstore\n              pop\n                /* \"Campaign.sol\":1775:1780  false */\n              0x00\n                /* \"Campaign.sol\":1753:1763  newRequest */\n              dup2\n                /* \"Campaign.sol\":1753:1772  newRequest.complete */\n              0x02\n              add\n              0x14\n                /* \"Campaign.sol\":1753:1780  newRequest.complete = false */\n              0x0100\n              exp\n              dup2\n              sload\n              dup2\n              0xff\n              mul\n              not\n              and\n              swap1\n              dup4\n              iszero\n              iszero\n              mul\n              or\n              swap1\n              sstore\n              pop\n                /* \"Campaign.sol\":1818:1819  0 */\n              0x00\n                /* \"Campaign.sol\":1791:1801  newRequest */\n              dup2\n                /* \"Campaign.sol\":1791:1815  newRequest.approvalCount */\n              0x03\n              add\n                /* \"Campaign.sol\":1791:1819  newRequest.approvalCount = 0 */\n              dup2\n              swap1\n              sstore\n              pop\n                /* \"Campaign.sol\":1543:1827  {... */\n              pop\n                /* \"Campaign.sol\":1444:1827  function createRequest(string memory description, uint value, address recipient) public restricted {... */\n              pop\n              pop\n              pop\n              jump\t// out\n                /* \"Campaign.sol\":828:859  uint public minimumContribution */\n            tag_59:\n              sload(0x01)\n              dup2\n              jump\t// out\n                /* \"Campaign.sol\":915:940  uint public numberRequest */\n            tag_63:\n              sload(0x03)\n              dup2\n              jump\t// out\n                /* \"Campaign.sol\":1155:1436  function contribute() public payable{... */\n            tag_66:\n                /* \"Campaign.sol\":1222:1241  minimumContribution */\n              sload(0x01)\n                /* \"Campaign.sol\":1210:1219  msg.value */\n              callvalue\n                /* \"Campaign.sol\":1210:1241  msg.value > minimumContribution */\n              gt\n                /* \"Campaign.sol\":1202:1280  require(msg.value > minimumContribution, \"Amount ether should bigger minimum\") */\n              tag_106\n              jumpi\n              mload(0x40)\n              0x08c379a000000000000000000000000000000000000000000000000000000000\n              dup2\n              mstore\n              0x04\n              add\n              tag_107\n              swap1\n              tag_108\n              jump\t// in\n            tag_107:\n              mload(0x40)\n              dup1\n              swap2\n              sub\n              swap1\n              revert\n            tag_106:\n                /* \"Campaign.sol\":1328:1333  false */\n              0x00\n                /* \"Campaign.sol\":1294:1333  approvers[payable(msg.sender)] == false */\n              iszero\n              iszero\n                /* \"Campaign.sol\":1294:1303  approvers */\n              0x02\n                /* \"Campaign.sol\":1294:1324  approvers[payable(msg.sender)] */\n              0x00\n                /* \"Campaign.sol\":1312:1322  msg.sender */\n              caller\n                /* \"Campaign.sol\":1294:1324  approvers[payable(msg.sender)] */\n              0xffffffffffffffffffffffffffffffffffffffff\n              and\n              0xffffffffffffffffffffffffffffffffffffffff\n              and\n              dup2\n              mstore\n              0x20\n              add\n              swap1\n              dup2\n              mstore\n              0x20\n              add\n              0x00\n              keccak256\n              0x00\n              swap1\n              sload\n              swap1\n              0x0100\n              exp\n              swap1\n              div\n              0xff\n              and\n                /* \"Campaign.sol\":1294:1333  approvers[payable(msg.sender)] == false */\n              iszero\n              iszero\n              eq\n                /* \"Campaign.sol\":1291:1429  if(approvers[payable(msg.sender)] == false){... */\n              iszero\n              tag_109\n              jumpi\n                /* \"Campaign.sol\":1382:1386  true */\n              0x01\n                /* \"Campaign.sol\":1349:1358  approvers */\n              0x02\n                /* \"Campaign.sol\":1349:1379  approvers[payable(msg.sender)] */\n              0x00\n                /* \"Campaign.sol\":1367:1377  msg.sender */\n              caller\n                /* \"Campaign.sol\":1349:1379  approvers[payable(msg.sender)] */\n              0xffffffffffffffffffffffffffffffffffffffff\n              and\n              0xffffffffffffffffffffffffffffffffffffffff\n              and\n              dup2\n              mstore\n              0x20\n              add\n              swap1\n              dup2\n              mstore\n              0x20\n              add\n              0x00\n              keccak256\n              0x00\n                /* \"Campaign.sol\":1349:1386  approvers[payable(msg.sender)] = true */\n              0x0100\n              exp\n              dup2\n              sload\n              dup2\n              0xff\n              mul\n              not\n              and\n              swap1\n              dup4\n              iszero\n              iszero\n              mul\n              or\n              swap1\n              sstore\n              pop\n                /* \"Campaign.sol\":1401:1414  approverCount */\n              0x05\n              0x00\n                /* \"Campaign.sol\":1401:1417  approverCount ++ */\n              dup2\n              sload\n              dup1\n              swap3\n              swap2\n              swap1\n              tag_110\n              swap1\n              tag_102\n              jump\t// in\n            tag_110:\n              swap2\n              swap1\n              pop\n              sstore\n              pop\n                /* \"Campaign.sol\":1291:1429  if(approvers[payable(msg.sender)] == false){... */\n            tag_109:\n                /* \"Campaign.sol\":1155:1436  function contribute() public payable{... */\n              jump\t// out\n                /* \"Campaign.sol\":1835:2166  function approveRequest(uint index) public {... */\n            tag_70:\n                /* \"Campaign.sol\":1889:1912  Request storage request */\n              0x00\n                /* \"Campaign.sol\":1915:1923  requests */\n              0x04\n                /* \"Campaign.sol\":1915:1930  requests[index] */\n              0x00\n                /* \"Campaign.sol\":1924:1929  index */\n              dup4\n                /* \"Campaign.sol\":1915:1930  requests[index] */\n              dup2\n              mstore\n              0x20\n              add\n              swap1\n              dup2\n              mstore\n              0x20\n              add\n              0x00\n              keccak256\n                /* \"Campaign.sol\":1889:1930  Request storage request = requests[index] */\n              swap1\n              pop\n                /* \"Campaign.sol\":1974:1978  true */\n              0x01\n                /* \"Campaign.sol\":1949:1978  approvers[msg.sender] == true */\n              iszero\n              iszero\n                /* \"Campaign.sol\":1949:1958  approvers */\n              0x02\n                /* \"Campaign.sol\":1949:1970  approvers[msg.sender] */\n              0x00\n                /* \"Campaign.sol\":1959:1969  msg.sender */\n              caller\n                /* \"Campaign.sol\":1949:1970  approvers[msg.sender] */\n              0xffffffffffffffffffffffffffffffffffffffff\n              and\n              0xffffffffffffffffffffffffffffffffffffffff\n              and\n              dup2\n              mstore\n              0x20\n              add\n              swap1\n              dup2\n              mstore\n              0x20\n              add\n              0x00\n              keccak256\n              0x00\n              swap1\n              sload\n              swap1\n              0x0100\n              exp\n              swap1\n              div\n              0xff\n              and\n                /* \"Campaign.sol\":1949:1978  approvers[msg.sender] == true */\n              iszero\n              iszero\n              eq\n                /* \"Campaign.sol\":1941:1997  require(approvers[msg.sender] == true, \"Not contribute\") */\n              tag_112\n              jumpi\n              mload(0x40)\n              0x08c379a000000000000000000000000000000000000000000000000000000000\n              dup2\n              mstore\n              0x04\n              add\n              tag_113\n              swap1\n              tag_114\n              jump\t// in\n            tag_113:\n              mload(0x40)\n              dup1\n              swap2\n              sub\n              swap1\n              revert\n            tag_112:\n                /* \"Campaign.sol\":2049:2054  false */\n              0x00\n                /* \"Campaign.sol\":2016:2054  request.approvals[msg.sender] == false */\n              iszero\n              iszero\n                /* \"Campaign.sol\":2016:2023  request */\n              dup2\n                /* \"Campaign.sol\":2016:2033  request.approvals */\n              0x04\n              add\n                /* \"Campaign.sol\":2016:2045  request.approvals[msg.sender] */\n              0x00\n                /* \"Campaign.sol\":2034:2044  msg.sender */\n              caller\n                /* \"Campaign.sol\":2016:2045  request.approvals[msg.sender] */\n              0xffffffffffffffffffffffffffffffffffffffff\n              and\n              0xffffffffffffffffffffffffffffffffffffffff\n              and\n              dup2\n              mstore\n              0x20\n              add\n              swap1\n              dup2\n              mstore\n              0x20\n              add\n              0x00\n              keccak256\n              0x00\n              swap1\n              sload\n              swap1\n              0x0100\n              exp\n              swap1\n              div\n              0xff\n              and\n                /* \"Campaign.sol\":2016:2054  request.approvals[msg.sender] == false */\n              iszero\n              iszero\n              eq\n                /* \"Campaign.sol\":2008:2076  require(request.approvals[msg.sender] == false, \"You are approved!\") */\n              tag_115\n              jumpi\n              mload(0x40)\n              0x08c379a000000000000000000000000000000000000000000000000000000000\n              dup2\n              mstore\n              0x04\n              add\n              tag_116\n              swap1\n              tag_117\n              jump\t// in\n            tag_116:\n              mload(0x40)\n              dup1\n              swap2\n              sub\n              swap1\n              revert\n            tag_115:\n                /* \"Campaign.sol\":2119:2123  true */\n              0x01\n                /* \"Campaign.sol\":2087:2094  request */\n              dup2\n                /* \"Campaign.sol\":2087:2104  request.approvals */\n              0x04\n              add\n                /* \"Campaign.sol\":2087:2116  request.approvals[msg.sender] */\n              0x00\n                /* \"Campaign.sol\":2105:2115  msg.sender */\n              caller\n                /* \"Campaign.sol\":2087:2116  request.approvals[msg.sender] */\n              0xffffffffffffffffffffffffffffffffffffffff\n              and\n              0xffffffffffffffffffffffffffffffffffffffff\n              and\n              dup2\n              mstore\n              0x20\n              add\n              swap1\n              dup2\n              mstore\n              0x20\n              add\n              0x00\n              keccak256\n              0x00\n                /* \"Campaign.sol\":2087:2123  request.approvals[msg.sender] = true */\n              0x0100\n              exp\n              dup2\n              sload\n              dup2\n              0xff\n              mul\n              not\n              and\n              swap1\n              dup4\n              iszero\n              iszero\n              mul\n              or\n              swap1\n              sstore\n              pop\n                /* \"Campaign.sol\":2134:2141  request */\n              dup1\n                /* \"Campaign.sol\":2134:2155  request.approvalCount */\n              0x03\n              add\n              0x00\n                /* \"Campaign.sol\":2134:2158  request.approvalCount ++ */\n              dup2\n              sload\n              dup1\n              swap3\n              swap2\n              swap1\n              tag_118\n              swap1\n              tag_102\n              jump\t// in\n            tag_118:\n              swap2\n              swap1\n              pop\n              sstore\n              pop\n                /* \"Campaign.sol\":1878:2166  {... */\n              pop\n                /* \"Campaign.sol\":1835:2166  function approveRequest(uint index) public {... */\n              pop\n              jump\t// out\n            tag_104:\n              dup3\n              dup1\n              sload\n              tag_119\n              swap1\n              tag_92\n              jump\t// in\n            tag_119:\n              swap1\n              0x00\n              mstore\n              keccak256(0x00, 0x20)\n              swap1\n              0x1f\n              add\n              0x20\n              swap1\n              div\n              dup2\n              add\n              swap3\n              dup3\n              tag_121\n              jumpi\n              0x00\n              dup6\n              sstore\n              jump(tag_120)\n            tag_121:\n              dup3\n              0x1f\n              lt\n              tag_122\n              jumpi\n              dup1\n              mload\n              not(0xff)\n              and\n              dup4\n              dup1\n              add\n              or\n              dup6\n              sstore\n              jump(tag_120)\n            tag_122:\n              dup3\n              dup1\n              add\n              0x01\n              add\n              dup6\n              sstore\n              dup3\n              iszero\n              tag_120\n              jumpi\n              swap2\n              dup3\n              add\n            tag_123:\n              dup3\n              dup2\n              gt\n              iszero\n              tag_124\n              jumpi\n              dup3\n              mload\n              dup3\n              sstore\n              swap2\n              0x20\n              add\n              swap2\n              swap1\n              0x01\n              add\n              swap1\n              jump(tag_123)\n            tag_124:\n            tag_120:\n              pop\n              swap1\n              pop\n              tag_125\n              swap2\n              swap1\n              tag_126\n              jump\t// in\n            tag_125:\n              pop\n              swap1\n              jump\t// out\n            tag_126:\n            tag_127:\n              dup1\n              dup3\n              gt\n              iszero\n              tag_128\n              jumpi\n              0x00\n              dup2\n              0x00\n              swap1\n              sstore\n              pop\n              0x01\n              add\n              jump(tag_127)\n            tag_128:\n              pop\n              swap1\n              jump\t// out\n                /* \"#utility.yul\":7:82   */\n            tag_129:\n                /* \"#utility.yul\":40:46   */\n              0x00\n                /* \"#utility.yul\":73:75   */\n              0x40\n                /* \"#utility.yul\":67:76   */\n              mload\n                /* \"#utility.yul\":57:76   */\n              swap1\n              pop\n                /* \"#utility.yul\":7:82   */\n              swap1\n              jump\t// out\n                /* \"#utility.yul\":88:205   */\n            tag_130:\n                /* \"#utility.yul\":197:198   */\n              0x00\n                /* \"#utility.yul\":194:195   */\n              dup1\n                /* \"#utility.yul\":187:199   */\n              revert\n                /* \"#utility.yul\":211:328   */\n            tag_131:\n                /* \"#utility.yul\":320:321   */\n              0x00\n                /* \"#utility.yul\":317:318   */\n              dup1\n                /* \"#utility.yul\":310:322   */\n              revert\n                /* \"#utility.yul\":334:411   */\n            tag_132:\n                /* \"#utility.yul\":371:378   */\n              0x00\n                /* \"#utility.yul\":400:405   */\n              dup2\n                /* \"#utility.yul\":389:405   */\n              swap1\n              pop\n                /* \"#utility.yul\":334:411   */\n              swap2\n              swap1\n              pop\n              jump\t// out\n                /* \"#utility.yul\":417:539   */\n            tag_133:\n                /* \"#utility.yul\":490:514   */\n              tag_182\n                /* \"#utility.yul\":508:513   */\n              dup2\n                /* \"#utility.yul\":490:514   */\n              tag_132\n              jump\t// in\n            tag_182:\n                /* \"#utility.yul\":483:488   */\n              dup2\n                /* \"#utility.yul\":480:515   */\n              eq\n                /* \"#utility.yul\":470:533   */\n              tag_183\n              jumpi\n                /* \"#utility.yul\":529:530   */\n              0x00\n                /* \"#utility.yul\":526:527   */\n              dup1\n                /* \"#utility.yul\":519:531   */\n              revert\n                /* \"#utility.yul\":470:533   */\n            tag_183:\n                /* \"#utility.yul\":417:539   */\n              pop\n              jump\t// out\n                /* \"#utility.yul\":545:684   */\n            tag_134:\n                /* \"#utility.yul\":591:596   */\n              0x00\n                /* \"#utility.yul\":629:635   */\n              dup2\n                /* \"#utility.yul\":616:636   */\n              calldataload\n                /* \"#utility.yul\":607:636   */\n              swap1\n              pop\n                /* \"#utility.yul\":645:678   */\n              tag_185\n                /* \"#utility.yul\":672:677   */\n              dup2\n                /* \"#utility.yul\":645:678   */\n              tag_133\n              jump\t// in\n            tag_185:\n                /* \"#utility.yul\":545:684   */\n              swap3\n              swap2\n              pop\n              pop\n              jump\t// out\n                /* \"#utility.yul\":690:1019   */\n            tag_18:\n                /* \"#utility.yul\":749:755   */\n              0x00\n                /* \"#utility.yul\":798:800   */\n              0x20\n                /* \"#utility.yul\":786:795   */\n              dup3\n                /* \"#utility.yul\":777:784   */\n              dup5\n                /* \"#utility.yul\":773:796   */\n              sub\n                /* \"#utility.yul\":769:801   */\n              slt\n                /* \"#utility.yul\":766:885   */\n              iszero\n              tag_187\n              jumpi\n                /* \"#utility.yul\":804:883   */\n              tag_188\n              tag_130\n              jump\t// in\n            tag_188:\n                /* \"#utility.yul\":766:885   */\n            tag_187:\n                /* \"#utility.yul\":924:925   */\n              0x00\n                /* \"#utility.yul\":949:1002   */\n              tag_189\n                /* \"#utility.yul\":994:1001   */\n              dup5\n                /* \"#utility.yul\":985:991   */\n              dup3\n                /* \"#utility.yul\":974:983   */\n              dup6\n                /* \"#utility.yul\":970:992   */\n              add\n                /* \"#utility.yul\":949:1002   */\n              tag_134\n              jump\t// in\n            tag_189:\n                /* \"#utility.yul\":939:1002   */\n              swap2\n              pop\n                /* \"#utility.yul\":895:1012   */\n              pop\n                /* \"#utility.yul\":690:1019   */\n              swap3\n              swap2\n              pop\n              pop\n              jump\t// out\n                /* \"#utility.yul\":1025:1151   */\n            tag_135:\n                /* \"#utility.yul\":1062:1069   */\n              0x00\n                /* \"#utility.yul\":1102:1144   */\n              0xffffffffffffffffffffffffffffffffffffffff\n                /* \"#utility.yul\":1095:1100   */\n              dup3\n                /* \"#utility.yul\":1091:1145   */\n              and\n                /* \"#utility.yul\":1080:1145   */\n              swap1\n              pop\n                /* \"#utility.yul\":1025:1151   */\n              swap2\n              swap1\n              pop\n              jump\t// out\n                /* \"#utility.yul\":1157:1253   */\n            tag_136:\n                /* \"#utility.yul\":1194:1201   */\n              0x00\n                /* \"#utility.yul\":1223:1247   */\n              tag_192\n                /* \"#utility.yul\":1241:1246   */\n              dup3\n                /* \"#utility.yul\":1223:1247   */\n              tag_135\n              jump\t// in\n            tag_192:\n                /* \"#utility.yul\":1212:1247   */\n              swap1\n              pop\n                /* \"#utility.yul\":1157:1253   */\n              swap2\n              swap1\n              pop\n              jump\t// out\n                /* \"#utility.yul\":1259:1381   */\n            tag_137:\n                /* \"#utility.yul\":1332:1356   */\n              tag_194\n                /* \"#utility.yul\":1350:1355   */\n              dup2\n                /* \"#utility.yul\":1332:1356   */\n              tag_136\n              jump\t// in\n            tag_194:\n                /* \"#utility.yul\":1325:1330   */\n              dup2\n                /* \"#utility.yul\":1322:1357   */\n              eq\n                /* \"#utility.yul\":1312:1375   */\n              tag_195\n              jumpi\n                /* \"#utility.yul\":1371:1372   */\n              0x00\n                /* \"#utility.yul\":1368:1369   */\n              dup1\n                /* \"#utility.yul\":1361:1373   */\n              revert\n                /* \"#utility.yul\":1312:1375   */\n            tag_195:\n                /* \"#utility.yul\":1259:1381   */\n              pop\n              jump\t// out\n                /* \"#utility.yul\":1387:1526   */\n            tag_138:\n                /* \"#utility.yul\":1433:1438   */\n              0x00\n                /* \"#utility.yul\":1471:1477   */\n              dup2\n                /* \"#utility.yul\":1458:1478   */\n              calldataload\n                /* \"#utility.yul\":1449:1478   */\n              swap1\n              pop\n                /* \"#utility.yul\":1487:1520   */\n              tag_197\n                /* \"#utility.yul\":1514:1519   */\n              dup2\n                /* \"#utility.yul\":1487:1520   */\n              tag_137\n              jump\t// in\n            tag_197:\n                /* \"#utility.yul\":1387:1526   */\n              swap3\n              swap2\n              pop\n              pop\n              jump\t// out\n                /* \"#utility.yul\":1532:1861   */\n            tag_23:\n                /* \"#utility.yul\":1591:1597   */\n              0x00\n                /* \"#utility.yul\":1640:1642   */\n              0x20\n                /* \"#utility.yul\":1628:1637   */\n              dup3\n                /* \"#utility.yul\":1619:1626   */\n              dup5\n                /* \"#utility.yul\":1615:1638   */\n              sub\n                /* \"#utility.yul\":1611:1643   */\n              slt\n                /* \"#utility.yul\":1608:1727   */\n              iszero\n              tag_199\n              jumpi\n                /* \"#utility.yul\":1646:1725   */\n              tag_200\n              tag_130\n              jump\t// in\n            tag_200:\n                /* \"#utility.yul\":1608:1727   */\n            tag_199:\n                /* \"#utility.yul\":1766:1767   */\n              0x00\n                /* \"#utility.yul\":1791:1844   */\n              tag_201\n                /* \"#utility.yul\":1836:1843   */\n              dup5\n                /* \"#utility.yul\":1827:1833   */\n              dup3\n                /* \"#utility.yul\":1816:1825   */\n              dup6\n                /* \"#utility.yul\":1812:1834   */\n              add\n                /* \"#utility.yul\":1791:1844   */\n              tag_138\n              jump\t// in\n            tag_201:\n                /* \"#utility.yul\":1781:1844   */\n              swap2\n              pop\n                /* \"#utility.yul\":1737:1854   */\n              pop\n                /* \"#utility.yul\":1532:1861   */\n              swap3\n              swap2\n              pop\n              pop\n              jump\t// out\n                /* \"#utility.yul\":1867:1957   */\n            tag_139:\n                /* \"#utility.yul\":1901:1908   */\n              0x00\n                /* \"#utility.yul\":1944:1949   */\n              dup2\n                /* \"#utility.yul\":1937:1950   */\n              iszero\n                /* \"#utility.yul\":1930:1951   */\n              iszero\n                /* \"#utility.yul\":1919:1951   */\n              swap1\n              pop\n                /* \"#utility.yul\":1867:1957   */\n              swap2\n              swap1\n              pop\n              jump\t// out\n                /* \"#utility.yul\":1963:2072   */\n            tag_140:\n                /* \"#utility.yul\":2044:2065   */\n              tag_204\n                /* \"#utility.yul\":2059:2064   */\n              dup2\n                /* \"#utility.yul\":2044:2065   */\n              tag_139\n              jump\t// in\n            tag_204:\n                /* \"#utility.yul\":2039:2042   */\n              dup3\n                /* \"#utility.yul\":2032:2066   */\n              mstore\n                /* \"#utility.yul\":1963:2072   */\n              pop\n              pop\n              jump\t// out\n                /* \"#utility.yul\":2078:2288   */\n            tag_26:\n                /* \"#utility.yul\":2165:2169   */\n              0x00\n                /* \"#utility.yul\":2203:2205   */\n              0x20\n                /* \"#utility.yul\":2192:2201   */\n              dup3\n                /* \"#utility.yul\":2188:2206   */\n              add\n                /* \"#utility.yul\":2180:2206   */\n              swap1\n              pop\n                /* \"#utility.yul\":2216:2281   */\n              tag_206\n                /* \"#utility.yul\":2278:2279   */\n              0x00\n                /* \"#utility.yul\":2267:2276   */\n              dup4\n                /* \"#utility.yul\":2263:2280   */\n              add\n                /* \"#utility.yul\":2254:2260   */\n              dup5\n                /* \"#utility.yul\":2216:2281   */\n              tag_140\n              jump\t// in\n            tag_206:\n                /* \"#utility.yul\":2078:2288   */\n              swap3\n              swap2\n              pop\n              pop\n              jump\t// out\n                /* \"#utility.yul\":2294:2412   */\n            tag_141:\n                /* \"#utility.yul\":2381:2405   */\n              tag_208\n                /* \"#utility.yul\":2399:2404   */\n              dup2\n                /* \"#utility.yul\":2381:2405   */\n              tag_132\n              jump\t// in\n            tag_208:\n                /* \"#utility.yul\":2376:2379   */\n              dup3\n                /* \"#utility.yul\":2369:2406   */\n              mstore\n                /* \"#utility.yul\":2294:2412   */\n              pop\n              pop\n              jump\t// out\n                /* \"#utility.yul\":2418:2640   */\n            tag_31:\n                /* \"#utility.yul\":2511:2515   */\n              0x00\n                /* \"#utility.yul\":2549:2551   */\n              0x20\n                /* \"#utility.yul\":2538:2547   */\n              dup3\n                /* \"#utility.yul\":2534:2552   */\n              add\n                /* \"#utility.yul\":2526:2552   */\n              swap1\n              pop\n                /* \"#utility.yul\":2562:2633   */\n              tag_210\n                /* \"#utility.yul\":2630:2631   */\n              0x00\n                /* \"#utility.yul\":2619:2628   */\n              dup4\n                /* \"#utility.yul\":2615:2632   */\n              add\n                /* \"#utility.yul\":2606:2612   */\n              dup5\n                /* \"#utility.yul\":2562:2633   */\n              tag_141\n              jump\t// in\n            tag_210:\n                /* \"#utility.yul\":2418:2640   */\n              swap3\n              swap2\n              pop\n              pop\n              jump\t// out\n                /* \"#utility.yul\":2646:2764   */\n            tag_142:\n                /* \"#utility.yul\":2733:2757   */\n              tag_212\n                /* \"#utility.yul\":2751:2756   */\n              dup2\n                /* \"#utility.yul\":2733:2757   */\n              tag_136\n              jump\t// in\n            tag_212:\n                /* \"#utility.yul\":2728:2731   */\n              dup3\n                /* \"#utility.yul\":2721:2758   */\n              mstore\n                /* \"#utility.yul\":2646:2764   */\n              pop\n              pop\n              jump\t// out\n                /* \"#utility.yul\":2770:3434   */\n            tag_40:\n                /* \"#utility.yul\":2975:2979   */\n              0x00\n                /* \"#utility.yul\":3013:3016   */\n              0xa0\n                /* \"#utility.yul\":3002:3011   */\n              dup3\n                /* \"#utility.yul\":2998:3017   */\n              add\n                /* \"#utility.yul\":2990:3017   */\n              swap1\n              pop\n                /* \"#utility.yul\":3027:3098   */\n              tag_214\n                /* \"#utility.yul\":3095:3096   */\n              0x00\n                /* \"#utility.yul\":3084:3093   */\n              dup4\n                /* \"#utility.yul\":3080:3097   */\n              add\n                /* \"#utility.yul\":3071:3077   */\n              dup9\n                /* \"#utility.yul\":3027:3098   */\n              tag_141\n              jump\t// in\n            tag_214:\n                /* \"#utility.yul\":3108:3180   */\n              tag_215\n                /* \"#utility.yul\":3176:3178   */\n              0x20\n                /* \"#utility.yul\":3165:3174   */\n              dup4\n                /* \"#utility.yul\":3161:3179   */\n              add\n                /* \"#utility.yul\":3152:3158   */\n              dup8\n                /* \"#utility.yul\":3108:3180   */\n              tag_141\n              jump\t// in\n            tag_215:\n                /* \"#utility.yul\":3190:3262   */\n              tag_216\n                /* \"#utility.yul\":3258:3260   */\n              0x40\n                /* \"#utility.yul\":3247:3256   */\n              dup4\n                /* \"#utility.yul\":3243:3261   */\n              add\n                /* \"#utility.yul\":3234:3240   */\n              dup7\n                /* \"#utility.yul\":3190:3262   */\n              tag_141\n              jump\t// in\n            tag_216:\n                /* \"#utility.yul\":3272:3344   */\n              tag_217\n                /* \"#utility.yul\":3340:3342   */\n              0x60\n                /* \"#utility.yul\":3329:3338   */\n              dup4\n                /* \"#utility.yul\":3325:3343   */\n              add\n                /* \"#utility.yul\":3316:3322   */\n              dup6\n                /* \"#utility.yul\":3272:3344   */\n              tag_141\n              jump\t// in\n            tag_217:\n                /* \"#utility.yul\":3354:3427   */\n              tag_218\n                /* \"#utility.yul\":3422:3425   */\n              0x80\n                /* \"#utility.yul\":3411:3420   */\n              dup4\n                /* \"#utility.yul\":3407:3426   */\n              add\n                /* \"#utility.yul\":3398:3404   */\n              dup5\n                /* \"#utility.yul\":3354:3427   */\n              tag_142\n              jump\t// in\n            tag_218:\n                /* \"#utility.yul\":2770:3434   */\n              swap7\n              swap6\n              pop\n              pop\n              pop\n              pop\n              pop\n              pop\n              jump\t// out\n                /* \"#utility.yul\":3440:3662   */\n            tag_45:\n                /* \"#utility.yul\":3533:3537   */\n              0x00\n                /* \"#utility.yul\":3571:3573   */\n              0x20\n                /* \"#utility.yul\":3560:3569   */\n              dup3\n                /* \"#utility.yul\":3556:3574   */\n              add\n                /* \"#utility.yul\":3548:3574   */\n              swap1\n              pop\n                /* \"#utility.yul\":3584:3655   */\n              tag_220\n                /* \"#utility.yul\":3652:3653   */\n              0x00\n                /* \"#utility.yul\":3641:3650   */\n              dup4\n                /* \"#utility.yul\":3637:3654   */\n              add\n                /* \"#utility.yul\":3628:3634   */\n              dup5\n                /* \"#utility.yul\":3584:3655   */\n              tag_142\n              jump\t// in\n            tag_220:\n                /* \"#utility.yul\":3440:3662   */\n              swap3\n              swap2\n              pop\n              pop\n              jump\t// out\n                /* \"#utility.yul\":3668:3767   */\n            tag_143:\n                /* \"#utility.yul\":3720:3726   */\n              0x00\n                /* \"#utility.yul\":3754:3759   */\n              dup2\n                /* \"#utility.yul\":3748:3760   */\n              mload\n                /* \"#utility.yul\":3738:3760   */\n              swap1\n              pop\n                /* \"#utility.yul\":3668:3767   */\n              swap2\n              swap1\n              pop\n              jump\t// out\n                /* \"#utility.yul\":3773:3942   */\n            tag_144:\n                /* \"#utility.yul\":3857:3868   */\n              0x00\n                /* \"#utility.yul\":3891:3897   */\n              dup3\n                /* \"#utility.yul\":3886:3889   */\n              dup3\n                /* \"#utility.yul\":3879:3898   */\n              mstore\n                /* \"#utility.yul\":3931:3935   */\n              0x20\n                /* \"#utility.yul\":3926:3929   */\n              dup3\n                /* \"#utility.yul\":3922:3936   */\n              add\n                /* \"#utility.yul\":3907:3936   */\n              swap1\n              pop\n                /* \"#utility.yul\":3773:3942   */\n              swap3\n              swap2\n              pop\n              pop\n              jump\t// out\n                /* \"#utility.yul\":3948:4255   */\n            tag_145:\n                /* \"#utility.yul\":4016:4017   */\n              0x00\n                /* \"#utility.yul\":4026:4139   */\n            tag_224:\n                /* \"#utility.yul\":4040:4046   */\n              dup4\n                /* \"#utility.yul\":4037:4038   */\n              dup2\n                /* \"#utility.yul\":4034:4047   */\n              lt\n                /* \"#utility.yul\":4026:4139   */\n              iszero\n              tag_226\n              jumpi\n                /* \"#utility.yul\":4125:4126   */\n              dup1\n                /* \"#utility.yul\":4120:4123   */\n              dup3\n                /* \"#utility.yul\":4116:4127   */\n              add\n                /* \"#utility.yul\":4110:4128   */\n              mload\n                /* \"#utility.yul\":4106:4107   */\n              dup2\n                /* \"#utility.yul\":4101:4104   */\n              dup5\n                /* \"#utility.yul\":4097:4108   */\n              add\n                /* \"#utility.yul\":4090:4129   */\n              mstore\n                /* \"#utility.yul\":4062:4064   */\n              0x20\n                /* \"#utility.yul\":4059:4060   */\n              dup2\n                /* \"#utility.yul\":4055:4065   */\n              add\n                /* \"#utility.yul\":4050:4065   */\n              swap1\n              pop\n                /* \"#utility.yul\":4026:4139   */\n              jump(tag_224)\n            tag_226:\n                /* \"#utility.yul\":4157:4163   */\n              dup4\n                /* \"#utility.yul\":4154:4155   */\n              dup2\n                /* \"#utility.yul\":4151:4164   */\n              gt\n                /* \"#utility.yul\":4148:4249   */\n              iszero\n              tag_227\n              jumpi\n                /* \"#utility.yul\":4237:4238   */\n              0x00\n                /* \"#utility.yul\":4228:4234   */\n              dup5\n                /* \"#utility.yul\":4223:4226   */\n              dup5\n                /* \"#utility.yul\":4219:4235   */\n              add\n                /* \"#utility.yul\":4212:4239   */\n              mstore\n                /* \"#utility.yul\":4148:4249   */\n            tag_227:\n                /* \"#utility.yul\":3997:4255   */\n              pop\n                /* \"#utility.yul\":3948:4255   */\n              pop\n              pop\n              pop\n              jump\t// out\n                /* \"#utility.yul\":4261:4363   */\n            tag_146:\n                /* \"#utility.yul\":4302:4308   */\n              0x00\n                /* \"#utility.yul\":4353:4355   */\n              0x1f\n                /* \"#utility.yul\":4349:4356   */\n              not\n                /* \"#utility.yul\":4344:4346   */\n              0x1f\n                /* \"#utility.yul\":4337:4342   */\n              dup4\n                /* \"#utility.yul\":4333:4347   */\n              add\n                /* \"#utility.yul\":4329:4357   */\n              and\n                /* \"#utility.yul\":4319:4357   */\n              swap1\n              pop\n                /* \"#utility.yul\":4261:4363   */\n              swap2\n              swap1\n              pop\n              jump\t// out\n                /* \"#utility.yul\":4369:4733   */\n            tag_147:\n                /* \"#utility.yul\":4457:4460   */\n              0x00\n                /* \"#utility.yul\":4485:4524   */\n              tag_230\n                /* \"#utility.yul\":4518:4523   */\n              dup3\n                /* \"#utility.yul\":4485:4524   */\n              tag_143\n              jump\t// in\n            tag_230:\n                /* \"#utility.yul\":4540:4611   */\n              tag_231\n                /* \"#utility.yul\":4604:4610   */\n              dup2\n                /* \"#utility.yul\":4599:4602   */\n              dup6\n                /* \"#utility.yul\":4540:4611   */\n              tag_144\n              jump\t// in\n            tag_231:\n                /* \"#utility.yul\":4533:4611   */\n              swap4\n              pop\n                /* \"#utility.yul\":4620:4672   */\n              tag_232\n                /* \"#utility.yul\":4665:4671   */\n              dup2\n                /* \"#utility.yul\":4660:4663   */\n              dup6\n                /* \"#utility.yul\":4653:4657   */\n              0x20\n                /* \"#utility.yul\":4646:4651   */\n              dup7\n                /* \"#utility.yul\":4642:4658   */\n              add\n                /* \"#utility.yul\":4620:4672   */\n              tag_145\n              jump\t// in\n            tag_232:\n                /* \"#utility.yul\":4697:4726   */\n              tag_233\n                /* \"#utility.yul\":4719:4725   */\n              dup2\n                /* \"#utility.yul\":4697:4726   */\n              tag_146\n              jump\t// in\n            tag_233:\n                /* \"#utility.yul\":4692:4695   */\n              dup5\n                /* \"#utility.yul\":4688:4727   */\n              add\n                /* \"#utility.yul\":4681:4727   */\n              swap2\n              pop\n                /* \"#utility.yul\":4461:4733   */\n              pop\n                /* \"#utility.yul\":4369:4733   */\n              swap3\n              swap2\n              pop\n              pop\n              jump\t// out\n                /* \"#utility.yul\":4739:4843   */\n            tag_148:\n                /* \"#utility.yul\":4784:4791   */\n              0x00\n                /* \"#utility.yul\":4813:4837   */\n              tag_235\n                /* \"#utility.yul\":4831:4836   */\n              dup3\n                /* \"#utility.yul\":4813:4837   */\n              tag_135\n              jump\t// in\n            tag_235:\n                /* \"#utility.yul\":4802:4837   */\n              swap1\n              pop\n                /* \"#utility.yul\":4739:4843   */\n              swap2\n              swap1\n              pop\n              jump\t// out\n                /* \"#utility.yul\":4849:4991   */\n            tag_149:\n                /* \"#utility.yul\":4952:4984   */\n              tag_237\n                /* \"#utility.yul\":4978:4983   */\n              dup2\n                /* \"#utility.yul\":4952:4984   */\n              tag_148\n              jump\t// in\n            tag_237:\n                /* \"#utility.yul\":4947:4950   */\n              dup3\n                /* \"#utility.yul\":4940:4985   */\n              mstore\n                /* \"#utility.yul\":4849:4991   */\n              pop\n              pop\n              jump\t// out\n                /* \"#utility.yul\":4997:5772   */\n            tag_51:\n                /* \"#utility.yul\":5232:5236   */\n              0x00\n                /* \"#utility.yul\":5270:5273   */\n              0xa0\n                /* \"#utility.yul\":5259:5268   */\n              dup3\n                /* \"#utility.yul\":5255:5274   */\n              add\n                /* \"#utility.yul\":5247:5274   */\n              swap1\n              pop\n                /* \"#utility.yul\":5320:5329   */\n              dup2\n                /* \"#utility.yul\":5314:5318   */\n              dup2\n                /* \"#utility.yul\":5310:5330   */\n              sub\n                /* \"#utility.yul\":5306:5307   */\n              0x00\n                /* \"#utility.yul\":5295:5304   */\n              dup4\n                /* \"#utility.yul\":5291:5308   */\n              add\n                /* \"#utility.yul\":5284:5331   */\n              mstore\n                /* \"#utility.yul\":5348:5426   */\n              tag_239\n                /* \"#utility.yul\":5421:5425   */\n              dup2\n                /* \"#utility.yul\":5412:5418   */\n              dup9\n                /* \"#utility.yul\":5348:5426   */\n              tag_147\n              jump\t// in\n            tag_239:\n                /* \"#utility.yul\":5340:5426   */\n              swap1\n              pop\n                /* \"#utility.yul\":5436:5508   */\n              tag_240\n                /* \"#utility.yul\":5504:5506   */\n              0x20\n                /* \"#utility.yul\":5493:5502   */\n              dup4\n                /* \"#utility.yul\":5489:5507   */\n              add\n                /* \"#utility.yul\":5480:5486   */\n              dup8\n                /* \"#utility.yul\":5436:5508   */\n              tag_141\n              jump\t// in\n            tag_240:\n                /* \"#utility.yul\":5518:5606   */\n              tag_241\n                /* \"#utility.yul\":5602:5604   */\n              0x40\n                /* \"#utility.yul\":5591:5600   */\n              dup4\n                /* \"#utility.yul\":5587:5605   */\n              add\n                /* \"#utility.yul\":5578:5584   */\n              dup7\n                /* \"#utility.yul\":5518:5606   */\n              tag_149\n              jump\t// in\n            tag_241:\n                /* \"#utility.yul\":5616:5682   */\n              tag_242\n                /* \"#utility.yul\":5678:5680   */\n              0x60\n                /* \"#utility.yul\":5667:5676   */\n              dup4\n                /* \"#utility.yul\":5663:5681   */\n              add\n                /* \"#utility.yul\":5654:5660   */\n              dup6\n                /* \"#utility.yul\":5616:5682   */\n              tag_140\n              jump\t// in\n            tag_242:\n                /* \"#utility.yul\":5692:5765   */\n              tag_243\n                /* \"#utility.yul\":5760:5763   */\n              0x80\n                /* \"#utility.yul\":5749:5758   */\n              dup4\n                /* \"#utility.yul\":5745:5764   */\n              add\n                /* \"#utility.yul\":5736:5742   */\n              dup5\n                /* \"#utility.yul\":5692:5765   */\n              tag_141\n              jump\t// in\n            tag_243:\n                /* \"#utility.yul\":4997:5772   */\n              swap7\n              swap6\n              pop\n              pop\n              pop\n              pop\n              pop\n              pop\n              jump\t// out\n                /* \"#utility.yul\":5778:5895   */\n            tag_150:\n                /* \"#utility.yul\":5887:5888   */\n              0x00\n                /* \"#utility.yul\":5884:5885   */\n              dup1\n                /* \"#utility.yul\":5877:5889   */\n              revert\n                /* \"#utility.yul\":5901:6018   */\n            tag_151:\n                /* \"#utility.yul\":6010:6011   */\n              0x00\n                /* \"#utility.yul\":6007:6008   */\n              dup1\n                /* \"#utility.yul\":6000:6012   */\n              revert\n                /* \"#utility.yul\":6024:6204   */\n            tag_152:\n                /* \"#utility.yul\":6072:6149   */\n              0x4e487b7100000000000000000000000000000000000000000000000000000000\n                /* \"#utility.yul\":6069:6070   */\n              0x00\n                /* \"#utility.yul\":6062:6150   */\n              mstore\n                /* \"#utility.yul\":6169:6173   */\n              0x41\n                /* \"#utility.yul\":6166:6167   */\n              0x04\n                /* \"#utility.yul\":6159:6174   */\n              mstore\n                /* \"#utility.yul\":6193:6197   */\n              0x24\n                /* \"#utility.yul\":6190:6191   */\n              0x00\n                /* \"#utility.yul\":6183:6198   */\n              revert\n                /* \"#utility.yul\":6210:6491   */\n            tag_153:\n                /* \"#utility.yul\":6293:6320   */\n              tag_248\n                /* \"#utility.yul\":6315:6319   */\n              dup3\n                /* \"#utility.yul\":6293:6320   */\n              tag_146\n              jump\t// in\n            tag_248:\n                /* \"#utility.yul\":6285:6291   */\n              dup2\n                /* \"#utility.yul\":6281:6321   */\n              add\n                /* \"#utility.yul\":6423:6429   */\n              dup2\n                /* \"#utility.yul\":6411:6421   */\n              dup2\n                /* \"#utility.yul\":6408:6430   */\n              lt\n                /* \"#utility.yul\":6387:6405   */\n              0xffffffffffffffff\n                /* \"#utility.yul\":6375:6385   */\n              dup3\n                /* \"#utility.yul\":6372:6406   */\n              gt\n                /* \"#utility.yul\":6369:6431   */\n              or\n                /* \"#utility.yul\":6366:6454   */\n              iszero\n              tag_249\n              jumpi\n                /* \"#utility.yul\":6434:6452   */\n              tag_250\n              tag_152\n              jump\t// in\n            tag_250:\n                /* \"#utility.yul\":6366:6454   */\n            tag_249:\n                /* \"#utility.yul\":6474:6484   */\n              dup1\n                /* \"#utility.yul\":6470:6472   */\n              0x40\n                /* \"#utility.yul\":6463:6485   */\n              mstore\n                /* \"#utility.yul\":6253:6491   */\n              pop\n                /* \"#utility.yul\":6210:6491   */\n              pop\n              pop\n              jump\t// out\n                /* \"#utility.yul\":6497:6626   */\n            tag_154:\n                /* \"#utility.yul\":6531:6537   */\n              0x00\n                /* \"#utility.yul\":6558:6578   */\n              tag_252\n              tag_129\n              jump\t// in\n            tag_252:\n                /* \"#utility.yul\":6548:6578   */\n              swap1\n              pop\n                /* \"#utility.yul\":6587:6620   */\n              tag_253\n                /* \"#utility.yul\":6615:6619   */\n              dup3\n                /* \"#utility.yul\":6607:6613   */\n              dup3\n                /* \"#utility.yul\":6587:6620   */\n              tag_153\n              jump\t// in\n            tag_253:\n                /* \"#utility.yul\":6497:6626   */\n              swap2\n              swap1\n              pop\n              jump\t// out\n                /* \"#utility.yul\":6632:6940   */\n            tag_155:\n                /* \"#utility.yul\":6694:6698   */\n              0x00\n                /* \"#utility.yul\":6784:6802   */\n              0xffffffffffffffff\n                /* \"#utility.yul\":6776:6782   */\n              dup3\n                /* \"#utility.yul\":6773:6803   */\n              gt\n                /* \"#utility.yul\":6770:6826   */\n              iszero\n              tag_255\n              jumpi\n                /* \"#utility.yul\":6806:6824   */\n              tag_256\n              tag_152\n              jump\t// in\n            tag_256:\n                /* \"#utility.yul\":6770:6826   */\n            tag_255:\n                /* \"#utility.yul\":6844:6873   */\n              tag_257\n                /* \"#utility.yul\":6866:6872   */\n              dup3\n                /* \"#utility.yul\":6844:6873   */\n              tag_146\n              jump\t// in\n            tag_257:\n                /* \"#utility.yul\":6836:6873   */\n              swap1\n              pop\n                /* \"#utility.yul\":6928:6932   */\n              0x20\n                /* \"#utility.yul\":6922:6926   */\n              dup2\n                /* \"#utility.yul\":6918:6933   */\n              add\n                /* \"#utility.yul\":6910:6933   */\n              swap1\n              pop\n                /* \"#utility.yul\":6632:6940   */\n              swap2\n              swap1\n              pop\n              jump\t// out\n                /* \"#utility.yul\":6946:7100   */\n            tag_156:\n                /* \"#utility.yul\":7030:7036   */\n              dup3\n                /* \"#utility.yul\":7025:7028   */\n              dup2\n                /* \"#utility.yul\":7020:7023   */\n              dup4\n                /* \"#utility.yul\":7007:7037   */\n              calldatacopy\n                /* \"#utility.yul\":7092:7093   */\n              0x00\n                /* \"#utility.yul\":7083:7089   */\n              dup4\n                /* \"#utility.yul\":7078:7081   */\n              dup4\n                /* \"#utility.yul\":7074:7090   */\n              add\n                /* \"#utility.yul\":7067:7094   */\n              mstore\n                /* \"#utility.yul\":6946:7100   */\n              pop\n              pop\n              pop\n              jump\t// out\n                /* \"#utility.yul\":7106:7518   */\n            tag_157:\n                /* \"#utility.yul\":7184:7189   */\n              0x00\n                /* \"#utility.yul\":7209:7275   */\n              tag_260\n                /* \"#utility.yul\":7225:7274   */\n              tag_261\n                /* \"#utility.yul\":7267:7273   */\n              dup5\n                /* \"#utility.yul\":7225:7274   */\n              tag_155\n              jump\t// in\n            tag_261:\n                /* \"#utility.yul\":7209:7275   */\n              tag_154\n              jump\t// in\n            tag_260:\n                /* \"#utility.yul\":7200:7275   */\n              swap1\n              pop\n                /* \"#utility.yul\":7298:7304   */\n              dup3\n                /* \"#utility.yul\":7291:7296   */\n              dup2\n                /* \"#utility.yul\":7284:7305   */\n              mstore\n                /* \"#utility.yul\":7336:7340   */\n              0x20\n                /* \"#utility.yul\":7329:7334   */\n              dup2\n                /* \"#utility.yul\":7325:7341   */\n              add\n                /* \"#utility.yul\":7374:7377   */\n              dup5\n                /* \"#utility.yul\":7365:7371   */\n              dup5\n                /* \"#utility.yul\":7360:7363   */\n              dup5\n                /* \"#utility.yul\":7356:7372   */\n              add\n                /* \"#utility.yul\":7353:7378   */\n              gt\n                /* \"#utility.yul\":7350:7462   */\n              iszero\n              tag_262\n              jumpi\n                /* \"#utility.yul\":7381:7460   */\n              tag_263\n              tag_151\n              jump\t// in\n            tag_263:\n                /* \"#utility.yul\":7350:7462   */\n            tag_262:\n                /* \"#utility.yul\":7471:7512   */\n              tag_264\n                /* \"#utility.yul\":7505:7511   */\n              dup5\n                /* \"#utility.yul\":7500:7503   */\n              dup3\n                /* \"#utility.yul\":7495:7498   */\n              dup6\n                /* \"#utility.yul\":7471:7512   */\n              tag_156\n              jump\t// in\n            tag_264:\n                /* \"#utility.yul\":7190:7518   */\n              pop\n                /* \"#utility.yul\":7106:7518   */\n              swap4\n              swap3\n              pop\n              pop\n              pop\n              jump\t// out\n                /* \"#utility.yul\":7538:7878   */\n            tag_158:\n                /* \"#utility.yul\":7594:7599   */\n              0x00\n                /* \"#utility.yul\":7643:7646   */\n              dup3\n                /* \"#utility.yul\":7636:7640   */\n              0x1f\n                /* \"#utility.yul\":7628:7634   */\n              dup4\n                /* \"#utility.yul\":7624:7641   */\n              add\n                /* \"#utility.yul\":7620:7647   */\n              slt\n                /* \"#utility.yul\":7610:7732   */\n              tag_266\n              jumpi\n                /* \"#utility.yul\":7651:7730   */\n              tag_267\n              tag_150\n              jump\t// in\n            tag_267:\n                /* \"#utility.yul\":7610:7732   */\n            tag_266:\n                /* \"#utility.yul\":7768:7774   */\n              dup2\n                /* \"#utility.yul\":7755:7775   */\n              calldataload\n                /* \"#utility.yul\":7793:7872   */\n              tag_268\n                /* \"#utility.yul\":7868:7871   */\n              dup5\n                /* \"#utility.yul\":7860:7866   */\n              dup3\n                /* \"#utility.yul\":7853:7857   */\n              0x20\n                /* \"#utility.yul\":7845:7851   */\n              dup7\n                /* \"#utility.yul\":7841:7858   */\n              add\n                /* \"#utility.yul\":7793:7872   */\n              tag_157\n              jump\t// in\n            tag_268:\n                /* \"#utility.yul\":7784:7872   */\n              swap2\n              pop\n                /* \"#utility.yul\":7600:7878   */\n              pop\n                /* \"#utility.yul\":7538:7878   */\n              swap3\n              swap2\n              pop\n              pop\n              jump\t// out\n                /* \"#utility.yul\":7884:8683   */\n            tag_55:\n                /* \"#utility.yul\":7971:7977   */\n              0x00\n                /* \"#utility.yul\":7979:7985   */\n              dup1\n                /* \"#utility.yul\":7987:7993   */\n              0x00\n                /* \"#utility.yul\":8036:8038   */\n              0x60\n                /* \"#utility.yul\":8024:8033   */\n              dup5\n                /* \"#utility.yul\":8015:8022   */\n              dup7\n                /* \"#utility.yul\":8011:8034   */\n              sub\n                /* \"#utility.yul\":8007:8039   */\n              slt\n                /* \"#utility.yul\":8004:8123   */\n              iszero\n              tag_270\n              jumpi\n                /* \"#utility.yul\":8042:8121   */\n              tag_271\n              tag_130\n              jump\t// in\n            tag_271:\n                /* \"#utility.yul\":8004:8123   */\n            tag_270:\n                /* \"#utility.yul\":8190:8191   */\n              0x00\n                /* \"#utility.yul\":8179:8188   */\n              dup5\n                /* \"#utility.yul\":8175:8192   */\n              add\n                /* \"#utility.yul\":8162:8193   */\n              calldataload\n                /* \"#utility.yul\":8220:8238   */\n              0xffffffffffffffff\n                /* \"#utility.yul\":8212:8218   */\n              dup2\n                /* \"#utility.yul\":8209:8239   */\n              gt\n                /* \"#utility.yul\":8206:8323   */\n              iszero\n              tag_272\n              jumpi\n                /* \"#utility.yul\":8242:8321   */\n              tag_273\n              tag_131\n              jump\t// in\n            tag_273:\n                /* \"#utility.yul\":8206:8323   */\n            tag_272:\n                /* \"#utility.yul\":8347:8410   */\n              tag_274\n                /* \"#utility.yul\":8402:8409   */\n              dup7\n                /* \"#utility.yul\":8393:8399   */\n              dup3\n                /* \"#utility.yul\":8382:8391   */\n              dup8\n                /* \"#utility.yul\":8378:8400   */\n              add\n                /* \"#utility.yul\":8347:8410   */\n              tag_158\n              jump\t// in\n            tag_274:\n                /* \"#utility.yul\":8337:8410   */\n              swap4\n              pop\n                /* \"#utility.yul\":8133:8420   */\n              pop\n                /* \"#utility.yul\":8459:8461   */\n              0x20\n                /* \"#utility.yul\":8485:8538   */\n              tag_275\n                /* \"#utility.yul\":8530:8537   */\n              dup7\n                /* \"#utility.yul\":8521:8527   */\n              dup3\n                /* \"#utility.yul\":8510:8519   */\n              dup8\n                /* \"#utility.yul\":8506:8528   */\n              add\n                /* \"#utility.yul\":8485:8538   */\n              tag_134\n              jump\t// in\n            tag_275:\n                /* \"#utility.yul\":8475:8538   */\n              swap3\n              pop\n                /* \"#utility.yul\":8430:8548   */\n              pop\n                /* \"#utility.yul\":8587:8589   */\n              0x40\n                /* \"#utility.yul\":8613:8666   */\n              tag_276\n                /* \"#utility.yul\":8658:8665   */\n              dup7\n                /* \"#utility.yul\":8649:8655   */\n              dup3\n                /* \"#utility.yul\":8638:8647   */\n              dup8\n                /* \"#utility.yul\":8634:8656   */\n              add\n                /* \"#utility.yul\":8613:8666   */\n              tag_138\n              jump\t// in\n            tag_276:\n                /* \"#utility.yul\":8603:8666   */\n              swap2\n              pop\n                /* \"#utility.yul\":8558:8676   */\n              pop\n                /* \"#utility.yul\":7884:8683   */\n              swap3\n              pop\n              swap3\n              pop\n              swap3\n              jump\t// out\n                /* \"#utility.yul\":8689:8912   */\n            tag_159:\n                /* \"#utility.yul\":8829:8863   */\n              0x4f6e6c79206d616e616765722063616e2063616c6c20746869732066756e6374\n                /* \"#utility.yul\":8825:8826   */\n              0x00\n                /* \"#utility.yul\":8817:8823   */\n              dup3\n                /* \"#utility.yul\":8813:8827   */\n              add\n                /* \"#utility.yul\":8806:8864   */\n              mstore\n                /* \"#utility.yul\":8898:8904   */\n              0x696f6e2100000000000000000000000000000000000000000000000000000000\n                /* \"#utility.yul\":8893:8895   */\n              0x20\n                /* \"#utility.yul\":8885:8891   */\n              dup3\n                /* \"#utility.yul\":8881:8896   */\n              add\n                /* \"#utility.yul\":8874:8905   */\n              mstore\n                /* \"#utility.yul\":8689:8912   */\n              pop\n              jump\t// out\n                /* \"#utility.yul\":8918:9284   */\n            tag_160:\n                /* \"#utility.yul\":9060:9063   */\n              0x00\n                /* \"#utility.yul\":9081:9148   */\n              tag_279\n                /* \"#utility.yul\":9145:9147   */\n              0x24\n                /* \"#utility.yul\":9140:9143   */\n              dup4\n                /* \"#utility.yul\":9081:9148   */\n              tag_144\n              jump\t// in\n            tag_279:\n                /* \"#utility.yul\":9074:9148   */\n              swap2\n              pop\n                /* \"#utility.yul\":9157:9250   */\n              tag_280\n                /* \"#utility.yul\":9246:9249   */\n              dup3\n                /* \"#utility.yul\":9157:9250   */\n              tag_159\n              jump\t// in\n            tag_280:\n                /* \"#utility.yul\":9275:9277   */\n              0x40\n                /* \"#utility.yul\":9270:9273   */\n              dup3\n                /* \"#utility.yul\":9266:9278   */\n              add\n                /* \"#utility.yul\":9259:9278   */\n              swap1\n              pop\n                /* \"#utility.yul\":8918:9284   */\n              swap2\n              swap1\n              pop\n              jump\t// out\n                /* \"#utility.yul\":9290:9709   */\n            tag_74:\n                /* \"#utility.yul\":9456:9460   */\n              0x00\n                /* \"#utility.yul\":9494:9496   */\n              0x20\n                /* \"#utility.yul\":9483:9492   */\n              dup3\n                /* \"#utility.yul\":9479:9497   */\n              add\n                /* \"#utility.yul\":9471:9497   */\n              swap1\n              pop\n                /* \"#utility.yul\":9543:9552   */\n              dup2\n                /* \"#utility.yul\":9537:9541   */\n              dup2\n                /* \"#utility.yul\":9533:9553   */\n              sub\n                /* \"#utility.yul\":9529:9530   */\n              0x00\n                /* \"#utility.yul\":9518:9527   */\n              dup4\n                /* \"#utility.yul\":9514:9531   */\n              add\n                /* \"#utility.yul\":9507:9554   */\n              mstore\n                /* \"#utility.yul\":9571:9702   */\n              tag_282\n                /* \"#utility.yul\":9697:9701   */\n              dup2\n                /* \"#utility.yul\":9571:9702   */\n              tag_160\n              jump\t// in\n            tag_282:\n                /* \"#utility.yul\":9563:9702   */\n              swap1\n              pop\n                /* \"#utility.yul\":9290:9709   */\n              swap2\n              swap1\n              pop\n              jump\t// out\n                /* \"#utility.yul\":9715:9887   */\n            tag_161:\n                /* \"#utility.yul\":9855:9879   */\n              0x5265717565737420697320636f6d706c65746564212100000000000000000000\n                /* \"#utility.yul\":9851:9852   */\n              0x00\n                /* \"#utility.yul\":9843:9849   */\n              dup3\n                /* \"#utility.yul\":9839:9853   */\n              add\n                /* \"#utility.yul\":9832:9880   */\n              mstore\n                /* \"#utility.yul\":9715:9887   */\n              pop\n              jump\t// out\n                /* \"#utility.yul\":9893:10259   */\n            tag_162:\n                /* \"#utility.yul\":10035:10038   */\n              0x00\n                /* \"#utility.yul\":10056:10123   */\n              tag_285\n                /* \"#utility.yul\":10120:10122   */\n              0x16\n                /* \"#utility.yul\":10115:10118   */\n              dup4\n                /* \"#utility.yul\":10056:10123   */\n              tag_144\n              jump\t// in\n            tag_285:\n                /* \"#utility.yul\":10049:10123   */\n              swap2\n              pop\n                /* \"#utility.yul\":10132:10225   */\n              tag_286\n                /* \"#utility.yul\":10221:10224   */\n              dup3\n                /* \"#utility.yul\":10132:10225   */\n              tag_161\n              jump\t// in\n            tag_286:\n                /* \"#utility.yul\":10250:10252   */\n              0x20\n                /* \"#utility.yul\":10245:10248   */\n              dup3\n                /* \"#utility.yul\":10241:10253   */\n              add\n                /* \"#utility.yul\":10234:10253   */\n              swap1\n              pop\n                /* \"#utility.yul\":9893:10259   */\n              swap2\n              swap1\n              pop\n              jump\t// out\n                /* \"#utility.yul\":10265:10684   */\n            tag_78:\n                /* \"#utility.yul\":10431:10435   */\n              0x00\n                /* \"#utility.yul\":10469:10471   */\n              0x20\n                /* \"#utility.yul\":10458:10467   */\n              dup3\n                /* \"#utility.yul\":10454:10472   */\n              add\n                /* \"#utility.yul\":10446:10472   */\n              swap1\n              pop\n                /* \"#utility.yul\":10518:10527   */\n              dup2\n                /* \"#utility.yul\":10512:10516   */\n              dup2\n                /* \"#utility.yul\":10508:10528   */\n              sub\n                /* \"#utility.yul\":10504:10505   */\n              0x00\n                /* \"#utility.yul\":10493:10502   */\n              dup4\n                /* \"#utility.yul\":10489:10506   */\n              add\n                /* \"#utility.yul\":10482:10529   */\n              mstore\n                /* \"#utility.yul\":10546:10677   */\n              tag_288\n                /* \"#utility.yul\":10672:10676   */\n              dup2\n                /* \"#utility.yul\":10546:10677   */\n              tag_162\n              jump\t// in\n            tag_288:\n                /* \"#utility.yul\":10538:10677   */\n              swap1\n              pop\n                /* \"#utility.yul\":10265:10684   */\n              swap2\n              swap1\n              pop\n              jump\t// out\n                /* \"#utility.yul\":10690:10858   */\n            tag_163:\n                /* \"#utility.yul\":10830:10850   */\n              0x4e6f7420656e6f7567687420636f696e21210000000000000000000000000000\n                /* \"#utility.yul\":10826:10827   */\n              0x00\n                /* \"#utility.yul\":10818:10824   */\n              dup3\n                /* \"#utility.yul\":10814:10828   */\n              add\n                /* \"#utility.yul\":10807:10851   */\n              mstore\n                /* \"#utility.yul\":10690:10858   */\n              pop\n              jump\t// out\n                /* \"#utility.yul\":10864:11230   */\n            tag_164:\n                /* \"#utility.yul\":11006:11009   */\n              0x00\n                /* \"#utility.yul\":11027:11094   */\n              tag_291\n                /* \"#utility.yul\":11091:11093   */\n              0x12\n                /* \"#utility.yul\":11086:11089   */\n              dup4\n                /* \"#utility.yul\":11027:11094   */\n              tag_144\n              jump\t// in\n            tag_291:\n                /* \"#utility.yul\":11020:11094   */\n              swap2\n              pop\n                /* \"#utility.yul\":11103:11196   */\n              tag_292\n                /* \"#utility.yul\":11192:11195   */\n              dup3\n                /* \"#utility.yul\":11103:11196   */\n              tag_163\n              jump\t// in\n            tag_292:\n                /* \"#utility.yul\":11221:11223   */\n              0x20\n                /* \"#utility.yul\":11216:11219   */\n              dup3\n                /* \"#utility.yul\":11212:11224   */\n              add\n                /* \"#utility.yul\":11205:11224   */\n              swap1\n              pop\n                /* \"#utility.yul\":10864:11230   */\n              swap2\n              swap1\n              pop\n              jump\t// out\n                /* \"#utility.yul\":11236:11655   */\n            tag_81:\n                /* \"#utility.yul\":11402:11406   */\n              0x00\n                /* \"#utility.yul\":11440:11442   */\n              0x20\n                /* \"#utility.yul\":11429:11438   */\n              dup3\n                /* \"#utility.yul\":11425:11443   */\n              add\n                /* \"#utility.yul\":11417:11443   */\n              swap1\n              pop\n                /* \"#utility.yul\":11489:11498   */\n              dup2\n                /* \"#utility.yul\":11483:11487   */\n              dup2\n                /* \"#utility.yul\":11479:11499   */\n              sub\n                /* \"#utility.yul\":11475:11476   */\n              0x00\n                /* \"#utility.yul\":11464:11473   */\n              dup4\n                /* \"#utility.yul\":11460:11477   */\n              add\n                /* \"#utility.yul\":11453:11500   */\n              mstore\n                /* \"#utility.yul\":11517:11648   */\n              tag_294\n                /* \"#utility.yul\":11643:11647   */\n              dup2\n                /* \"#utility.yul\":11517:11648   */\n              tag_164\n              jump\t// in\n            tag_294:\n                /* \"#utility.yul\":11509:11648   */\n              swap1\n              pop\n                /* \"#utility.yul\":11236:11655   */\n              swap2\n              swap1\n              pop\n              jump\t// out\n                /* \"#utility.yul\":11661:11841   */\n            tag_165:\n                /* \"#utility.yul\":11709:11786   */\n              0x4e487b7100000000000000000000000000000000000000000000000000000000\n                /* \"#utility.yul\":11706:11707   */\n              0x00\n                /* \"#utility.yul\":11699:11787   */\n              mstore\n                /* \"#utility.yul\":11806:11810   */\n              0x12\n                /* \"#utility.yul\":11803:11804   */\n              0x04\n                /* \"#utility.yul\":11796:11811   */\n              mstore\n                /* \"#utility.yul\":11830:11834   */\n              0x24\n                /* \"#utility.yul\":11827:11828   */\n              0x00\n                /* \"#utility.yul\":11820:11835   */\n              revert\n                /* \"#utility.yul\":11847:12027   */\n            tag_166:\n                /* \"#utility.yul\":11895:11972   */\n              0x4e487b7100000000000000000000000000000000000000000000000000000000\n                /* \"#utility.yul\":11892:11893   */\n              0x00\n                /* \"#utility.yul\":11885:11973   */\n              mstore\n                /* \"#utility.yul\":11992:11996   */\n              0x11\n                /* \"#utility.yul\":11989:11990   */\n              0x04\n                /* \"#utility.yul\":11982:11997   */\n              mstore\n                /* \"#utility.yul\":12016:12020   */\n              0x24\n                /* \"#utility.yul\":12013:12014   */\n              0x00\n                /* \"#utility.yul\":12006:12021   */\n              revert\n                /* \"#utility.yul\":12033:12218   */\n            tag_83:\n                /* \"#utility.yul\":12073:12074   */\n              0x00\n                /* \"#utility.yul\":12090:12110   */\n              tag_298\n                /* \"#utility.yul\":12108:12109   */\n              dup3\n                /* \"#utility.yul\":12090:12110   */\n              tag_132\n              jump\t// in\n            tag_298:\n                /* \"#utility.yul\":12085:12110   */\n              swap2\n              pop\n                /* \"#utility.yul\":12124:12144   */\n              tag_299\n                /* \"#utility.yul\":12142:12143   */\n              dup4\n                /* \"#utility.yul\":12124:12144   */\n              tag_132\n              jump\t// in\n            tag_299:\n                /* \"#utility.yul\":12119:12144   */\n              swap3\n              pop\n                /* \"#utility.yul\":12163:12164   */\n              dup3\n                /* \"#utility.yul\":12153:12188   */\n              tag_300\n              jumpi\n                /* \"#utility.yul\":12168:12186   */\n              tag_301\n              tag_165\n              jump\t// in\n            tag_301:\n                /* \"#utility.yul\":12153:12188   */\n            tag_300:\n                /* \"#utility.yul\":12210:12211   */\n              dup3\n                /* \"#utility.yul\":12207:12208   */\n              dup3\n                /* \"#utility.yul\":12203:12212   */\n              div\n                /* \"#utility.yul\":12198:12212   */\n              swap1\n              pop\n                /* \"#utility.yul\":12033:12218   */\n              swap3\n              swap2\n              pop\n              pop\n              jump\t// out\n                /* \"#utility.yul\":12224:12394   */\n            tag_167:\n                /* \"#utility.yul\":12364:12386   */\n              0x4e6f7420656e6f7567687420617070726f766521000000000000000000000000\n                /* \"#utility.yul\":12360:12361   */\n              0x00\n                /* \"#utility.yul\":12352:12358   */\n              dup3\n                /* \"#utility.yul\":12348:12362   */\n              add\n                /* \"#utility.yul\":12341:12387   */\n              mstore\n                /* \"#utility.yul\":12224:12394   */\n              pop\n              jump\t// out\n                /* \"#utility.yul\":12400:12766   */\n            tag_168:\n                /* \"#utility.yul\":12542:12545   */\n              0x00\n                /* \"#utility.yul\":12563:12630   */\n              tag_304\n                /* \"#utility.yul\":12627:12629   */\n              0x14\n                /* \"#utility.yul\":12622:12625   */\n              dup4\n                /* \"#utility.yul\":12563:12630   */\n              tag_144\n              jump\t// in\n            tag_304:\n                /* \"#utility.yul\":12556:12630   */\n              swap2\n              pop\n                /* \"#utility.yul\":12639:12732   */\n              tag_305\n                /* \"#utility.yul\":12728:12731   */\n              dup3\n                /* \"#utility.yul\":12639:12732   */\n              tag_167\n              jump\t// in\n            tag_305:\n                /* \"#utility.yul\":12757:12759   */\n              0x20\n                /* \"#utility.yul\":12752:12755   */\n              dup3\n                /* \"#utility.yul\":12748:12760   */\n              add\n                /* \"#utility.yul\":12741:12760   */\n              swap1\n              pop\n                /* \"#utility.yul\":12400:12766   */\n              swap2\n              swap1\n              pop\n              jump\t// out\n                /* \"#utility.yul\":12772:13191   */\n            tag_86:\n                /* \"#utility.yul\":12938:12942   */\n              0x00\n                /* \"#utility.yul\":12976:12978   */\n              0x20\n                /* \"#utility.yul\":12965:12974   */\n              dup3\n                /* \"#utility.yul\":12961:12979   */\n              add\n                /* \"#utility.yul\":12953:12979   */\n              swap1\n              pop\n                /* \"#utility.yul\":13025:13034   */\n              dup2\n                /* \"#utility.yul\":13019:13023   */\n              dup2\n                /* \"#utility.yul\":13015:13035   */\n              sub\n                /* \"#utility.yul\":13011:13012   */\n              0x00\n                /* \"#utility.yul\":13000:13009   */\n              dup4\n                /* \"#utility.yul\":12996:13013   */\n              add\n                /* \"#utility.yul\":12989:13036   */\n              mstore\n                /* \"#utility.yul\":13053:13184   */\n              tag_307\n                /* \"#utility.yul\":13179:13183   */\n              dup2\n                /* \"#utility.yul\":13053:13184   */\n              tag_168\n              jump\t// in\n            tag_307:\n                /* \"#utility.yul\":13045:13184   */\n              swap1\n              pop\n                /* \"#utility.yul\":12772:13191   */\n              swap2\n              swap1\n              pop\n              jump\t// out\n                /* \"#utility.yul\":13197:13377   */\n            tag_169:\n                /* \"#utility.yul\":13245:13322   */\n              0x4e487b7100000000000000000000000000000000000000000000000000000000\n                /* \"#utility.yul\":13242:13243   */\n              0x00\n                /* \"#utility.yul\":13235:13323   */\n              mstore\n                /* \"#utility.yul\":13342:13346   */\n              0x22\n                /* \"#utility.yul\":13339:13340   */\n              0x04\n                /* \"#utility.yul\":13332:13347   */\n              mstore\n                /* \"#utility.yul\":13366:13370   */\n              0x24\n                /* \"#utility.yul\":13363:13364   */\n              0x00\n                /* \"#utility.yul\":13356:13371   */\n              revert\n                /* \"#utility.yul\":13383:13703   */\n            tag_92:\n                /* \"#utility.yul\":13427:13433   */\n              0x00\n                /* \"#utility.yul\":13464:13465   */\n              0x02\n                /* \"#utility.yul\":13458:13462   */\n              dup3\n                /* \"#utility.yul\":13454:13466   */\n              div\n                /* \"#utility.yul\":13444:13466   */\n              swap1\n              pop\n                /* \"#utility.yul\":13511:13512   */\n              0x01\n                /* \"#utility.yul\":13505:13509   */\n              dup3\n                /* \"#utility.yul\":13501:13513   */\n              and\n                /* \"#utility.yul\":13532:13550   */\n              dup1\n                /* \"#utility.yul\":13522:13603   */\n              tag_310\n              jumpi\n                /* \"#utility.yul\":13588:13592   */\n              0x7f\n                /* \"#utility.yul\":13580:13586   */\n              dup3\n                /* \"#utility.yul\":13576:13593   */\n              and\n                /* \"#utility.yul\":13566:13593   */\n              swap2\n              pop\n                /* \"#utility.yul\":13522:13603   */\n            tag_310:\n                /* \"#utility.yul\":13650:13652   */\n              0x20\n                /* \"#utility.yul\":13642:13648   */\n              dup3\n                /* \"#utility.yul\":13639:13653   */\n              lt\n                /* \"#utility.yul\":13619:13637   */\n              dup2\n                /* \"#utility.yul\":13616:13654   */\n              eq\n                /* \"#utility.yul\":13613:13697   */\n              iszero\n              tag_311\n              jumpi\n                /* \"#utility.yul\":13669:13687   */\n              tag_312\n              tag_169\n              jump\t// in\n            tag_312:\n                /* \"#utility.yul\":13613:13697   */\n            tag_311:\n                /* \"#utility.yul\":13434:13703   */\n              pop\n                /* \"#utility.yul\":13383:13703   */\n              swap2\n              swap1\n              pop\n              jump\t// out\n                /* \"#utility.yul\":13709:13942   */\n            tag_102:\n                /* \"#utility.yul\":13748:13751   */\n              0x00\n                /* \"#utility.yul\":13771:13795   */\n              tag_314\n                /* \"#utility.yul\":13789:13794   */\n              dup3\n                /* \"#utility.yul\":13771:13795   */\n              tag_132\n              jump\t// in\n            tag_314:\n                /* \"#utility.yul\":13762:13795   */\n              swap2\n              pop\n                /* \"#utility.yul\":13817:13883   */\n              0xffffffffffffffffffffffffffffffffffffffffffffffffffffffffffffffff\n                /* \"#utility.yul\":13810:13815   */\n              dup3\n                /* \"#utility.yul\":13807:13884   */\n              eq\n                /* \"#utility.yul\":13804:13907   */\n              iszero\n              tag_315\n              jumpi\n                /* \"#utility.yul\":13887:13905   */\n              tag_316\n              tag_166\n              jump\t// in\n            tag_316:\n                /* \"#utility.yul\":13804:13907   */\n            tag_315:\n                /* \"#utility.yul\":13934:13935   */\n              0x01\n                /* \"#utility.yul\":13927:13932   */\n              dup3\n                /* \"#utility.yul\":13923:13936   */\n              add\n                /* \"#utility.yul\":13916:13936   */\n              swap1\n              pop\n                /* \"#utility.yul\":13709:13942   */\n              swap2\n              swap1\n              pop\n              jump\t// out\n                /* \"#utility.yul\":13948:14169   */\n            tag_170:\n                /* \"#utility.yul\":14088:14122   */\n              0x416d6f756e742065746865722073686f756c6420626967676572206d696e696d\n                /* \"#utility.yul\":14084:14085   */\n              0x00\n                /* \"#utility.yul\":14076:14082   */\n              dup3\n                /* \"#utility.yul\":14072:14086   */\n              add\n                /* \"#utility.yul\":14065:14123   */\n              mstore\n                /* \"#utility.yul\":14157:14161   */\n              0x756d000000000000000000000000000000000000000000000000000000000000\n                /* \"#utility.yul\":14152:14154   */\n              0x20\n                /* \"#utility.yul\":14144:14150   */\n              dup3\n                /* \"#utility.yul\":14140:14155   */\n              add\n                /* \"#utility.yul\":14133:14162   */\n              mstore\n                /* \"#utility.yul\":13948:14169   */\n              pop\n              jump\t// out\n                /* \"#utility.yul\":14175:14541   */\n            tag_171:\n                /* \"#utility.yul\":14317:14320   */\n              0x00\n                /* \"#utility.yul\":14338:14405   */\n              tag_319\n                /* \"#utility.yul\":14402:14404   */\n              0x22\n                /* \"#utility.yul\":14397:14400   */\n              dup4\n                /* \"#utility.yul\":14338:14405   */\n              tag_144\n              jump\t// in\n            tag_319:\n                /* \"#utility.yul\":14331:14405   */\n              swap2\n              pop\n                /* \"#utility.yul\":14414:14507   */\n              tag_320\n                /* \"#utility.yul\":14503:14506   */\n              dup3\n                /* \"#utility.yul\":14414:14507   */\n              tag_170\n              jump\t// in\n            tag_320:\n                /* \"#utility.yul\":14532:14534   */\n              0x40\n                /* \"#utility.yul\":14527:14530   */\n              dup3\n                /* \"#utility.yul\":14523:14535   */\n              add\n                /* \"#utility.yul\":14516:14535   */\n              swap1\n              pop\n                /* \"#utility.yul\":14175:14541   */\n              swap2\n              swap1\n              pop\n              jump\t// out\n                /* \"#utility.yul\":14547:14966   */\n            tag_108:\n                /* \"#utility.yul\":14713:14717   */\n              0x00\n                /* \"#utility.yul\":14751:14753   */\n              0x20\n                /* \"#utility.yul\":14740:14749   */\n              dup3\n                /* \"#utility.yul\":14736:14754   */\n              add\n                /* \"#utility.yul\":14728:14754   */\n              swap1\n              pop\n                /* \"#utility.yul\":14800:14809   */\n              dup2\n                /* \"#utility.yul\":14794:14798   */\n              dup2\n                /* \"#utility.yul\":14790:14810   */\n              sub\n                /* \"#utility.yul\":14786:14787   */\n              0x00\n                /* \"#utility.yul\":14775:14784   */\n              dup4\n                /* \"#utility.yul\":14771:14788   */\n              add\n                /* \"#utility.yul\":14764:14811   */\n              mstore\n                /* \"#utility.yul\":14828:14959   */\n              tag_322\n                /* \"#utility.yul\":14954:14958   */\n              dup2\n                /* \"#utility.yul\":14828:14959   */\n              tag_171\n              jump\t// in\n            tag_322:\n                /* \"#utility.yul\":14820:14959   */\n              swap1\n              pop\n                /* \"#utility.yul\":14547:14966   */\n              swap2\n              swap1\n              pop\n              jump\t// out\n                /* \"#utility.yul\":14972:15136   */\n            tag_172:\n                /* \"#utility.yul\":15112:15128   */\n              0x4e6f7420636f6e74726962757465000000000000000000000000000000000000\n                /* \"#utility.yul\":15108:15109   */\n              0x00\n                /* \"#utility.yul\":15100:15106   */\n              dup3\n                /* \"#utility.yul\":15096:15110   */\n              add\n                /* \"#utility.yul\":15089:15129   */\n              mstore\n                /* \"#utility.yul\":14972:15136   */\n              pop\n              jump\t// out\n                /* \"#utility.yul\":15142:15508   */\n            tag_173:\n                /* \"#utility.yul\":15284:15287   */\n              0x00\n                /* \"#utility.yul\":15305:15372   */\n              tag_325\n                /* \"#utility.yul\":15369:15371   */\n              0x0e\n                /* \"#utility.yul\":15364:15367   */\n              dup4\n                /* \"#utility.yul\":15305:15372   */\n              tag_144\n              jump\t// in\n            tag_325:\n                /* \"#utility.yul\":15298:15372   */\n              swap2\n              pop\n                /* \"#utility.yul\":15381:15474   */\n              tag_326\n                /* \"#utility.yul\":15470:15473   */\n              dup3\n                /* \"#utility.yul\":15381:15474   */\n              tag_172\n              jump\t// in\n            tag_326:\n                /* \"#utility.yul\":15499:15501   */\n              0x20\n                /* \"#utility.yul\":15494:15497   */\n              dup3\n                /* \"#utility.yul\":15490:15502   */\n              add\n                /* \"#utility.yul\":15483:15502   */\n              swap1\n              pop\n                /* \"#utility.yul\":15142:15508   */\n              swap2\n              swap1\n              pop\n              jump\t// out\n                /* \"#utility.yul\":15514:15933   */\n            tag_114:\n                /* \"#utility.yul\":15680:15684   */\n              0x00\n                /* \"#utility.yul\":15718:15720   */\n              0x20\n                /* \"#utility.yul\":15707:15716   */\n              dup3\n                /* \"#utility.yul\":15703:15721   */\n              add\n                /* \"#utility.yul\":15695:15721   */\n              swap1\n              pop\n                /* \"#utility.yul\":15767:15776   */\n              dup2\n                /* \"#utility.yul\":15761:15765   */\n              dup2\n                /* \"#utility.yul\":15757:15777   */\n              sub\n                /* \"#utility.yul\":15753:15754   */\n              0x00\n                /* \"#utility.yul\":15742:15751   */\n              dup4\n                /* \"#utility.yul\":15738:15755   */\n              add\n                /* \"#utility.yul\":15731:15778   */\n              mstore\n                /* \"#utility.yul\":15795:15926   */\n              tag_328\n                /* \"#utility.yul\":15921:15925   */\n              dup2\n                /* \"#utility.yul\":15795:15926   */\n              tag_173\n              jump\t// in\n            tag_328:\n                /* \"#utility.yul\":15787:15926   */\n              swap1\n              pop\n                /* \"#utility.yul\":15514:15933   */\n              swap2\n              swap1\n              pop\n              jump\t// out\n                /* \"#utility.yul\":15939:16106   */\n            tag_174:\n                /* \"#utility.yul\":16079:16098   */\n              0x596f752061726520617070726f76656421000000000000000000000000000000\n                /* \"#utility.yul\":16075:16076   */\n              0x00\n                /* \"#utility.yul\":16067:16073   */\n              dup3\n                /* \"#utility.yul\":16063:16077   */\n              add\n                /* \"#utility.yul\":16056:16099   */\n              mstore\n                /* \"#utility.yul\":15939:16106   */\n              pop\n              jump\t// out\n                /* \"#utility.yul\":16112:16478   */\n            tag_175:\n                /* \"#utility.yul\":16254:16257   */\n              0x00\n                /* \"#utility.yul\":16275:16342   */\n              tag_331\n                /* \"#utility.yul\":16339:16341   */\n              0x11\n                /* \"#utility.yul\":16334:16337   */\n              dup4\n                /* \"#utility.yul\":16275:16342   */\n              tag_144\n              jump\t// in\n            tag_331:\n                /* \"#utility.yul\":16268:16342   */\n              swap2\n              pop\n                /* \"#utility.yul\":16351:16444   */\n              tag_332\n                /* \"#utility.yul\":16440:16443   */\n              dup3\n                /* \"#utility.yul\":16351:16444   */\n              tag_174\n              jump\t// in\n            tag_332:\n                /* \"#utility.yul\":16469:16471   */\n              0x20\n                /* \"#utility.yul\":16464:16467   */\n              dup3\n                /* \"#utility.yul\":16460:16472   */\n              add\n                /* \"#utility.yul\":16453:16472   */\n              swap1\n              pop\n                /* \"#utility.yul\":16112:16478   */\n              swap2\n              swap1\n              pop\n              jump\t// out\n                /* \"#utility.yul\":16484:16903   */\n            tag_117:\n                /* \"#utility.yul\":16650:16654   */\n              0x00\n                /* \"#utility.yul\":16688:16690   */\n              0x20\n                /* \"#utility.yul\":16677:16686   */\n              dup3\n                /* \"#utility.yul\":16673:16691   */\n              add\n                /* \"#utility.yul\":16665:16691   */\n              swap1\n              pop\n                /* \"#utility.yul\":16737:16746   */\n              dup2\n                /* \"#utility.yul\":16731:16735   */\n              dup2\n                /* \"#utility.yul\":16727:16747   */\n              sub\n                /* \"#utility.yul\":16723:16724   */\n              0x00\n                /* \"#utility.yul\":16712:16721   */\n              dup4\n                /* \"#utility.yul\":16708:16725   */\n              add\n                /* \"#utility.yul\":16701:16748   */\n              mstore\n                /* \"#utility.yul\":16765:16896   */\n              tag_334\n                /* \"#utility.yul\":16891:16895   */\n              dup2\n                /* \"#utility.yul\":16765:16896   */\n              tag_175\n              jump\t// in\n            tag_334:\n                /* \"#utility.yul\":16757:16896   */\n              swap1\n              pop\n                /* \"#utility.yul\":16484:16903   */\n              swap2\n              swap1\n              pop\n              jump\t// out\n\n            auxdata: 0xa26469706673582212203ea0641df22d2cf759b02c5697b91c43bda2a7a43474b12696f25e7f8144a8aa64736f6c634300080b0033\n        }\n    }\n\n    auxdata: 0xa2646970667358221220e724a2a3e99a5ef1dd0667a44dbafe35417b89dc94060c237ff2010b18d2038464736f6c634300080b0033\n}\n","bytecode":{"linkReferences":{},"object":"608060405234801561001057600080fd5b50611a21806100206000396000f3fe608060405234801561001057600080fd5b50600436106100415760003560e01c8063a3303a7514610046578063db05983b14610062578063e7e1ffa414610092575b600080fd5b610060600480360381019061005b9190610266565b6100b0565b005b61007c60048036038101906100779190610266565b610151565b60405161008991906102d4565b60405180910390f35b61009a610190565b6040516100a791906103ad565b60405180910390f35b600081336040516100c09061021e565b6100cb9291906103de565b604051809103906000f0801580156100e7573d6000803e3d6000fd5b5090506000819080600181540180825580915050600190039060005260206000200160009091909190916101000a81548173ffffffffffffffffffffffffffffffffffffffff021916908373ffffffffffffffffffffffffffffffffffffffff1602179055505050565b6000818154811061016157600080fd5b906000526020600020016000915054906101000a900473ffffffffffffffffffffffffffffffffffffffff1681565b6060600080548060200260200160405190810160405280929190818152602001828054801561021457602002820191906000526020600020905b8160009054906101000a900473ffffffffffffffffffffffffffffffffffffffff1673ffffffffffffffffffffffffffffffffffffffff16815260200190600101908083116101ca575b5050505050905090565b6115e48061040883390190565b600080fd5b6000819050919050565b61024381610230565b811461024e57600080fd5b50565b6000813590506102608161023a565b92915050565b60006020828403121561027c5761027b61022b565b5b600061028a84828501610251565b91505092915050565b600073ffffffffffffffffffffffffffffffffffffffff82169050919050565b60006102be82610293565b9050919050565b6102ce816102b3565b82525050565b60006020820190506102e960008301846102c5565b92915050565b600081519050919050565b600082825260208201905092915050565b6000819050602082019050919050565b610324816102b3565b82525050565b6000610336838361031b565b60208301905092915050565b6000602082019050919050565b600061035a826102ef565b61036481856102fa565b935061036f8361030b565b8060005b838110156103a0578151610387888261032a565b975061039283610342565b925050600181019050610373565b5085935050505092915050565b600060208201905081810360008301526103c7818461034f565b905092915050565b6103d881610230565b82525050565b60006040820190506103f360008301856103cf565b61040060208301846102c5565b939250505056fe60806040523480156200001157600080fd5b50604051620015e4380380620015e483398181016040528101906200003791906200012b565b806000806101000a81548173ffffffffffffffffffffffffffffffffffffffff021916908373ffffffffffffffffffffffffffffffffffffffff16021790555081600181905550505062000172565b600080fd5b6000819050919050565b620000a0816200008b565b8114620000ac57600080fd5b50565b600081519050620000c08162000095565b92915050565b600073ffffffffffffffffffffffffffffffffffffffff82169050919050565b6000620000f382620000c6565b9050919050565b6200010581620000e6565b81146200011157600080fd5b50565b6000815190506200012581620000fa565b92915050565b6000806040838503121562000145576200014462000086565b5b60006200015585828601620000af565b9250506020620001688582860162000114565b9150509250929050565b61146280620001826000396000f3fe6080604052600436106100a75760003560e01c806381d12c581161006457806381d12c58146101c25780638a9cfd5514610203578063937e09b11461022c578063a1ec6ce514610257578063d7bb99ba14610282578063d7d1bbdb1461028c576100a7565b806303441006146100ac5780630a144391146100d5578063128e9be6146101125780633410452a1461013d5780634051ddac14610168578063481c6a7514610197575b600080fd5b3480156100b857600080fd5b506100d360048036038101906100ce9190610b66565b6102b5565b005b3480156100e157600080fd5b506100fc60048036038101906100f79190610bf1565b6104d6565b6040516101099190610c39565b60405180910390f35b34801561011e57600080fd5b506101276104f6565b6040516101349190610c63565b60405180910390f35b34801561014957600080fd5b506101526104fc565b60405161015f9190610c63565b60405180910390f35b34801561017457600080fd5b5061017d610506565b60405161018e959493929190610c8d565b60405180910390f35b3480156101a357600080fd5b506101ac61054a565b6040516101b99190610ce0565b60405180910390f35b3480156101ce57600080fd5b506101e960048036038101906101e49190610b66565b61056e565b6040516101fa959493929190610db5565b60405180910390f35b34801561020f57600080fd5b5061022a60048036038101906102259190610f44565b610659565b005b34801561023857600080fd5b506102416107a6565b60405161024e9190610c63565b60405180910390f35b34801561026357600080fd5b5061026c6107ac565b6040516102799190610c63565b60405180910390f35b61028a6107b2565b005b34801561029857600080fd5b506102b360048036038101906102ae9190610b66565b6108c2565b005b60008054906101000a900473ffffffffffffffffffffffffffffffffffffffff1673ffffffffffffffffffffffffffffffffffffffff163373ffffffffffffffffffffffffffffffffffffffff1614610343576040517f08c379a000000000000000000000000000000000000000000000000000000000815260040161033a90611025565b60405180910390fd5b60006004600083815260200190815260200160002090508060020160149054906101000a900460ff16156103ac576040517f08c379a00000000000000000000000000000000000000000000000000000000081526004016103a390611091565b60405180910390fd5b806001015447116103f2576040517f08c379a00000000000000000000000000000000000000000000000000000000081526004016103e9906110fd565b60405180910390fd5b6002600554610401919061117b565b816003015411610446576040517f08c379a000000000000000000000000000000000000000000000000000000000815260040161043d906111f8565b60405180910390fd5b60018160020160146101000a81548160ff0219169083151502179055508060020160009054906101000a900473ffffffffffffffffffffffffffffffffffffffff1673ffffffffffffffffffffffffffffffffffffffff166108fc82600101549081150290604051600060405180830381858888f193505050501580156104d1573d6000803e3d6000fd5b505050565b60026020528060005260406000206000915054906101000a900460ff1681565b60055481565b6000600354905090565b60008060008060006003546005544760015460008054906101000a900473ffffffffffffffffffffffffffffffffffffffff16945094509450945094509091929394565b60008054906101000a900473ffffffffffffffffffffffffffffffffffffffff1681565b600460205280600052604060002060009150905080600001805461059190611247565b80601f01602080910402602001604051908101604052809291908181526020018280546105bd90611247565b801561060a5780601f106105df5761010080835404028352916020019161060a565b820191906000526020600020905b8154815290600101906020018083116105ed57829003601f168201915b5050505050908060010154908060020160009054906101000a900473ffffffffffffffffffffffffffffffffffffffff16908060020160149054906101000a900460ff16908060030154905085565b60008054906101000a900473ffffffffffffffffffffffffffffffffffffffff1673ffffffffffffffffffffffffffffffffffffffff163373ffffffffffffffffffffffffffffffffffffffff16146106e7576040517f08c379a00000000000000000000000000000000000000000000000000000000081526004016106de90611025565b60405180910390fd5b6000600460006003600081548092919061070090611279565b91905055815260200190815260200160002090508381600001908051906020019061072c929190610a79565b50828160010181905550818160020160006101000a81548173ffffffffffffffffffffffffffffffffffffffff021916908373ffffffffffffffffffffffffffffffffffffffff16021790555060008160020160146101000a81548160ff0219169083151502179055506000816003018190555050505050565b60015481565b60035481565b60015434116107f6576040517f08c379a00000000000000000000000000000000000000000000000000000000081526004016107ed90611334565b60405180910390fd5b60001515600260003373ffffffffffffffffffffffffffffffffffffffff1673ffffffffffffffffffffffffffffffffffffffff16815260200190815260200160002060009054906101000a900460ff16151514156108c0576001600260003373ffffffffffffffffffffffffffffffffffffffff1673ffffffffffffffffffffffffffffffffffffffff16815260200190815260200160002060006101000a81548160ff021916908315150217905550600560008154809291906108ba90611279565b91905055505b565b600060046000838152602001908152602001600020905060011515600260003373ffffffffffffffffffffffffffffffffffffffff1673ffffffffffffffffffffffffffffffffffffffff16815260200190815260200160002060009054906101000a900460ff1615151461096c576040517f08c379a0000000000000000000000000000000000000000000000000000000008152600401610963906113a0565b60405180910390fd5b600015158160040160003373ffffffffffffffffffffffffffffffffffffffff1673ffffffffffffffffffffffffffffffffffffffff16815260200190815260200160002060009054906101000a900460ff16151514610a01576040517f08c379a00000000000000000000000000000000000000000000000000000000081526004016109f89061140c565b60405180910390fd5b60018160040160003373ffffffffffffffffffffffffffffffffffffffff1673ffffffffffffffffffffffffffffffffffffffff16815260200190815260200160002060006101000a81548160ff021916908315150217905550806003016000815480929190610a7090611279565b91905055505050565b828054610a8590611247565b90600052602060002090601f016020900481019282610aa75760008555610aee565b82601f10610ac057805160ff1916838001178555610aee565b82800160010185558215610aee579182015b82811115610aed578251825591602001919060010190610ad2565b5b509050610afb9190610aff565b5090565b5b80821115610b18576000816000905550600101610b00565b5090565b6000604051905090565b600080fd5b600080fd5b6000819050919050565b610b4381610b30565b8114610b4e57600080fd5b50565b600081359050610b6081610b3a565b92915050565b600060208284031215610b7c57610b7b610b26565b5b6000610b8a84828501610b51565b91505092915050565b600073ffffffffffffffffffffffffffffffffffffffff82169050919050565b6000610bbe82610b93565b9050919050565b610bce81610bb3565b8114610bd957600080fd5b50565b600081359050610beb81610bc5565b92915050565b600060208284031215610c0757610c06610b26565b5b6000610c1584828501610bdc565b91505092915050565b60008115159050919050565b610c3381610c1e565b82525050565b6000602082019050610c4e6000830184610c2a565b92915050565b610c5d81610b30565b82525050565b6000602082019050610c786000830184610c54565b92915050565b610c8781610bb3565b82525050565b600060a082019050610ca26000830188610c54565b610caf6020830187610c54565b610cbc6040830186610c54565b610cc96060830185610c54565b610cd66080830184610c7e565b9695505050505050565b6000602082019050610cf56000830184610c7e565b92915050565b600081519050919050565b600082825260208201905092915050565b60005b83811015610d35578082015181840152602081019050610d1a565b83811115610d44576000848401525b50505050565b6000601f19601f8301169050919050565b6000610d6682610cfb565b610d708185610d06565b9350610d80818560208601610d17565b610d8981610d4a565b840191505092915050565b6000610d9f82610b93565b9050919050565b610daf81610d94565b82525050565b600060a0820190508181036000830152610dcf8188610d5b565b9050610dde6020830187610c54565b610deb6040830186610da6565b610df86060830185610c2a565b610e056080830184610c54565b9695505050505050565b600080fd5b600080fd5b7f4e487b7100000000000000000000000000000000000000000000000000000000600052604160045260246000fd5b610e5182610d4a565b810181811067ffffffffffffffff82111715610e7057610e6f610e19565b5b80604052505050565b6000610e83610b1c565b9050610e8f8282610e48565b919050565b600067ffffffffffffffff821115610eaf57610eae610e19565b5b610eb882610d4a565b9050602081019050919050565b82818337600083830152505050565b6000610ee7610ee284610e94565b610e79565b905082815260208101848484011115610f0357610f02610e14565b5b610f0e848285610ec5565b509392505050565b600082601f830112610f2b57610f2a610e0f565b5b8135610f3b848260208601610ed4565b91505092915050565b600080600060608486031215610f5d57610f5c610b26565b5b600084013567ffffffffffffffff811115610f7b57610f7a610b2b565b5b610f8786828701610f16565b9350506020610f9886828701610b51565b9250506040610fa986828701610bdc565b9150509250925092565b7f4f6e6c79206d616e616765722063616e2063616c6c20746869732066756e637460008201527f696f6e2100000000000000000000000000000000000000000000000000000000602082015250565b600061100f602483610d06565b915061101a82610fb3565b604082019050919050565b6000602082019050818103600083015261103e81611002565b9050919050565b7f5265717565737420697320636f6d706c65746564212100000000000000000000600082015250565b600061107b601683610d06565b915061108682611045565b602082019050919050565b600060208201905081810360008301526110aa8161106e565b9050919050565b7f4e6f7420656e6f7567687420636f696e21210000000000000000000000000000600082015250565b60006110e7601283610d06565b91506110f2826110b1565b602082019050919050565b60006020820190508181036000830152611116816110da565b9050919050565b7f4e487b7100000000000000000000000000000000000000000000000000000000600052601260045260246000fd5b7f4e487b7100000000000000000000000000000000000000000000000000000000600052601160045260246000fd5b600061118682610b30565b915061119183610b30565b9250826111a1576111a061111d565b5b828204905092915050565b7f4e6f7420656e6f7567687420617070726f766521000000000000000000000000600082015250565b60006111e2601483610d06565b91506111ed826111ac565b602082019050919050565b60006020820190508181036000830152611211816111d5565b9050919050565b7f4e487b7100000000000000000000000000000000000000000000000000000000600052602260045260246000fd5b6000600282049050600182168061125f57607f821691505b6020821081141561127357611272611218565b5b50919050565b600061128482610b30565b91507fffffffffffffffffffffffffffffffffffffffffffffffffffffffffffffffff8214156112b7576112b661114c565b5b600182019050919050565b7f416d6f756e742065746865722073686f756c6420626967676572206d696e696d60008201527f756d000000000000000000000000000000000000000000000000000000000000602082015250565b600061131e602283610d06565b9150611329826112c2565b604082019050919050565b6000602082019050818103600083015261134d81611311565b9050919050565b7f4e6f7420636f6e74726962757465000000000000000000000000000000000000600082015250565b600061138a600e83610d06565b915061139582611354565b602082019050919050565b600060208201905081810360008301526113b98161137d565b9050919050565b7f596f752061726520617070726f76656421000000000000000000000000000000600082015250565b60006113f6601183610d06565b9150611401826113c0565b602082019050919050565b60006020820190508181036000830152611425816113e9565b905091905056fea26469706673582212203ea0641df22d2cf759b02c5697b91c43bda2a7a43474b12696f25e7f8144a8aa64736f6c634300080b0033a2646970667358221220e724a2a3e99a5ef1dd0667a44dbafe35417b89dc94060c237ff2010b18d2038464736f6c634300080b0033","opcodes":"PUSH1 0x80 PUSH1 0x40 MSTORE CALLVALUE DUP1 ISZERO PUSH2 0x10 JUMPI PUSH1 0x0 DUP1 REVERT JUMPDEST POP PUSH2 0x1A21 DUP1 PUSH2 0x20 PUSH1 0x0 CODECOPY PUSH1 0x0 RETURN INVALID PUSH1 0x80 PUSH1 0x40 MSTORE CALLVALUE DUP1 ISZERO PUSH2 0x10 JUMPI PUSH1 0x0 DUP1 REVERT JUMPDEST POP PUSH1 0x4 CALLDATASIZE LT PUSH2 0x41 JUMPI PUSH1 0x0 CALLDATALOAD PUSH1 0xE0 SHR DUP1 PUSH4 0xA3303A75 EQ PUSH2 0x46 JUMPI DUP1 PUSH4 0xDB05983B EQ PUSH2 0x62 JUMPI DUP1 PUSH4 0xE7E1FFA4 EQ PUSH2 0x92 JUMPI JUMPDEST PUSH1 0x0 DUP1 REVERT JUMPDEST PUSH2 0x60 PUSH1 0x4 DUP1 CALLDATASIZE SUB DUP2 ADD SWAP1 PUSH2 0x5B SWAP2 SWAP1 PUSH2 0x266 JUMP JUMPDEST PUSH2 0xB0 JUMP JUMPDEST STOP JUMPDEST PUSH2 0x7C PUSH1 0x4 DUP1 CALLDATASIZE SUB DUP2 ADD SWAP1 PUSH2 0x77 SWAP2 SWAP1 PUSH2 0x266 JUMP JUMPDEST PUSH2 0x151 JUMP JUMPDEST PUSH1 0x40 MLOAD PUSH2 0x89 SWAP2 SWAP1 PUSH2 0x2D4 JUMP JUMPDEST PUSH1 0x40 MLOAD DUP1 SWAP2 SUB SWAP1 RETURN JUMPDEST PUSH2 0x9A PUSH2 0x190 JUMP JUMPDEST PUSH1 0x40 MLOAD PUSH2 0xA7 SWAP2 SWAP1 PUSH2 0x3AD JUMP JUMPDEST PUSH1 0x40 MLOAD DUP1 SWAP2 SUB SWAP1 RETURN JUMPDEST PUSH1 0x0 DUP2 CALLER PUSH1 0x40 MLOAD PUSH2 0xC0 SWAP1 PUSH2 0x21E JUMP JUMPDEST PUSH2 0xCB SWAP3 SWAP2 SWAP1 PUSH2 0x3DE JUMP JUMPDEST PUSH1 0x40 MLOAD DUP1 SWAP2 SUB SWAP1 PUSH1 0x0 CREATE DUP1 ISZERO DUP1 ISZERO PUSH2 0xE7 JUMPI RETURNDATASIZE PUSH1 0x0 DUP1 RETURNDATACOPY RETURNDATASIZE PUSH1 0x0 REVERT JUMPDEST POP SWAP1 POP PUSH1 0x0 DUP2 SWAP1 DUP1 PUSH1 0x1 DUP2 SLOAD ADD DUP1 DUP3 SSTORE DUP1 SWAP2 POP POP PUSH1 0x1 SWAP1 SUB SWAP1 PUSH1 0x0 MSTORE PUSH1 0x20 PUSH1 0x0 KECCAK256 ADD PUSH1 0x0 SWAP1 SWAP2 SWAP1 SWAP2 SWAP1 SWAP2 PUSH2 0x100 EXP DUP2 SLOAD DUP2 PUSH20 0xFFFFFFFFFFFFFFFFFFFFFFFFFFFFFFFFFFFFFFFF MUL NOT AND SWAP1 DUP4 PUSH20 0xFFFFFFFFFFFFFFFFFFFFFFFFFFFFFFFFFFFFFFFF AND MUL OR SWAP1 SSTORE POP POP POP JUMP JUMPDEST PUSH1 0x0 DUP2 DUP2 SLOAD DUP2 LT PUSH2 0x161 JUMPI PUSH1 0x0 DUP1 REVERT JUMPDEST SWAP1 PUSH1 0x0 MSTORE PUSH1 0x20 PUSH1 0x0 KECCAK256 ADD PUSH1 0x0 SWAP2 POP SLOAD SWAP1 PUSH2 0x100 EXP SWAP1 DIV PUSH20 0xFFFFFFFFFFFFFFFFFFFFFFFFFFFFFFFFFFFFFFFF AND DUP2 JUMP JUMPDEST PUSH1 0x60 PUSH1 0x0 DUP1 SLOAD DUP1 PUSH1 0x20 MUL PUSH1 0x20 ADD PUSH1 0x40 MLOAD SWAP1 DUP2 ADD PUSH1 0x40 MSTORE DUP1 SWAP3 SWAP2 SWAP1 DUP2 DUP2 MSTORE PUSH1 0x20 ADD DUP3 DUP1 SLOAD DUP1 ISZERO PUSH2 0x214 JUMPI PUSH1 0x20 MUL DUP3 ADD SWAP2 SWAP1 PUSH1 0x0 MSTORE PUSH1 0x20 PUSH1 0x0 KECCAK256 SWAP1 JUMPDEST DUP2 PUSH1 0x0 SWAP1 SLOAD SWAP1 PUSH2 0x100 EXP SWAP1 DIV PUSH20 0xFFFFFFFFFFFFFFFFFFFFFFFFFFFFFFFFFFFFFFFF AND PUSH20 0xFFFFFFFFFFFFFFFFFFFFFFFFFFFFFFFFFFFFFFFF AND DUP2 MSTORE PUSH1 0x20 ADD SWAP1 PUSH1 0x1 ADD SWAP1 DUP1 DUP4 GT PUSH2 0x1CA JUMPI JUMPDEST POP POP POP POP POP SWAP1 POP SWAP1 JUMP JUMPDEST PUSH2 0x15E4 DUP1 PUSH2 0x408 DUP4 CODECOPY ADD SWAP1 JUMP JUMPDEST PUSH1 0x0 DUP1 REVERT JUMPDEST PUSH1 0x0 DUP2 SWAP1 POP SWAP2 SWAP1 POP JUMP JUMPDEST PUSH2 0x243 DUP2 PUSH2 0x230 JUMP JUMPDEST DUP2 EQ PUSH2 0x24E JUMPI PUSH1 0x0 DUP1 REVERT JUMPDEST POP JUMP JUMPDEST PUSH1 0x0 DUP2 CALLDATALOAD SWAP1 POP PUSH2 0x260 DUP2 PUSH2 0x23A JUMP JUMPDEST SWAP3 SWAP2 POP POP JUMP JUMPDEST PUSH1 0x0 PUSH1 0x20 DUP3 DUP5 SUB SLT ISZERO PUSH2 0x27C JUMPI PUSH2 0x27B PUSH2 0x22B JUMP JUMPDEST JUMPDEST PUSH1 0x0 PUSH2 0x28A DUP5 DUP3 DUP6 ADD PUSH2 0x251 JUMP JUMPDEST SWAP2 POP POP SWAP3 SWAP2 POP POP JUMP JUMPDEST PUSH1 0x0 PUSH20 0xFFFFFFFFFFFFFFFFFFFFFFFFFFFFFFFFFFFFFFFF DUP3 AND SWAP1 POP SWAP2 SWAP1 POP JUMP JUMPDEST PUSH1 0x0 PUSH2 0x2BE DUP3 PUSH2 0x293 JUMP JUMPDEST SWAP1 POP SWAP2 SWAP1 POP JUMP JUMPDEST PUSH2 0x2CE DUP2 PUSH2 0x2B3 JUMP JUMPDEST DUP3 MSTORE POP POP JUMP JUMPDEST PUSH1 0x0 PUSH1 0x20 DUP3 ADD SWAP1 POP PUSH2 0x2E9 PUSH1 0x0 DUP4 ADD DUP5 PUSH2 0x2C5 JUMP JUMPDEST SWAP3 SWAP2 POP POP JUMP JUMPDEST PUSH1 0x0 DUP2 MLOAD SWAP1 POP SWAP2 SWAP1 POP JUMP JUMPDEST PUSH1 0x0 DUP3 DUP3 MSTORE PUSH1 0x20 DUP3 ADD SWAP1 POP SWAP3 SWAP2 POP POP JUMP JUMPDEST PUSH1 0x0 DUP2 SWAP1 POP PUSH1 0x20 DUP3 ADD SWAP1 POP SWAP2 SWAP1 POP JUMP JUMPDEST PUSH2 0x324 DUP2 PUSH2 0x2B3 JUMP JUMPDEST DUP3 MSTORE POP POP JUMP JUMPDEST PUSH1 0x0 PUSH2 0x336 DUP4 DUP4 PUSH2 0x31B JUMP JUMPDEST PUSH1 0x20 DUP4 ADD SWAP1 POP SWAP3 SWAP2 POP POP JUMP JUMPDEST PUSH1 0x0 PUSH1 0x20 DUP3 ADD SWAP1 POP SWAP2 SWAP1 POP JUMP JUMPDEST PUSH1 0x0 PUSH2 0x35A DUP3 PUSH2 0x2EF JUMP JUMPDEST PUSH2 0x364 DUP2 DUP6 PUSH2 0x2FA JUMP JUMPDEST SWAP4 POP PUSH2 0x36F DUP4 PUSH2 0x30B JUMP JUMPDEST DUP1 PUSH1 0x0 JUMPDEST DUP4 DUP2 LT ISZERO PUSH2 0x3A0 JUMPI DUP2 MLOAD PUSH2 0x387 DUP9 DUP3 PUSH2 0x32A JUMP JUMPDEST SWAP8 POP PUSH2 0x392 DUP4 PUSH2 0x342 JUMP JUMPDEST SWAP3 POP POP PUSH1 0x1 DUP2 ADD SWAP1 POP PUSH2 0x373 JUMP JUMPDEST POP DUP6 SWAP4 POP POP POP POP SWAP3 SWAP2 POP POP JUMP JUMPDEST PUSH1 0x0 PUSH1 0x20 DUP3 ADD SWAP1 POP DUP2 DUP2 SUB PUSH1 0x0 DUP4 ADD MSTORE PUSH2 0x3C7 DUP2 DUP5 PUSH2 0x34F JUMP JUMPDEST SWAP1 POP SWAP3 SWAP2 POP POP JUMP JUMPDEST PUSH2 0x3D8 DUP2 PUSH2 0x230 JUMP JUMPDEST DUP3 MSTORE POP POP JUMP JUMPDEST PUSH1 0x0 PUSH1 0x40 DUP3 ADD SWAP1 POP PUSH2 0x3F3 PUSH1 0x0 DUP4 ADD DUP6 PUSH2 0x3CF JUMP JUMPDEST PUSH2 0x400 PUSH1 0x20 DUP4 ADD DUP5 PUSH2 0x2C5 JUMP JUMPDEST SWAP4 SWAP3 POP POP POP JUMP INVALID PUSH1 0x80 PUSH1 0x40 MSTORE CALLVALUE DUP1 ISZERO PUSH3 0x11 JUMPI PUSH1 0x0 DUP1 REVERT JUMPDEST POP PUSH1 0x40 MLOAD PUSH3 0x15E4 CODESIZE SUB DUP1 PUSH3 0x15E4 DUP4 CODECOPY DUP2 DUP2 ADD PUSH1 0x40 MSTORE DUP2 ADD SWAP1 PUSH3 0x37 SWAP2 SWAP1 PUSH3 0x12B JUMP JUMPDEST DUP1 PUSH1 0x0 DUP1 PUSH2 0x100 EXP DUP2 SLOAD DUP2 PUSH20 0xFFFFFFFFFFFFFFFFFFFFFFFFFFFFFFFFFFFFFFFF MUL NOT AND SWAP1 DUP4 PUSH20 0xFFFFFFFFFFFFFFFFFFFFFFFFFFFFFFFFFFFFFFFF AND MUL OR SWAP1 SSTORE POP DUP2 PUSH1 0x1 DUP2 SWAP1 SSTORE POP POP POP PUSH3 0x172 JUMP JUMPDEST PUSH1 0x0 DUP1 REVERT JUMPDEST PUSH1 0x0 DUP2 SWAP1 POP SWAP2 SWAP1 POP JUMP JUMPDEST PUSH3 0xA0 DUP2 PUSH3 0x8B JUMP JUMPDEST DUP2 EQ PUSH3 0xAC JUMPI PUSH1 0x0 DUP1 REVERT JUMPDEST POP JUMP JUMPDEST PUSH1 0x0 DUP2 MLOAD SWAP1 POP PUSH3 0xC0 DUP2 PUSH3 0x95 JUMP JUMPDEST SWAP3 SWAP2 POP POP JUMP JUMPDEST PUSH1 0x0 PUSH20 0xFFFFFFFFFFFFFFFFFFFFFFFFFFFFFFFFFFFFFFFF DUP3 AND SWAP1 POP SWAP2 SWAP1 POP JUMP JUMPDEST PUSH1 0x0 PUSH3 0xF3 DUP3 PUSH3 0xC6 JUMP JUMPDEST SWAP1 POP SWAP2 SWAP1 POP JUMP JUMPDEST PUSH3 0x105 DUP2 PUSH3 0xE6 JUMP JUMPDEST DUP2 EQ PUSH3 0x111 JUMPI PUSH1 0x0 DUP1 REVERT JUMPDEST POP JUMP JUMPDEST PUSH1 0x0 DUP2 MLOAD SWAP1 POP PUSH3 0x125 DUP2 PUSH3 0xFA JUMP JUMPDEST SWAP3 SWAP2 POP POP JUMP JUMPDEST PUSH1 0x0 DUP1 PUSH1 0x40 DUP4 DUP6 SUB SLT ISZERO PUSH3 0x145 JUMPI PUSH3 0x144 PUSH3 0x86 JUMP JUMPDEST JUMPDEST PUSH1 0x0 PUSH3 0x155 DUP6 DUP3 DUP7 ADD PUSH3 0xAF JUMP JUMPDEST SWAP3 POP POP PUSH1 0x20 PUSH3 0x168 DUP6 DUP3 DUP7 ADD PUSH3 0x114 JUMP JUMPDEST SWAP2 POP POP SWAP3 POP SWAP3 SWAP1 POP JUMP JUMPDEST PUSH2 0x1462 DUP1 PUSH3 0x182 PUSH1 0x0 CODECOPY PUSH1 0x0 RETURN INVALID PUSH1 0x80 PUSH1 0x40 MSTORE PUSH1 0x4 CALLDATASIZE LT PUSH2 0xA7 JUMPI PUSH1 0x0 CALLDATALOAD PUSH1 0xE0 SHR DUP1 PUSH4 0x81D12C58 GT PUSH2 0x64 JUMPI DUP1 PUSH4 0x81D12C58 EQ PUSH2 0x1C2 JUMPI DUP1 PUSH4 0x8A9CFD55 EQ PUSH2 0x203 JUMPI DUP1 PUSH4 0x937E09B1 EQ PUSH2 0x22C JUMPI DUP1 PUSH4 0xA1EC6CE5 EQ PUSH2 0x257 JUMPI DUP1 PUSH4 0xD7BB99BA EQ PUSH2 0x282 JUMPI DUP1 PUSH4 0xD7D1BBDB EQ PUSH2 0x28C JUMPI PUSH2 0xA7 JUMP JUMPDEST DUP1 PUSH4 0x3441006 EQ PUSH2 0xAC JUMPI DUP1 PUSH4 0xA144391 EQ PUSH2 0xD5 JUMPI DUP1 PUSH4 0x128E9BE6 EQ PUSH2 0x112 JUMPI DUP1 PUSH4 0x3410452A EQ PUSH2 0x13D JUMPI DUP1 PUSH4 0x4051DDAC EQ PUSH2 0x168 JUMPI DUP1 PUSH4 0x481C6A75 EQ PUSH2 0x197 JUMPI JUMPDEST PUSH1 0x0 DUP1 REVERT JUMPDEST CALLVALUE DUP1 ISZERO PUSH2 0xB8 JUMPI PUSH1 0x0 DUP1 REVERT JUMPDEST POP PUSH2 0xD3 PUSH1 0x4 DUP1 CALLDATASIZE SUB DUP2 ADD SWAP1 PUSH2 0xCE SWAP2 SWAP1 PUSH2 0xB66 JUMP JUMPDEST PUSH2 0x2B5 JUMP JUMPDEST STOP JUMPDEST CALLVALUE DUP1 ISZERO PUSH2 0xE1 JUMPI PUSH1 0x0 DUP1 REVERT JUMPDEST POP PUSH2 0xFC PUSH1 0x4 DUP1 CALLDATASIZE SUB DUP2 ADD SWAP1 PUSH2 0xF7 SWAP2 SWAP1 PUSH2 0xBF1 JUMP JUMPDEST PUSH2 0x4D6 JUMP JUMPDEST PUSH1 0x40 MLOAD PUSH2 0x109 SWAP2 SWAP1 PUSH2 0xC39 JUMP JUMPDEST PUSH1 0x40 MLOAD DUP1 SWAP2 SUB SWAP1 RETURN JUMPDEST CALLVALUE DUP1 ISZERO PUSH2 0x11E JUMPI PUSH1 0x0 DUP1 REVERT JUMPDEST POP PUSH2 0x127 PUSH2 0x4F6 JUMP JUMPDEST PUSH1 0x40 MLOAD PUSH2 0x134 SWAP2 SWAP1 PUSH2 0xC63 JUMP JUMPDEST PUSH1 0x40 MLOAD DUP1 SWAP2 SUB SWAP1 RETURN JUMPDEST CALLVALUE DUP1 ISZERO PUSH2 0x149 JUMPI PUSH1 0x0 DUP1 REVERT JUMPDEST POP PUSH2 0x152 PUSH2 0x4FC JUMP JUMPDEST PUSH1 0x40 MLOAD PUSH2 0x15F SWAP2 SWAP1 PUSH2 0xC63 JUMP JUMPDEST PUSH1 0x40 MLOAD DUP1 SWAP2 SUB SWAP1 RETURN JUMPDEST CALLVALUE DUP1 ISZERO PUSH2 0x174 JUMPI PUSH1 0x0 DUP1 REVERT JUMPDEST POP PUSH2 0x17D PUSH2 0x506 JUMP JUMPDEST PUSH1 0x40 MLOAD PUSH2 0x18E SWAP6 SWAP5 SWAP4 SWAP3 SWAP2 SWAP1 PUSH2 0xC8D JUMP JUMPDEST PUSH1 0x40 MLOAD DUP1 SWAP2 SUB SWAP1 RETURN JUMPDEST CALLVALUE DUP1 ISZERO PUSH2 0x1A3 JUMPI PUSH1 0x0 DUP1 REVERT JUMPDEST POP PUSH2 0x1AC PUSH2 0x54A JUMP JUMPDEST PUSH1 0x40 MLOAD PUSH2 0x1B9 SWAP2 SWAP1 PUSH2 0xCE0 JUMP JUMPDEST PUSH1 0x40 MLOAD DUP1 SWAP2 SUB SWAP1 RETURN JUMPDEST CALLVALUE DUP1 ISZERO PUSH2 0x1CE JUMPI PUSH1 0x0 DUP1 REVERT JUMPDEST POP PUSH2 0x1E9 PUSH1 0x4 DUP1 CALLDATASIZE SUB DUP2 ADD SWAP1 PUSH2 0x1E4 SWAP2 SWAP1 PUSH2 0xB66 JUMP JUMPDEST PUSH2 0x56E JUMP JUMPDEST PUSH1 0x40 MLOAD PUSH2 0x1FA SWAP6 SWAP5 SWAP4 SWAP3 SWAP2 SWAP1 PUSH2 0xDB5 JUMP JUMPDEST PUSH1 0x40 MLOAD DUP1 SWAP2 SUB SWAP1 RETURN JUMPDEST CALLVALUE DUP1 ISZERO PUSH2 0x20F JUMPI PUSH1 0x0 DUP1 REVERT JUMPDEST POP PUSH2 0x22A PUSH1 0x4 DUP1 CALLDATASIZE SUB DUP2 ADD SWAP1 PUSH2 0x225 SWAP2 SWAP1 PUSH2 0xF44 JUMP JUMPDEST PUSH2 0x659 JUMP JUMPDEST STOP JUMPDEST CALLVALUE DUP1 ISZERO PUSH2 0x238 JUMPI PUSH1 0x0 DUP1 REVERT JUMPDEST POP PUSH2 0x241 PUSH2 0x7A6 JUMP JUMPDEST PUSH1 0x40 MLOAD PUSH2 0x24E SWAP2 SWAP1 PUSH2 0xC63 JUMP JUMPDEST PUSH1 0x40 MLOAD DUP1 SWAP2 SUB SWAP1 RETURN JUMPDEST CALLVALUE DUP1 ISZERO PUSH2 0x263 JUMPI PUSH1 0x0 DUP1 REVERT JUMPDEST POP PUSH2 0x26C PUSH2 0x7AC JUMP JUMPDEST PUSH1 0x40 MLOAD PUSH2 0x279 SWAP2 SWAP1 PUSH2 0xC63 JUMP JUMPDEST PUSH1 0x40 MLOAD DUP1 SWAP2 SUB SWAP1 RETURN JUMPDEST PUSH2 0x28A PUSH2 0x7B2 JUMP JUMPDEST STOP JUMPDEST CALLVALUE DUP1 ISZERO PUSH2 0x298 JUMPI PUSH1 0x0 DUP1 REVERT JUMPDEST POP PUSH2 0x2B3 PUSH1 0x4 DUP1 CALLDATASIZE SUB DUP2 ADD SWAP1 PUSH2 0x2AE SWAP2 SWAP1 PUSH2 0xB66 JUMP JUMPDEST PUSH2 0x8C2 JUMP JUMPDEST STOP JUMPDEST PUSH1 0x0 DUP1 SLOAD SWAP1 PUSH2 0x100 EXP SWAP1 DIV PUSH20 0xFFFFFFFFFFFFFFFFFFFFFFFFFFFFFFFFFFFFFFFF AND PUSH20 0xFFFFFFFFFFFFFFFFFFFFFFFFFFFFFFFFFFFFFFFF AND CALLER PUSH20 0xFFFFFFFFFFFFFFFFFFFFFFFFFFFFFFFFFFFFFFFF AND EQ PUSH2 0x343 JUMPI PUSH1 0x40 MLOAD PUSH32 0x8C379A000000000000000000000000000000000000000000000000000000000 DUP2 MSTORE PUSH1 0x4 ADD PUSH2 0x33A SWAP1 PUSH2 0x1025 JUMP JUMPDEST PUSH1 0x40 MLOAD DUP1 SWAP2 SUB SWAP1 REVERT JUMPDEST PUSH1 0x0 PUSH1 0x4 PUSH1 0x0 DUP4 DUP2 MSTORE PUSH1 0x20 ADD SWAP1 DUP2 MSTORE PUSH1 0x20 ADD PUSH1 0x0 KECCAK256 SWAP1 POP DUP1 PUSH1 0x2 ADD PUSH1 0x14 SWAP1 SLOAD SWAP1 PUSH2 0x100 EXP SWAP1 DIV PUSH1 0xFF AND ISZERO PUSH2 0x3AC JUMPI PUSH1 0x40 MLOAD PUSH32 0x8C379A000000000000000000000000000000000000000000000000000000000 DUP2 MSTORE PUSH1 0x4 ADD PUSH2 0x3A3 SWAP1 PUSH2 0x1091 JUMP JUMPDEST PUSH1 0x40 MLOAD DUP1 SWAP2 SUB SWAP1 REVERT JUMPDEST DUP1 PUSH1 0x1 ADD SLOAD SELFBALANCE GT PUSH2 0x3F2 JUMPI PUSH1 0x40 MLOAD PUSH32 0x8C379A000000000000000000000000000000000000000000000000000000000 DUP2 MSTORE PUSH1 0x4 ADD PUSH2 0x3E9 SWAP1 PUSH2 0x10FD JUMP JUMPDEST PUSH1 0x40 MLOAD DUP1 SWAP2 SUB SWAP1 REVERT JUMPDEST PUSH1 0x2 PUSH1 0x5 SLOAD PUSH2 0x401 SWAP2 SWAP1 PUSH2 0x117B JUMP JUMPDEST DUP2 PUSH1 0x3 ADD SLOAD GT PUSH2 0x446 JUMPI PUSH1 0x40 MLOAD PUSH32 0x8C379A000000000000000000000000000000000000000000000000000000000 DUP2 MSTORE PUSH1 0x4 ADD PUSH2 0x43D SWAP1 PUSH2 0x11F8 JUMP JUMPDEST PUSH1 0x40 MLOAD DUP1 SWAP2 SUB SWAP1 REVERT JUMPDEST PUSH1 0x1 DUP2 PUSH1 0x2 ADD PUSH1 0x14 PUSH2 0x100 EXP DUP2 SLOAD DUP2 PUSH1 0xFF MUL NOT AND SWAP1 DUP4 ISZERO ISZERO MUL OR SWAP1 SSTORE POP DUP1 PUSH1 0x2 ADD PUSH1 0x0 SWAP1 SLOAD SWAP1 PUSH2 0x100 EXP SWAP1 DIV PUSH20 0xFFFFFFFFFFFFFFFFFFFFFFFFFFFFFFFFFFFFFFFF AND PUSH20 0xFFFFFFFFFFFFFFFFFFFFFFFFFFFFFFFFFFFFFFFF AND PUSH2 0x8FC DUP3 PUSH1 0x1 ADD SLOAD SWAP1 DUP2 ISZERO MUL SWAP1 PUSH1 0x40 MLOAD PUSH1 0x0 PUSH1 0x40 MLOAD DUP1 DUP4 SUB DUP2 DUP6 DUP9 DUP9 CALL SWAP4 POP POP POP POP ISZERO DUP1 ISZERO PUSH2 0x4D1 JUMPI RETURNDATASIZE PUSH1 0x0 DUP1 RETURNDATACOPY RETURNDATASIZE PUSH1 0x0 REVERT JUMPDEST POP POP POP JUMP JUMPDEST PUSH1 0x2 PUSH1 0x20 MSTORE DUP1 PUSH1 0x0 MSTORE PUSH1 0x40 PUSH1 0x0 KECCAK256 PUSH1 0x0 SWAP2 POP SLOAD SWAP1 PUSH2 0x100 EXP SWAP1 DIV PUSH1 0xFF AND DUP2 JUMP JUMPDEST PUSH1 0x5 SLOAD DUP2 JUMP JUMPDEST PUSH1 0x0 PUSH1 0x3 SLOAD SWAP1 POP SWAP1 JUMP JUMPDEST PUSH1 0x0 DUP1 PUSH1 0x0 DUP1 PUSH1 0x0 PUSH1 0x3 SLOAD PUSH1 0x5 SLOAD SELFBALANCE PUSH1 0x1 SLOAD PUSH1 0x0 DUP1 SLOAD SWAP1 PUSH2 0x100 EXP SWAP1 DIV PUSH20 0xFFFFFFFFFFFFFFFFFFFFFFFFFFFFFFFFFFFFFFFF AND SWAP5 POP SWAP5 POP SWAP5 POP SWAP5 POP SWAP5 POP SWAP1 SWAP2 SWAP3 SWAP4 SWAP5 JUMP JUMPDEST PUSH1 0x0 DUP1 SLOAD SWAP1 PUSH2 0x100 EXP SWAP1 DIV PUSH20 0xFFFFFFFFFFFFFFFFFFFFFFFFFFFFFFFFFFFFFFFF AND DUP2 JUMP JUMPDEST PUSH1 0x4 PUSH1 0x20 MSTORE DUP1 PUSH1 0x0 MSTORE PUSH1 0x40 PUSH1 0x0 KECCAK256 PUSH1 0x0 SWAP2 POP SWAP1 POP DUP1 PUSH1 0x0 ADD DUP1 SLOAD PUSH2 0x591 SWAP1 PUSH2 0x1247 JUMP JUMPDEST DUP1 PUSH1 0x1F ADD PUSH1 0x20 DUP1 SWAP2 DIV MUL PUSH1 0x20 ADD PUSH1 0x40 MLOAD SWAP1 DUP2 ADD PUSH1 0x40 MSTORE DUP1 SWAP3 SWAP2 SWAP1 DUP2 DUP2 MSTORE PUSH1 0x20 ADD DUP3 DUP1 SLOAD PUSH2 0x5BD SWAP1 PUSH2 0x1247 JUMP JUMPDEST DUP1 ISZERO PUSH2 0x60A JUMPI DUP1 PUSH1 0x1F LT PUSH2 0x5DF JUMPI PUSH2 0x100 DUP1 DUP4 SLOAD DIV MUL DUP4 MSTORE SWAP2 PUSH1 0x20 ADD SWAP2 PUSH2 0x60A JUMP JUMPDEST DUP3 ADD SWAP2 SWAP1 PUSH1 0x0 MSTORE PUSH1 0x20 PUSH1 0x0 KECCAK256 SWAP1 JUMPDEST DUP2 SLOAD DUP2 MSTORE SWAP1 PUSH1 0x1 ADD SWAP1 PUSH1 0x20 ADD DUP1 DUP4 GT PUSH2 0x5ED JUMPI DUP3 SWAP1 SUB PUSH1 0x1F AND DUP3 ADD SWAP2 JUMPDEST POP POP POP POP POP SWAP1 DUP1 PUSH1 0x1 ADD SLOAD SWAP1 DUP1 PUSH1 0x2 ADD PUSH1 0x0 SWAP1 SLOAD SWAP1 PUSH2 0x100 EXP SWAP1 DIV PUSH20 0xFFFFFFFFFFFFFFFFFFFFFFFFFFFFFFFFFFFFFFFF AND SWAP1 DUP1 PUSH1 0x2 ADD PUSH1 0x14 SWAP1 SLOAD SWAP1 PUSH2 0x100 EXP SWAP1 DIV PUSH1 0xFF AND SWAP1 DUP1 PUSH1 0x3 ADD SLOAD SWAP1 POP DUP6 JUMP JUMPDEST PUSH1 0x0 DUP1 SLOAD SWAP1 PUSH2 0x100 EXP SWAP1 DIV PUSH20 0xFFFFFFFFFFFFFFFFFFFFFFFFFFFFFFFFFFFFFFFF AND PUSH20 0xFFFFFFFFFFFFFFFFFFFFFFFFFFFFFFFFFFFFFFFF AND CALLER PUSH20 0xFFFFFFFFFFFFFFFFFFFFFFFFFFFFFFFFFFFFFFFF AND EQ PUSH2 0x6E7 JUMPI PUSH1 0x40 MLOAD PUSH32 0x8C379A000000000000000000000000000000000000000000000000000000000 DUP2 MSTORE PUSH1 0x4 ADD PUSH2 0x6DE SWAP1 PUSH2 0x1025 JUMP JUMPDEST PUSH1 0x40 MLOAD DUP1 SWAP2 SUB SWAP1 REVERT JUMPDEST PUSH1 0x0 PUSH1 0x4 PUSH1 0x0 PUSH1 0x3 PUSH1 0x0 DUP2 SLOAD DUP1 SWAP3 SWAP2 SWAP1 PUSH2 0x700 SWAP1 PUSH2 0x1279 JUMP JUMPDEST SWAP2 SWAP1 POP SSTORE DUP2 MSTORE PUSH1 0x20 ADD SWAP1 DUP2 MSTORE PUSH1 0x20 ADD PUSH1 0x0 KECCAK256 SWAP1 POP DUP4 DUP2 PUSH1 0x0 ADD SWAP1 DUP1 MLOAD SWAP1 PUSH1 0x20 ADD SWAP1 PUSH2 0x72C SWAP3 SWAP2 SWAP1 PUSH2 0xA79 JUMP JUMPDEST POP DUP3 DUP2 PUSH1 0x1 ADD DUP2 SWAP1 SSTORE POP DUP2 DUP2 PUSH1 0x2 ADD PUSH1 0x0 PUSH2 0x100 EXP DUP2 SLOAD DUP2 PUSH20 0xFFFFFFFFFFFFFFFFFFFFFFFFFFFFFFFFFFFFFFFF MUL NOT AND SWAP1 DUP4 PUSH20 0xFFFFFFFFFFFFFFFFFFFFFFFFFFFFFFFFFFFFFFFF AND MUL OR SWAP1 SSTORE POP PUSH1 0x0 DUP2 PUSH1 0x2 ADD PUSH1 0x14 PUSH2 0x100 EXP DUP2 SLOAD DUP2 PUSH1 0xFF MUL NOT AND SWAP1 DUP4 ISZERO ISZERO MUL OR SWAP1 SSTORE POP PUSH1 0x0 DUP2 PUSH1 0x3 ADD DUP2 SWAP1 SSTORE POP POP POP POP POP JUMP JUMPDEST PUSH1 0x1 SLOAD DUP2 JUMP JUMPDEST PUSH1 0x3 SLOAD DUP2 JUMP JUMPDEST PUSH1 0x1 SLOAD CALLVALUE GT PUSH2 0x7F6 JUMPI PUSH1 0x40 MLOAD PUSH32 0x8C379A000000000000000000000000000000000000000000000000000000000 DUP2 MSTORE PUSH1 0x4 ADD PUSH2 0x7ED SWAP1 PUSH2 0x1334 JUMP JUMPDEST PUSH1 0x40 MLOAD DUP1 SWAP2 SUB SWAP1 REVERT JUMPDEST PUSH1 0x0 ISZERO ISZERO PUSH1 0x2 PUSH1 0x0 CALLER PUSH20 0xFFFFFFFFFFFFFFFFFFFFFFFFFFFFFFFFFFFFFFFF AND PUSH20 0xFFFFFFFFFFFFFFFFFFFFFFFFFFFFFFFFFFFFFFFF AND DUP2 MSTORE PUSH1 0x20 ADD SWAP1 DUP2 MSTORE PUSH1 0x20 ADD PUSH1 0x0 KECCAK256 PUSH1 0x0 SWAP1 SLOAD SWAP1 PUSH2 0x100 EXP SWAP1 DIV PUSH1 0xFF AND ISZERO ISZERO EQ ISZERO PUSH2 0x8C0 JUMPI PUSH1 0x1 PUSH1 0x2 PUSH1 0x0 CALLER PUSH20 0xFFFFFFFFFFFFFFFFFFFFFFFFFFFFFFFFFFFFFFFF AND PUSH20 0xFFFFFFFFFFFFFFFFFFFFFFFFFFFFFFFFFFFFFFFF AND DUP2 MSTORE PUSH1 0x20 ADD SWAP1 DUP2 MSTORE PUSH1 0x20 ADD PUSH1 0x0 KECCAK256 PUSH1 0x0 PUSH2 0x100 EXP DUP2 SLOAD DUP2 PUSH1 0xFF MUL NOT AND SWAP1 DUP4 ISZERO ISZERO MUL OR SWAP1 SSTORE POP PUSH1 0x5 PUSH1 0x0 DUP2 SLOAD DUP1 SWAP3 SWAP2 SWAP1 PUSH2 0x8BA SWAP1 PUSH2 0x1279 JUMP JUMPDEST SWAP2 SWAP1 POP SSTORE POP JUMPDEST JUMP JUMPDEST PUSH1 0x0 PUSH1 0x4 PUSH1 0x0 DUP4 DUP2 MSTORE PUSH1 0x20 ADD SWAP1 DUP2 MSTORE PUSH1 0x20 ADD PUSH1 0x0 KECCAK256 SWAP1 POP PUSH1 0x1 ISZERO ISZERO PUSH1 0x2 PUSH1 0x0 CALLER PUSH20 0xFFFFFFFFFFFFFFFFFFFFFFFFFFFFFFFFFFFFFFFF AND PUSH20 0xFFFFFFFFFFFFFFFFFFFFFFFFFFFFFFFFFFFFFFFF AND DUP2 MSTORE PUSH1 0x20 ADD SWAP1 DUP2 MSTORE PUSH1 0x20 ADD PUSH1 0x0 KECCAK256 PUSH1 0x0 SWAP1 SLOAD SWAP1 PUSH2 0x100 EXP SWAP1 DIV PUSH1 0xFF AND ISZERO ISZERO EQ PUSH2 0x96C JUMPI PUSH1 0x40 MLOAD PUSH32 0x8C379A000000000000000000000000000000000000000000000000000000000 DUP2 MSTORE PUSH1 0x4 ADD PUSH2 0x963 SWAP1 PUSH2 0x13A0 JUMP JUMPDEST PUSH1 0x40 MLOAD DUP1 SWAP2 SUB SWAP1 REVERT JUMPDEST PUSH1 0x0 ISZERO ISZERO DUP2 PUSH1 0x4 ADD PUSH1 0x0 CALLER PUSH20 0xFFFFFFFFFFFFFFFFFFFFFFFFFFFFFFFFFFFFFFFF AND PUSH20 0xFFFFFFFFFFFFFFFFFFFFFFFFFFFFFFFFFFFFFFFF AND DUP2 MSTORE PUSH1 0x20 ADD SWAP1 DUP2 MSTORE PUSH1 0x20 ADD PUSH1 0x0 KECCAK256 PUSH1 0x0 SWAP1 SLOAD SWAP1 PUSH2 0x100 EXP SWAP1 DIV PUSH1 0xFF AND ISZERO ISZERO EQ PUSH2 0xA01 JUMPI PUSH1 0x40 MLOAD PUSH32 0x8C379A000000000000000000000000000000000000000000000000000000000 DUP2 MSTORE PUSH1 0x4 ADD PUSH2 0x9F8 SWAP1 PUSH2 0x140C JUMP JUMPDEST PUSH1 0x40 MLOAD DUP1 SWAP2 SUB SWAP1 REVERT JUMPDEST PUSH1 0x1 DUP2 PUSH1 0x4 ADD PUSH1 0x0 CALLER PUSH20 0xFFFFFFFFFFFFFFFFFFFFFFFFFFFFFFFFFFFFFFFF AND PUSH20 0xFFFFFFFFFFFFFFFFFFFFFFFFFFFFFFFFFFFFFFFF AND DUP2 MSTORE PUSH1 0x20 ADD SWAP1 DUP2 MSTORE PUSH1 0x20 ADD PUSH1 0x0 KECCAK256 PUSH1 0x0 PUSH2 0x100 EXP DUP2 SLOAD DUP2 PUSH1 0xFF MUL NOT AND SWAP1 DUP4 ISZERO ISZERO MUL OR SWAP1 SSTORE POP DUP1 PUSH1 0x3 ADD PUSH1 0x0 DUP2 SLOAD DUP1 SWAP3 SWAP2 SWAP1 PUSH2 0xA70 SWAP1 PUSH2 0x1279 JUMP JUMPDEST SWAP2 SWAP1 POP SSTORE POP POP POP JUMP JUMPDEST DUP3 DUP1 SLOAD PUSH2 0xA85 SWAP1 PUSH2 0x1247 JUMP JUMPDEST SWAP1 PUSH1 0x0 MSTORE PUSH1 0x20 PUSH1 0x0 KECCAK256 SWAP1 PUSH1 0x1F ADD PUSH1 0x20 SWAP1 DIV DUP2 ADD SWAP3 DUP3 PUSH2 0xAA7 JUMPI PUSH1 0x0 DUP6 SSTORE PUSH2 0xAEE JUMP JUMPDEST DUP3 PUSH1 0x1F LT PUSH2 0xAC0 JUMPI DUP1 MLOAD PUSH1 0xFF NOT AND DUP4 DUP1 ADD OR DUP6 SSTORE PUSH2 0xAEE JUMP JUMPDEST DUP3 DUP1 ADD PUSH1 0x1 ADD DUP6 SSTORE DUP3 ISZERO PUSH2 0xAEE JUMPI SWAP2 DUP3 ADD JUMPDEST DUP3 DUP2 GT ISZERO PUSH2 0xAED JUMPI DUP3 MLOAD DUP3 SSTORE SWAP2 PUSH1 0x20 ADD SWAP2 SWAP1 PUSH1 0x1 ADD SWAP1 PUSH2 0xAD2 JUMP JUMPDEST JUMPDEST POP SWAP1 POP PUSH2 0xAFB SWAP2 SWAP1 PUSH2 0xAFF JUMP JUMPDEST POP SWAP1 JUMP JUMPDEST JUMPDEST DUP1 DUP3 GT ISZERO PUSH2 0xB18 JUMPI PUSH1 0x0 DUP2 PUSH1 0x0 SWAP1 SSTORE POP PUSH1 0x1 ADD PUSH2 0xB00 JUMP JUMPDEST POP SWAP1 JUMP JUMPDEST PUSH1 0x0 PUSH1 0x40 MLOAD SWAP1 POP SWAP1 JUMP JUMPDEST PUSH1 0x0 DUP1 REVERT JUMPDEST PUSH1 0x0 DUP1 REVERT JUMPDEST PUSH1 0x0 DUP2 SWAP1 POP SWAP2 SWAP1 POP JUMP JUMPDEST PUSH2 0xB43 DUP2 PUSH2 0xB30 JUMP JUMPDEST DUP2 EQ PUSH2 0xB4E JUMPI PUSH1 0x0 DUP1 REVERT JUMPDEST POP JUMP JUMPDEST PUSH1 0x0 DUP2 CALLDATALOAD SWAP1 POP PUSH2 0xB60 DUP2 PUSH2 0xB3A JUMP JUMPDEST SWAP3 SWAP2 POP POP JUMP JUMPDEST PUSH1 0x0 PUSH1 0x20 DUP3 DUP5 SUB SLT ISZERO PUSH2 0xB7C JUMPI PUSH2 0xB7B PUSH2 0xB26 JUMP JUMPDEST JUMPDEST PUSH1 0x0 PUSH2 0xB8A DUP5 DUP3 DUP6 ADD PUSH2 0xB51 JUMP JUMPDEST SWAP2 POP POP SWAP3 SWAP2 POP POP JUMP JUMPDEST PUSH1 0x0 PUSH20 0xFFFFFFFFFFFFFFFFFFFFFFFFFFFFFFFFFFFFFFFF DUP3 AND SWAP1 POP SWAP2 SWAP1 POP JUMP JUMPDEST PUSH1 0x0 PUSH2 0xBBE DUP3 PUSH2 0xB93 JUMP JUMPDEST SWAP1 POP SWAP2 SWAP1 POP JUMP JUMPDEST PUSH2 0xBCE DUP2 PUSH2 0xBB3 JUMP JUMPDEST DUP2 EQ PUSH2 0xBD9 JUMPI PUSH1 0x0 DUP1 REVERT JUMPDEST POP JUMP JUMPDEST PUSH1 0x0 DUP2 CALLDATALOAD SWAP1 POP PUSH2 0xBEB DUP2 PUSH2 0xBC5 JUMP JUMPDEST SWAP3 SWAP2 POP POP JUMP JUMPDEST PUSH1 0x0 PUSH1 0x20 DUP3 DUP5 SUB SLT ISZERO PUSH2 0xC07 JUMPI PUSH2 0xC06 PUSH2 0xB26 JUMP JUMPDEST JUMPDEST PUSH1 0x0 PUSH2 0xC15 DUP5 DUP3 DUP6 ADD PUSH2 0xBDC JUMP JUMPDEST SWAP2 POP POP SWAP3 SWAP2 POP POP JUMP JUMPDEST PUSH1 0x0 DUP2 ISZERO ISZERO SWAP1 POP SWAP2 SWAP1 POP JUMP JUMPDEST PUSH2 0xC33 DUP2 PUSH2 0xC1E JUMP JUMPDEST DUP3 MSTORE POP POP JUMP JUMPDEST PUSH1 0x0 PUSH1 0x20 DUP3 ADD SWAP1 POP PUSH2 0xC4E PUSH1 0x0 DUP4 ADD DUP5 PUSH2 0xC2A JUMP JUMPDEST SWAP3 SWAP2 POP POP JUMP JUMPDEST PUSH2 0xC5D DUP2 PUSH2 0xB30 JUMP JUMPDEST DUP3 MSTORE POP POP JUMP JUMPDEST PUSH1 0x0 PUSH1 0x20 DUP3 ADD SWAP1 POP PUSH2 0xC78 PUSH1 0x0 DUP4 ADD DUP5 PUSH2 0xC54 JUMP JUMPDEST SWAP3 SWAP2 POP POP JUMP JUMPDEST PUSH2 0xC87 DUP2 PUSH2 0xBB3 JUMP JUMPDEST DUP3 MSTORE POP POP JUMP JUMPDEST PUSH1 0x0 PUSH1 0xA0 DUP3 ADD SWAP1 POP PUSH2 0xCA2 PUSH1 0x0 DUP4 ADD DUP9 PUSH2 0xC54 JUMP JUMPDEST PUSH2 0xCAF PUSH1 0x20 DUP4 ADD DUP8 PUSH2 0xC54 JUMP JUMPDEST PUSH2 0xCBC PUSH1 0x40 DUP4 ADD DUP7 PUSH2 0xC54 JUMP JUMPDEST PUSH2 0xCC9 PUSH1 0x60 DUP4 ADD DUP6 PUSH2 0xC54 JUMP JUMPDEST PUSH2 0xCD6 PUSH1 0x80 DUP4 ADD DUP5 PUSH2 0xC7E JUMP JUMPDEST SWAP7 SWAP6 POP POP POP POP POP POP JUMP JUMPDEST PUSH1 0x0 PUSH1 0x20 DUP3 ADD SWAP1 POP PUSH2 0xCF5 PUSH1 0x0 DUP4 ADD DUP5 PUSH2 0xC7E JUMP JUMPDEST SWAP3 SWAP2 POP POP JUMP JUMPDEST PUSH1 0x0 DUP2 MLOAD SWAP1 POP SWAP2 SWAP1 POP JUMP JUMPDEST PUSH1 0x0 DUP3 DUP3 MSTORE PUSH1 0x20 DUP3 ADD SWAP1 POP SWAP3 SWAP2 POP POP JUMP JUMPDEST PUSH1 0x0 JUMPDEST DUP4 DUP2 LT ISZERO PUSH2 0xD35 JUMPI DUP1 DUP3 ADD MLOAD DUP2 DUP5 ADD MSTORE PUSH1 0x20 DUP2 ADD SWAP1 POP PUSH2 0xD1A JUMP JUMPDEST DUP4 DUP2 GT ISZERO PUSH2 0xD44 JUMPI PUSH1 0x0 DUP5 DUP5 ADD MSTORE JUMPDEST POP POP POP POP JUMP JUMPDEST PUSH1 0x0 PUSH1 0x1F NOT PUSH1 0x1F DUP4 ADD AND SWAP1 POP SWAP2 SWAP1 POP JUMP JUMPDEST PUSH1 0x0 PUSH2 0xD66 DUP3 PUSH2 0xCFB JUMP JUMPDEST PUSH2 0xD70 DUP2 DUP6 PUSH2 0xD06 JUMP JUMPDEST SWAP4 POP PUSH2 0xD80 DUP2 DUP6 PUSH1 0x20 DUP7 ADD PUSH2 0xD17 JUMP JUMPDEST PUSH2 0xD89 DUP2 PUSH2 0xD4A JUMP JUMPDEST DUP5 ADD SWAP2 POP POP SWAP3 SWAP2 POP POP JUMP JUMPDEST PUSH1 0x0 PUSH2 0xD9F DUP3 PUSH2 0xB93 JUMP JUMPDEST SWAP1 POP SWAP2 SWAP1 POP JUMP JUMPDEST PUSH2 0xDAF DUP2 PUSH2 0xD94 JUMP JUMPDEST DUP3 MSTORE POP POP JUMP JUMPDEST PUSH1 0x0 PUSH1 0xA0 DUP3 ADD SWAP1 POP DUP2 DUP2 SUB PUSH1 0x0 DUP4 ADD MSTORE PUSH2 0xDCF DUP2 DUP9 PUSH2 0xD5B JUMP JUMPDEST SWAP1 POP PUSH2 0xDDE PUSH1 0x20 DUP4 ADD DUP8 PUSH2 0xC54 JUMP JUMPDEST PUSH2 0xDEB PUSH1 0x40 DUP4 ADD DUP7 PUSH2 0xDA6 JUMP JUMPDEST PUSH2 0xDF8 PUSH1 0x60 DUP4 ADD DUP6 PUSH2 0xC2A JUMP JUMPDEST PUSH2 0xE05 PUSH1 0x80 DUP4 ADD DUP5 PUSH2 0xC54 JUMP JUMPDEST SWAP7 SWAP6 POP POP POP POP POP POP JUMP JUMPDEST PUSH1 0x0 DUP1 REVERT JUMPDEST PUSH1 0x0 DUP1 REVERT JUMPDEST PUSH32 0x4E487B7100000000000000000000000000000000000000000000000000000000 PUSH1 0x0 MSTORE PUSH1 0x41 PUSH1 0x4 MSTORE PUSH1 0x24 PUSH1 0x0 REVERT JUMPDEST PUSH2 0xE51 DUP3 PUSH2 0xD4A JUMP JUMPDEST DUP2 ADD DUP2 DUP2 LT PUSH8 0xFFFFFFFFFFFFFFFF DUP3 GT OR ISZERO PUSH2 0xE70 JUMPI PUSH2 0xE6F PUSH2 0xE19 JUMP JUMPDEST JUMPDEST DUP1 PUSH1 0x40 MSTORE POP POP POP JUMP JUMPDEST PUSH1 0x0 PUSH2 0xE83 PUSH2 0xB1C JUMP JUMPDEST SWAP1 POP PUSH2 0xE8F DUP3 DUP3 PUSH2 0xE48 JUMP JUMPDEST SWAP2 SWAP1 POP JUMP JUMPDEST PUSH1 0x0 PUSH8 0xFFFFFFFFFFFFFFFF DUP3 GT ISZERO PUSH2 0xEAF JUMPI PUSH2 0xEAE PUSH2 0xE19 JUMP JUMPDEST JUMPDEST PUSH2 0xEB8 DUP3 PUSH2 0xD4A JUMP JUMPDEST SWAP1 POP PUSH1 0x20 DUP2 ADD SWAP1 POP SWAP2 SWAP1 POP JUMP JUMPDEST DUP3 DUP2 DUP4 CALLDATACOPY PUSH1 0x0 DUP4 DUP4 ADD MSTORE POP POP POP JUMP JUMPDEST PUSH1 0x0 PUSH2 0xEE7 PUSH2 0xEE2 DUP5 PUSH2 0xE94 JUMP JUMPDEST PUSH2 0xE79 JUMP JUMPDEST SWAP1 POP DUP3 DUP2 MSTORE PUSH1 0x20 DUP2 ADD DUP5 DUP5 DUP5 ADD GT ISZERO PUSH2 0xF03 JUMPI PUSH2 0xF02 PUSH2 0xE14 JUMP JUMPDEST JUMPDEST PUSH2 0xF0E DUP5 DUP3 DUP6 PUSH2 0xEC5 JUMP JUMPDEST POP SWAP4 SWAP3 POP POP POP JUMP JUMPDEST PUSH1 0x0 DUP3 PUSH1 0x1F DUP4 ADD SLT PUSH2 0xF2B JUMPI PUSH2 0xF2A PUSH2 0xE0F JUMP JUMPDEST JUMPDEST DUP2 CALLDATALOAD PUSH2 0xF3B DUP5 DUP3 PUSH1 0x20 DUP7 ADD PUSH2 0xED4 JUMP JUMPDEST SWAP2 POP POP SWAP3 SWAP2 POP POP JUMP JUMPDEST PUSH1 0x0 DUP1 PUSH1 0x0 PUSH1 0x60 DUP5 DUP7 SUB SLT ISZERO PUSH2 0xF5D JUMPI PUSH2 0xF5C PUSH2 0xB26 JUMP JUMPDEST JUMPDEST PUSH1 0x0 DUP5 ADD CALLDATALOAD PUSH8 0xFFFFFFFFFFFFFFFF DUP2 GT ISZERO PUSH2 0xF7B JUMPI PUSH2 0xF7A PUSH2 0xB2B JUMP JUMPDEST JUMPDEST PUSH2 0xF87 DUP7 DUP3 DUP8 ADD PUSH2 0xF16 JUMP JUMPDEST SWAP4 POP POP PUSH1 0x20 PUSH2 0xF98 DUP7 DUP3 DUP8 ADD PUSH2 0xB51 JUMP JUMPDEST SWAP3 POP POP PUSH1 0x40 PUSH2 0xFA9 DUP7 DUP3 DUP8 ADD PUSH2 0xBDC JUMP JUMPDEST SWAP2 POP POP SWAP3 POP SWAP3 POP SWAP3 JUMP JUMPDEST PUSH32 0x4F6E6C79206D616E616765722063616E2063616C6C20746869732066756E6374 PUSH1 0x0 DUP3 ADD MSTORE PUSH32 0x696F6E2100000000000000000000000000000000000000000000000000000000 PUSH1 0x20 DUP3 ADD MSTORE POP JUMP JUMPDEST PUSH1 0x0 PUSH2 0x100F PUSH1 0x24 DUP4 PUSH2 0xD06 JUMP JUMPDEST SWAP2 POP PUSH2 0x101A DUP3 PUSH2 0xFB3 JUMP JUMPDEST PUSH1 0x40 DUP3 ADD SWAP1 POP SWAP2 SWAP1 POP JUMP JUMPDEST PUSH1 0x0 PUSH1 0x20 DUP3 ADD SWAP1 POP DUP2 DUP2 SUB PUSH1 0x0 DUP4 ADD MSTORE PUSH2 0x103E DUP2 PUSH2 0x1002 JUMP JUMPDEST SWAP1 POP SWAP2 SWAP1 POP JUMP JUMPDEST PUSH32 0x5265717565737420697320636F6D706C65746564212100000000000000000000 PUSH1 0x0 DUP3 ADD MSTORE POP JUMP JUMPDEST PUSH1 0x0 PUSH2 0x107B PUSH1 0x16 DUP4 PUSH2 0xD06 JUMP JUMPDEST SWAP2 POP PUSH2 0x1086 DUP3 PUSH2 0x1045 JUMP JUMPDEST PUSH1 0x20 DUP3 ADD SWAP1 POP SWAP2 SWAP1 POP JUMP JUMPDEST PUSH1 0x0 PUSH1 0x20 DUP3 ADD SWAP1 POP DUP2 DUP2 SUB PUSH1 0x0 DUP4 ADD MSTORE PUSH2 0x10AA DUP2 PUSH2 0x106E JUMP JUMPDEST SWAP1 POP SWAP2 SWAP1 POP JUMP JUMPDEST PUSH32 0x4E6F7420656E6F7567687420636F696E21210000000000000000000000000000 PUSH1 0x0 DUP3 ADD MSTORE POP JUMP JUMPDEST PUSH1 0x0 PUSH2 0x10E7 PUSH1 0x12 DUP4 PUSH2 0xD06 JUMP JUMPDEST SWAP2 POP PUSH2 0x10F2 DUP3 PUSH2 0x10B1 JUMP JUMPDEST PUSH1 0x20 DUP3 ADD SWAP1 POP SWAP2 SWAP1 POP JUMP JUMPDEST PUSH1 0x0 PUSH1 0x20 DUP3 ADD SWAP1 POP DUP2 DUP2 SUB PUSH1 0x0 DUP4 ADD MSTORE PUSH2 0x1116 DUP2 PUSH2 0x10DA JUMP JUMPDEST SWAP1 POP SWAP2 SWAP1 POP JUMP JUMPDEST PUSH32 0x4E487B7100000000000000000000000000000000000000000000000000000000 PUSH1 0x0 MSTORE PUSH1 0x12 PUSH1 0x4 MSTORE PUSH1 0x24 PUSH1 0x0 REVERT JUMPDEST PUSH32 0x4E487B7100000000000000000000000000000000000000000000000000000000 PUSH1 0x0 MSTORE PUSH1 0x11 PUSH1 0x4 MSTORE PUSH1 0x24 PUSH1 0x0 REVERT JUMPDEST PUSH1 0x0 PUSH2 0x1186 DUP3 PUSH2 0xB30 JUMP JUMPDEST SWAP2 POP PUSH2 0x1191 DUP4 PUSH2 0xB30 JUMP JUMPDEST SWAP3 POP DUP3 PUSH2 0x11A1 JUMPI PUSH2 0x11A0 PUSH2 0x111D JUMP JUMPDEST JUMPDEST DUP3 DUP3 DIV SWAP1 POP SWAP3 SWAP2 POP POP JUMP JUMPDEST PUSH32 0x4E6F7420656E6F7567687420617070726F766521000000000000000000000000 PUSH1 0x0 DUP3 ADD MSTORE POP JUMP JUMPDEST PUSH1 0x0 PUSH2 0x11E2 PUSH1 0x14 DUP4 PUSH2 0xD06 JUMP JUMPDEST SWAP2 POP PUSH2 0x11ED DUP3 PUSH2 0x11AC JUMP JUMPDEST PUSH1 0x20 DUP3 ADD SWAP1 POP SWAP2 SWAP1 POP JUMP JUMPDEST PUSH1 0x0 PUSH1 0x20 DUP3 ADD SWAP1 POP DUP2 DUP2 SUB PUSH1 0x0 DUP4 ADD MSTORE PUSH2 0x1211 DUP2 PUSH2 0x11D5 JUMP JUMPDEST SWAP1 POP SWAP2 SWAP1 POP JUMP JUMPDEST PUSH32 0x4E487B7100000000000000000000000000000000000000000000000000000000 PUSH1 0x0 MSTORE PUSH1 0x22 PUSH1 0x4 MSTORE PUSH1 0x24 PUSH1 0x0 REVERT JUMPDEST PUSH1 0x0 PUSH1 0x2 DUP3 DIV SWAP1 POP PUSH1 0x1 DUP3 AND DUP1 PUSH2 0x125F JUMPI PUSH1 0x7F DUP3 AND SWAP2 POP JUMPDEST PUSH1 0x20 DUP3 LT DUP2 EQ ISZERO PUSH2 0x1273 JUMPI PUSH2 0x1272 PUSH2 0x1218 JUMP JUMPDEST JUMPDEST POP SWAP2 SWAP1 POP JUMP JUMPDEST PUSH1 0x0 PUSH2 0x1284 DUP3 PUSH2 0xB30 JUMP JUMPDEST SWAP2 POP PUSH32 0xFFFFFFFFFFFFFFFFFFFFFFFFFFFFFFFFFFFFFFFFFFFFFFFFFFFFFFFFFFFFFFFF DUP3 EQ ISZERO PUSH2 0x12B7 JUMPI PUSH2 0x12B6 PUSH2 0x114C JUMP JUMPDEST JUMPDEST PUSH1 0x1 DUP3 ADD SWAP1 POP SWAP2 SWAP1 POP JUMP JUMPDEST PUSH32 0x416D6F756E742065746865722073686F756C6420626967676572206D696E696D PUSH1 0x0 DUP3 ADD MSTORE PUSH32 0x756D000000000000000000000000000000000000000000000000000000000000 PUSH1 0x20 DUP3 ADD MSTORE POP JUMP JUMPDEST PUSH1 0x0 PUSH2 0x131E PUSH1 0x22 DUP4 PUSH2 0xD06 JUMP JUMPDEST SWAP2 POP PUSH2 0x1329 DUP3 PUSH2 0x12C2 JUMP JUMPDEST PUSH1 0x40 DUP3 ADD SWAP1 POP SWAP2 SWAP1 POP JUMP JUMPDEST PUSH1 0x0 PUSH1 0x20 DUP3 ADD SWAP1 POP DUP2 DUP2 SUB PUSH1 0x0 DUP4 ADD MSTORE PUSH2 0x134D DUP2 PUSH2 0x1311 JUMP JUMPDEST SWAP1 POP SWAP2 SWAP1 POP JUMP JUMPDEST PUSH32 0x4E6F7420636F6E74726962757465000000000000000000000000000000000000 PUSH1 0x0 DUP3 ADD MSTORE POP JUMP JUMPDEST PUSH1 0x0 PUSH2 0x138A PUSH1 0xE DUP4 PUSH2 0xD06 JUMP JUMPDEST SWAP2 POP PUSH2 0x1395 DUP3 PUSH2 0x1354 JUMP JUMPDEST PUSH1 0x20 DUP3 ADD SWAP1 POP SWAP2 SWAP1 POP JUMP JUMPDEST PUSH1 0x0 PUSH1 0x20 DUP3 ADD SWAP1 POP DUP2 DUP2 SUB PUSH1 0x0 DUP4 ADD MSTORE PUSH2 0x13B9 DUP2 PUSH2 0x137D JUMP JUMPDEST SWAP1 POP SWAP2 SWAP1 POP JUMP JUMPDEST PUSH32 0x596F752061726520617070726F76656421000000000000000000000000000000 PUSH1 0x0 DUP3 ADD MSTORE POP JUMP JUMPDEST PUSH1 0x0 PUSH2 0x13F6 PUSH1 0x11 DUP4 PUSH2 0xD06 JUMP JUMPDEST SWAP2 POP PUSH2 0x1401 DUP3 PUSH2 0x13C0 JUMP JUMPDEST PUSH1 0x20 DUP3 ADD SWAP1 POP SWAP2 SWAP1 POP JUMP JUMPDEST PUSH1 0x0 PUSH1 0x20 DUP3 ADD SWAP1 POP DUP2 DUP2 SUB PUSH1 0x0 DUP4 ADD MSTORE PUSH2 0x1425 DUP2 PUSH2 0x13E9 JUMP JUMPDEST SWAP1 POP SWAP2 SWAP1 POP JUMP INVALID LOG2 PUSH5 0x6970667358 0x22 SLT KECCAK256 RETURNDATACOPY LOG0 PUSH5 0x1DF22D2CF7 MSIZE 0xB0 0x2C JUMP SWAP8 0xB9 SHR NUMBER 0xBD LOG2 0xA7 LOG4 CALLVALUE PUSH21 0xB12696F25E7F8144A8AA64736F6C634300080B0033 LOG2 PUSH5 0x6970667358 0x22 SLT KECCAK256 0xE7 0x24 LOG2 LOG3 0xE9 SWAP11 0x5E CALL 0xDD MOD PUSH8 0xA44DBAFE35417B89 0xDC SWAP5 MOD 0xC 0x23 PUSH32 0xF2010B18D2038464736F6C634300080B00330000000000000000000000000000 "},"gasEstimates":{"creation":{"codeDepositCost":"1337800","executionCost":"1397","totalCost":"1339197"},"external":{"createCampaign(uint256)":"infinite","deployCampaigns(uint256)":"4956","getListCampaigns()":"infinite"}},"methodIdentifiers":{"createCampaign(uint256)":"a3303a75","deployCampaigns(uint256)":"db05983b","getListCampaigns()":"e7e1ffa4"}},"storageLayout":{"storage":[{"astId":4,"contract":"Campaign.sol:CampaignFactory","label":"deployCampaigns","offset":0,"slot":"0","type":"t_array(t_address)dyn_storage"}],"types":{"t_address":{"encoding":"inplace","label":"address","numberOfBytes":"20"},"t_array(t_address)dyn_storage":{"base":"t_address","encoding":"dynamic_array","label":"address[]","numberOfBytes":"32"}}},"userdoc":{"kind":"user","methods":{},"version":1}}